{
	"data": {
		"bytecode": {
			"linkReferences": {},
			"object": "60c0604052600b60809081526a086eae086c2d6cabe888ab60ab1b60a0526004906200002c9082620001d5565b5060408051808201909152600580825264086aaa08ab60db1b602083015290620000579082620001d5565b503480156200006557600080fd5b5060408051602081019091526000815262000080816200011e565b50600160078190556040805180820190915260008082526020820181815260098054948501815590915290517f6e1540171b6c0c960b71a7020d9f60077f6af931a8bbf590da0223dacf75c7af600290930292830180546001600160a01b0319166001600160a01b03909216919091179055517f6e1540171b6c0c960b71a7020d9f60077f6af931a8bbf590da0223dacf75c7b090910155620002a1565b60026200012c8282620001d5565b5050565b634e487b7160e01b600052604160045260246000fd5b600181811c908216806200015b57607f821691505b6020821081036200017c57634e487b7160e01b600052602260045260246000fd5b50919050565b601f821115620001d057600081815260208120601f850160051c81016020861015620001ab5750805b601f850160051c820191505b81811015620001cc57828155600101620001b7565b5050505b505050565b81516001600160401b03811115620001f157620001f162000130565b620002098162000202845462000146565b8462000182565b602080601f831160018114620002415760008415620002285750858301515b600019600386901b1c1916600185901b178555620001cc565b600085815260208120601f198616915b82811015620002725788860151825594840194600190910190840162000251565b5085821015620002915787850151600019600388901b60f8161c191681555b5050505050600190811b01905550565b6150e680620002b16000396000f3fe608060405260043610620001bd5760003560e01c80637b50f8c511620000ff578063c3bfd9511162000095578063f242432a116200006c578063f242432a146200058a578063f7d3180914620005af578063f979ca6d14620005c6578063fb9f478914620005eb57600080fd5b8063c3bfd95114620004f3578063e985e9c51462000518578063ef66b87a146200056557600080fd5b8063a22cb46511620000d6578063a22cb4651462000440578063bd85b0391462000465578063bfef7f5f1462000496578063c05d394514620004ae57600080fd5b80637b50f8c514620003de5780639049f9d2146200040357806395d89b41146200042857600080fd5b80634ddd33cc116200017557806359f842b2116200014c57806359f842b21462000347578063691dc25214620003825780636c08c57e14620003bd5780637a5cac0514620003d457600080fd5b80634ddd33cc14620002b95780634e1273f414620002e05780634f558e79146200031457600080fd5b8062fdd58e14620001c257806301ffc9a714620001fa57806306fdde0314620002305780630e89341c14620002575780632eb2c2d6146200027c578063313ce56714620002a3575b600080fd5b348015620001cf57600080fd5b50620001e7620001e1366004620034eb565b62000602565b6040519081526020015b60405180910390f35b3480156200020757600080fd5b506200021f6200021936600462003531565b6200069d565b6040519015158152602001620001f1565b3480156200023d57600080fd5b5062000248620006f0565b604051620001f1919062003599565b3480156200026457600080fd5b506200024862000276366004620035ae565b6200078a565b3480156200028957600080fd5b50620002a16200029b36600462003729565b62000826565b005b348015620002b057600080fd5b506012620001e7565b348015620002c657600080fd5b50620002d1620008c4565b604051620001f19190620037e5565b348015620002ed57600080fd5b5062000305620002ff36600462003834565b62000a41565b604051620001f191906200394d565b3480156200032157600080fd5b506200021f62000333366004620035ae565b600090815260036020526040902054151590565b3480156200035457600080fd5b506200036c6200036636600462003962565b62000b80565b60408051928352602083019190915201620001f1565b3480156200038f57600080fd5b50600854620003a4906001600160a01b031681565b6040516001600160a01b039091168152602001620001f1565b620001e7620003ce366004620039bd565b62000e7f565b620002a16200118f565b348015620003eb57600080fd5b506200036c620003fd36600462003a15565b620011af565b3480156200041057600080fd5b50620001e76200042236600462003a15565b62001211565b3480156200043557600080fd5b5062000248620013da565b3480156200044d57600080fd5b50620002a16200045f36600462003a44565b620013eb565b3480156200047257600080fd5b50620001e762000484366004620035ae565b60009081526003602052604090205490565b348015620004a357600080fd5b50620002a1620013fc565b348015620004bb57600080fd5b50620004d3620004cd366004620035ae565b6200167b565b604080516001600160a01b039093168352602083019190915201620001f1565b3480156200050057600080fd5b506200036c62000512366004620035ae565b620016b4565b3480156200052557600080fd5b506200021f6200053736600462003a82565b6001600160a01b03918216600090815260016020908152604080832093909416825291909152205460ff1690565b3480156200057257600080fd5b50620001e76200058436600462003ab5565b6200172a565b3480156200059757600080fd5b50620002a1620005a936600462003afb565b6200181d565b620001e7620005c0366004620039bd565b620018ab565b348015620005d357600080fd5b50620001e7620005e536600462003ab5565b62001c2c565b620001e7620005fc36600462003b6c565b62001d09565b60006001600160a01b038316620006745760405162461bcd60e51b815260206004820152602b60248201527f455243313135353a2062616c616e636520717565727920666f7220746865207a60448201526a65726f206164647265737360a81b60648201526084015b60405180910390fd5b506000818152602081815260408083206001600160a01b03861684529091529020545b92915050565b60006001600160e01b03198216636cdb3d1360e11b1480620006cf57506001600160e01b031982166303a24d0760e21b145b806200069757506301ffc9a760e01b6001600160e01b031983161462000697565b606060048054620007019062003bcf565b80601f01602080910402602001604051908101604052809291908181526020018280546200072f9062003bcf565b8015620007805780601f10620007545761010080835404028352916020019162000780565b820191906000526020600020905b8154815290600101906020018083116200076257829003601f168201915b5050505050905090565b6060600280546200079b9062003bcf565b80601f0160208091040260200160405190810160405280929190818152602001828054620007c99062003bcf565b80156200081a5780601f10620007ee576101008083540402835291602001916200081a565b820191906000526020600020905b815481529060010190602001808311620007fc57829003601f168201915b50505050509050919050565b6001600160a01b03851633148062000845575062000845853362000537565b620008ae5760405162461bcd60e51b815260206004820152603260248201527f455243313135353a207472616e736665722063616c6c6572206973206e6f74206044820152711bdddb995c881b9bdc88185c1c1c9bdd995960721b60648201526084016200066b565b620008bd8585858585620021bc565b5050505050565b600954606090600090620008da90600162003c1b565b67ffffffffffffffff811115620008f557620008f5620035c8565b6040519080825280602002602001820160405280156200091f578160200160208202803683370190505b5090506000816000815181106200093a576200093a62003c31565b6001600160a01b0392831660209182029290920101526008548251911690829060019081106200096e576200096e62003c31565b60200260200101906001600160a01b031690816001600160a01b03168152505060005b60095481101562000a3b57600060098281548110620009b457620009b462003c31565b906000526020600020906002020190508060010154600003620009d8575062000a26565b80546001600160a01b031683620009f184600262003c1b565b8151811062000a045762000a0462003c31565b60200260200101906001600160a01b031690816001600160a01b031681525050505b8062000a328162003c47565b91505062000991565b50919050565b6060815183511462000aa85760405162461bcd60e51b815260206004820152602960248201527f455243313135353a206163636f756e747320616e6420696473206c656e677468604482015268040dad2e6dac2e8c6d60bb1b60648201526084016200066b565b6000835167ffffffffffffffff81111562000ac75762000ac7620035c8565b60405190808252806020026020018201604052801562000af1578160200160208202803683370190505b50905060005b845181101562000b785762000b4585828151811062000b1a5762000b1a62003c31565b602002602001015185838151811062000b375762000b3762003c31565b602002602001015162000602565b82828151811062000b5a5762000b5a62003c31565b602090810291909101015262000b708162003c47565b905062000af7565b509392505050565b60008060026007540362000ba85760405162461bcd60e51b81526004016200066b9062003c63565b60026007556001600160a01b0387166000908152600a6020526040812054600980549192918390811062000be05762000be062003c31565b90600052602060002090600202019050600062000bfd8a620023c1565b6000848152600360205260408120549192508162000c1c8c8562003c9a565b62000c28919062003cb4565b90506000828c866001015462000c3f919062003c9a565b62000c4b919062003cb4565b90508a82101562000cab5760405162461bcd60e51b8152602060048201526024808201527f416d6f756e74546f6b656e734f7574206973206c657373207468616e206d696e604482015263696d756d60e01b60648201526084016200066b565b8981101562000d0f5760405162461bcd60e51b815260206004820152602960248201527f416d6f756e744375706578546f6b656e734f7574206973206c657373207468616044820152686e206d696e696d756d60b81b60648201526084016200066b565b8085600101600082825462000d25919062003cd7565b9091555062000d38905033878e620024b0565b62000d458d8a846200264f565b60085460405163a9059cbb60e01b81526001600160a01b038b81166004830152602482018490529091169063a9059cbb906044016020604051808303816000875af115801562000d99573d6000803e3d6000fd5b505050506040513d601f19601f8201168201806040525081019062000dbf919062003ced565b5060408051838152602081018390529081018d90526001600160a01b038a811660608301528e16907f941e65c2e86e52e4d4bf73adc9a87775f81da9fa2aff39eda7322e562b08fd6e9060800160405180910390a26001600160a01b038d167ff10fc780c78f994a214c79a2ae8d8b7bfe7cc3f0f935a8f05a29525e71d7f12762000e4b848762003cd7565b60018801546040805192835260208301919091520160405180910390a26001600755909c909b509950505050505050505050565b600060026007540362000ea65760405162461bcd60e51b81526004016200066b9062003c63565b60026007556001600160a01b038086169087160362000ed95760405162461bcd60e51b81526004016200066b9062003d0d565b600854600090819081906001600160a01b03908116908a160362000fdf5762000f0288620011af565b9350915062000f1383838962002712565b90508581101562000f385760405162461bcd60e51b81526004016200066b9062003d50565b62000f4a888360008a8560006200276e565b6008546040516323b872dd60e01b81526001600160a01b03909116906323b872dd9062000f8090339030908c9060040162003da2565b6020604051808303816000875af115801562000fa0573d6000803e3d6000fd5b505050506040513d601f19601f8201168201806040525081019062000fc6919062003ced565b5062000fd48886836200264f565b925062001181915050565b6008546000906001600160a01b03908116908a1603620010df57620010048a620011af565b90945092506200101684848a62002712565b9050868110156200103b5760405162461bcd60e51b81526004016200066b9062003d50565b6200104c8a858a600080866200276e565b620010588a896200298b565b60085460405163a9059cbb60e01b81526001600160a01b038881166004830152602482018490529091169063a9059cbb906044016020604051808303816000875af1158015620010ac573d6000803e3d6000fd5b505050506040513d601f19601f82011682018060405250810190620010d2919062003ced565b5093506200118192505050565b620010ea8a620011af565b9094509250620010fc84848a62002712565b90506200110989620011af565b945092506200111a84848362002712565b9150868210156200113f5760405162461bcd60e51b81526004016200066b9062003d50565b620011508a858a600080866200276e565b6200116289846000848660006200276e565b6200116e8a896200298b565b6200117b8987846200264f565b50925050505b600160075595945050505050565b620011ac600066038d7ea4c68000633b9aca006000803362001d09565b50565b6001600160a01b0381166000908152600a602052604081205460098054839291839183908110620011e457620011e462003c31565b906000526020600020906002020160010154905060006200120586620023c1565b96919550909350505050565b6008546000906001600160a01b0390811690831603620012855760405162461bcd60e51b815260206004820152602860248201527f546f6b656e206d75737420626520646966666572656e742066726f6d2043555060448201526722ac102a37b5b2b760c11b60648201526084016200066b565b6001600160a01b0382166000908152600a602052604090205415620012f85760405162461bcd60e51b815260206004820152602260248201527f506f6f6c20666f72207468697320746f6b656e20616c72656164792065786973604482015261747360f01b60648201526084016200066b565b600980546001600160a01b038481166000818152600a60209081526040808320869055805180820182528481528083018481526001880189559790935291517f6e1540171b6c0c960b71a7020d9f60077f6af931a8bbf590da0223dacf75c7af6002870290810180546001600160a01b031916929096169190911790945594517f6e1540171b6c0c960b71a7020d9f60077f6af931a8bbf590da0223dacf75c7b0909301929092559051828152919290917f641e49906554552c8c33d7e09e02d1270590f405bc1da0c7b99a9c2808abdd05910160405180910390a292915050565b606060058054620007019062003bcf565b620013f833838362002c70565b5050565b60006040516200140c90620034c7565b620014179062003dc6565b604051809103906000f08015801562001434573d6000803e3d6000fd5b50905060006040516200144790620034c7565b620014529062003e0f565b604051809103906000f0801580156200146f573d6000803e3d6000fd5b5090506040516200148090620034c7565b6200148b9062003e56565b604051809103906000f080158015620014a8573d6000803e3d6000fd5b50600880546001600160a01b0319166001600160a01b039283161790556040516340c10f1960e01b81523360048201526c0c9f2c9cd04674edea400000006024820152908316906340c10f1990604401600060405180830381600087803b1580156200151357600080fd5b505af115801562001528573d6000803e3d6000fd5b50506040516340c10f1960e01b81523360048201526c0c9f2c9cd04674edea4000000060248201526001600160a01b03841692506340c10f199150604401600060405180830381600087803b1580156200158157600080fd5b505af115801562001596573d6000803e3d6000fd5b50506008546040516340c10f1960e01b81523360048201526c0c9f2c9cd04674edea4000000060248201526001600160a01b0390911692506340c10f199150604401600060405180830381600087803b158015620015f357600080fd5b505af115801562001608573d6000803e3d6000fd5b50505050620016178262001211565b50620016238162001211565b5062001630600062001211565b50620016588269d3c21bcecceda10000006b033b2e3c9fd0803ce80000006000803362001d09565b5062001676816b033b2e3c9fd0803ce8000000806000803362001d09565b505050565b600981815481106200168c57600080fd5b6000918252602090912060029091020180546001909101546001600160a01b03909116915082565b600080600060098481548110620016cf57620016cf62003c31565b906000526020600020906002020160010154905060006200171f60098681548110620016ff57620016ff62003c31565b60009182526020909120600290910201546001600160a01b0316620023c1565b959194509092505050565b6000826001600160a01b0316846001600160a01b031603620017605760405162461bcd60e51b81526004016200066b9062003d0d565b60085460009081906001600160a01b0390811690871603620017a3576200178785620011af565b90925090506200179981838662002d52565b9250505062001816565b6008546001600160a01b0390811690861603620017d657620017c586620011af565b925090506200179981838662002d52565b620017e185620011af565b9092509050620017f381838662002d52565b93506200180086620011af565b925090506200181181838662002d52565b925050505b9392505050565b6001600160a01b0385163314806200183c57506200183c853362000537565b6200189c5760405162461bcd60e51b815260206004820152602960248201527f455243313135353a2063616c6c6572206973206e6f74206f776e6572206e6f7260448201526808185c1c1c9bdd995960ba1b60648201526084016200066b565b620008bd858585858562002db7565b6000600260075403620018d25760405162461bcd60e51b81526004016200066b9062003c63565b60026007556001600160a01b0380861690871603620019055760405162461bcd60e51b81526004016200066b9062003d0d565b6001600160a01b0386161580156200191c57503484145b620019895760405162461bcd60e51b815260206004820152603660248201527f496e636f7272656374205f6d6178416d6f756e74546f6b656e73496e20666f72604482015275081b985d1a5d99481d1bdad95b881c1c9bdd9a59195960521b60648201526084016200066b565b6008546000908190819081906001600160a01b03908116908b160362001a9257620019b489620011af565b94509250620019c584848962002d52565b905087811115620019ea5760405162461bcd60e51b81526004016200066b9062003ea1565b620019fc89846000848b60006200276e565b6008546040516323b872dd60e01b81526001600160a01b03909116906323b872dd9062001a329033903090869060040162003da2565b6020604051808303816000875af115801562001a52573d6000803e3d6000fd5b505050506040513d601f19601f8201168201806040525081019062001a78919062003ced565b5062001a868987896200264f565b93506200118192505050565b6008546001600160a01b03908116908a160362001b905762001ab48a620011af565b909450925062001ac684848962002d52565b91508782111562001aeb5760405162461bcd60e51b81526004016200066b9062003ea1565b62001afc8a85846000808c6200276e565b62001b088a836200298b565b60085460405163a9059cbb60e01b81526001600160a01b038881166004830152602482018a90529091169063a9059cbb906044016020604051808303816000875af115801562001b5c573d6000803e3d6000fd5b505050506040513d601f19601f8201168201806040525081019062001b82919062003ced565b508194505050505062001181565b62001b9b89620011af565b9450925062001bac84848962002d52565b905062001bb98a620011af565b909450925062001bcb84848362002d52565b91508782111562001bf05760405162461bcd60e51b81526004016200066b9062003ea1565b62001c018a8584600080866200276e565b62001c1389846000848b60006200276e565b62001c1f8a836200298b565b6200117b8987896200264f565b6000826001600160a01b0316846001600160a01b03160362001c625760405162461bcd60e51b81526004016200066b9062003d0d565b60085460009081906001600160a01b039081169087160362001c9b5762001c8985620011af565b90925090506200179981838662002712565b6008546001600160a01b039081169086160362001cce5762001cbd86620011af565b925090506200179981838662002712565b62001cd986620011af565b9250905062001cea81838662002712565b935062001cf785620011af565b90925090506200181181838662002712565b600060026007540362001d305760405162461bcd60e51b81526004016200066b9062003c63565b60026007556001600160a01b0387166000908152600a60205260408120549081900362001d655762001d628862001211565b90505b60006009828154811062001d7d5762001d7d62003c31565b90600052602060002090600202019050600062001d9a8a620023c1565b60008481526003602052604081205491925081810362001e025762001dd561dead866103e86040518060200160405280600081525062002eff565b6103e862001dee62001de88c8e62003c9a565b62003025565b62001dfa919062003cd7565b905062001fdc565b600184015460009062001e16858d62003c9a565b62001e22919062003cb4565b90508b811162001e95578981101562001e8c5760405162461bcd60e51b815260206004820152602560248201527f496e73756666696369656e74205f616d6f756e74546f6b656e73496e2070726f6044820152641d9a59195960da1b60648201526084016200066b565b809b5062001f98565b60008486600101548e62001eaa919062003c9a565b62001eb6919062003cb4565b90508b81111562001f305760405162461bcd60e51b815260206004820152603c60248201527f496e73756666696369656e74205f616d6f756e74546f6b656e73496e2026205f60448201527f616d6f756e744375706578546f6b656e73496e2070726f76696465640000000060648201526084016200066b565b8981101562001f955760405162461bcd60e51b815260206004820152602a60248201527f496e73756666696369656e74205f616d6f756e744375706578546f6b656e73496044820152691b881c1c9bdd9a59195960b21b60648201526084016200066b565b9a505b62001fd88462001fa9858f62003c9a565b62001fb5919062003cb4565b600187015462001fc6868f62003c9a565b62001fd2919062003cb4565b6200309d565b9150505b600081116200203e5760405162461bcd60e51b815260206004820152602760248201527f496e73756666696369656e7420616d6f756e74206f66206c6971756964697479604482015266081b5a5b9d195960ca1b60648201526084016200066b565b8984600101600082825462002054919062003c1b565b909155506200206690508c8c6200298b565b6008546040516323b872dd60e01b81526001600160a01b03909116906323b872dd906200209c90339030908f9060040162003da2565b6020604051808303816000875af1158015620020bc573d6000803e3d6000fd5b505050506040513d601f19601f82011682018060405250810190620020e2919062003ced565b50620021008786836040518060200160405280600081525062002eff565b604080518c8152602081018c90529081018290526001600160a01b0388811660608301528d16907f42199b399eec9bceda8511afd1d6412eb81c0cc2fdbfcaf1892164387c964d419060800160405180910390a26001600160a01b038c167ff10fc780c78f994a214c79a2ae8d8b7bfe7cc3f0f935a8f05a29525e71d7f1276200218b8d8662003c1b565b60018701546040805192835260208301919091520160405180910390a260016007559b9a5050505050505050505050565b8151835114620022205760405162461bcd60e51b815260206004820152602860248201527f455243313135353a2069647320616e6420616d6f756e7473206c656e677468206044820152670dad2e6dac2e8c6d60c31b60648201526084016200066b565b6001600160a01b038416620022495760405162461bcd60e51b81526004016200066b9062003ef4565b336200225a818787878787620030b0565b60005b84518110156200234f5760008582815181106200227e576200227e62003c31565b6020026020010151905060008583815181106200229f576200229f62003c31565b602090810291909101810151600084815280835260408082206001600160a01b038e168352909352919091205490915081811015620022f25760405162461bcd60e51b81526004016200066b9062003f39565b6000838152602081815260408083206001600160a01b038e8116855292528083208585039055908b168252812080548492906200233190849062003c1b565b9250508190555050505080620023479062003c47565b90506200225d565b50846001600160a01b0316866001600160a01b0316826001600160a01b03167f4a39dc06d4c0dbc64b70af90fd698a233a518aa5d07e595d983b8c0526c8f7fb8787604051620023a192919062003f83565b60405180910390a4620023b981878787878762003243565b505050505050565b6001600160a01b0381166000908152600a6020526040812054620024285760405162461bcd60e51b815260206004820152601f60248201527f506f6f6c2077697468207468697320746f6b656e206d7573742065786973740060448201526064016200066b565b60006001600160a01b038316620024455762001816344762003cd7565b6040516370a0823160e01b81523060048201526001600160a01b038416906370a0823190602401602060405180830381865afa1580156200248a573d6000803e3d6000fd5b505050506040513d601f19601f8201168201806040525081019062001816919062003fac565b6001600160a01b038316620025145760405162461bcd60e51b815260206004820152602360248201527f455243313135353a206275726e2066726f6d20746865207a65726f206164647260448201526265737360e81b60648201526084016200066b565b3360006200252284620033b2565b905060006200253184620033b2565b90506200255383876000858560405180602001604052806000815250620030b0565b6000858152602081815260408083206001600160a01b038a16845290915290205484811015620025d25760405162461bcd60e51b8152602060048201526024808201527f455243313135353a206275726e20616d6f756e7420657863656564732062616c604482015263616e636560e01b60648201526084016200066b565b6000868152602081815260408083206001600160a01b038b81168086529184528285208a8703905582518b81529384018a90529092908816917fc3d58168c5ae7397731d063d5bbf3d657854427343f4c083240f7aacaa2d0f62910160405180910390a46040805160208101909152600090525b50505050505050565b6001600160a01b03831615620026db5760405163a9059cbb60e01b81526001600160a01b0383811660048301526024820183905284169063a9059cbb906044016020604051808303816000875af1158015620026af573d6000803e3d6000fd5b505050506040513d601f19601f82011682018060405250810190620026d5919062003ced565b50505050565b6040516001600160a01b0383169082156108fc029083906000818181858888f19350505050158015620026d5573d6000803e3d6000fd5b60008062002724600f61271062003cd7565b62002730908462003c9a565b905080620027416127108762003c9a565b6200274d919062003c1b565b62002759858362003c9a565b62002765919062003cb4565b95945050505050565b6001600160a01b0386166000908152600a60205260408120546009805491929183908110620027a157620027a162003c31565b906000526020600020906002020190506000816001015488620027c5919062003c9a565b9050600085620027d6898b62003c1b565b620027e2919062003cd7565b9050600085888560010154620027f9919062003c1b565b62002805919062003cd7565b9050600061271062002819600f8b62003c9a565b62002825919062003cb4565b62002831908362003cd7565b61271062002841600f8d62003c9a565b6200284d919062003cb4565b62002859908562003cd7565b62002865919062003c9a565b905083811015620028df5760405162461bcd60e51b815260206004820152603960248201527f4b2076616c7565206d75737420696e637265617365206f722072656d61696e2060448201527f756e6368616e67656420647572696e6720616e7920737761700000000000000060648201526084016200066b565b60018501829055604080518b8152602081018b9052908101899052606081018890526001600160a01b038d16907f49926bbebe8474393f434dfa4f78694c0923efa07d19f2284518bfabd06eb7379060800160405180910390a260408051848152602081018490526001600160a01b038e16917ff10fc780c78f994a214c79a2ae8d8b7bfe7cc3f0f935a8f05a29525e71d7f127910160405180910390a2505050505050505050505050565b6001600160a01b0382161562002bc2576040516370a0823160e01b81523060048201526000906001600160a01b038416906370a0823190602401602060405180830381865afa158015620029e3573d6000803e3d6000fd5b505050506040513d601f19601f8201168201806040525081019062002a09919062003fac565b6040516323b872dd60e01b81529091506001600160a01b038416906323b872dd9062002a3e9033903090879060040162003da2565b6020604051808303816000875af115801562002a5e573d6000803e3d6000fd5b505050506040513d601f19601f8201168201806040525081019062002a84919062003ced565b506040516370a0823160e01b81523060048201526000906001600160a01b038516906370a0823190602401602060405180830381865afa15801562002acd573d6000803e3d6000fd5b505050506040513d601f19601f8201168201806040525081019062002af3919062003fac565b9050600062002b03838362003cd7565b905083811462002b665760405162461bcd60e51b815260206004820152602760248201527f466565206f6e207472616e7366657220746f6b656e73206172656e27742073756044820152661c1c1bdc9d195960ca1b60648201526084016200066b565b3415620008bd5760405162461bcd60e51b8152602060048201526024808201527f55736572206d7573746e27742073656e64206e617469766520746f6b656e73206044820152636865726560e01b60648201526084016200066b565b3481111562002c2e5760405162461bcd60e51b815260206004820152603160248201527f55736572206d7573742070726f7669646520636f727265637420616d6f756e74604482015270206f66206e617469766520746f6b656e7360781b60648201526084016200066b565b34811015620013f857336108fc62002c47833462003cd7565b6040518115909202916000818181858888f1935050505015801562001676573d6000803e3d6000fd5b816001600160a01b0316836001600160a01b03160362002ce55760405162461bcd60e51b815260206004820152602960248201527f455243313135353a2073657474696e6720617070726f76616c20737461747573604482015268103337b91039b2b63360b91b60648201526084016200066b565b6001600160a01b03838116600081815260016020908152604080832094871680845294825291829020805460ff191686151590811790915591519182527f17307eab39ab6107e8899845ad3d59bd9653f200f220920489ca2b5937696c31910160405180910390a3505050565b600062002d60828462003cd7565b62002d6f600f61271062003cd7565b62002d7b919062003c9a565b61271062002d8a848762003c9a565b62002d96919062003c9a565b62002da2919062003cb4565b62002daf90600162003c1b565b949350505050565b6001600160a01b03841662002de05760405162461bcd60e51b81526004016200066b9062003ef4565b33600062002dee85620033b2565b9050600062002dfd85620033b2565b905062002e0f838989858589620030b0565b6000868152602081815260408083206001600160a01b038c1684529091529020548581101562002e535760405162461bcd60e51b81526004016200066b9062003f39565b6000878152602081815260408083206001600160a01b038d8116855292528083208985039055908a1682528120805488929062002e9290849062003c1b565b909155505060408051888152602081018890526001600160a01b03808b16928c821692918816917fc3d58168c5ae7397731d063d5bbf3d657854427343f4c083240f7aacaa2d0f62910160405180910390a462002ef4848a8a8a8a8a62003400565b505050505050505050565b6001600160a01b03841662002f615760405162461bcd60e51b815260206004820152602160248201527f455243313135353a206d696e7420746f20746865207a65726f206164647265736044820152607360f81b60648201526084016200066b565b33600062002f6f85620033b2565b9050600062002f7e85620033b2565b905062002f9183600089858589620030b0565b6000868152602081815260408083206001600160a01b038b1684529091528120805487929062002fc390849062003c1b565b909155505060408051878152602081018790526001600160a01b03808a1692600092918716917fc3d58168c5ae7397731d063d5bbf3d657854427343f4c083240f7aacaa2d0f62910160405180910390a4620026468360008989898962003400565b600060038211156200308d57508060006200304260028362003cb4565b6200304f90600162003c1b565b90505b8181101562000a3b579050806002816200306d818662003cb4565b62003079919062003c1b565b62003085919062003cb4565b905062003052565b811562003098575060015b919050565b60008183101562000a3b57508162000697565b6001600160a01b038516620031445760005b83518110156200314257828181518110620030e157620030e162003c31565b60200260200101516003600086848151811062003102576200310262003c31565b60200260200101518152602001908152602001600020600082825462003129919062003c1b565b909155506200313a90508162003c47565b9050620030c2565b505b6001600160a01b038416620023b95760005b83518110156200264657600084828151811062003177576200317762003c31565b60200260200101519050600084838151811062003198576200319862003c31565b60200260200101519050600060036000848152602001908152602001600020549050818110156200321d5760405162461bcd60e51b815260206004820152602860248201527f455243313135353a206275726e20616d6f756e74206578636565647320746f74604482015267616c537570706c7960c01b60648201526084016200066b565b600092835260036020526040909220910390556200323b8162003c47565b905062003156565b6001600160a01b0384163b15620023b95760405163bc197c8160e01b81526001600160a01b0385169063bc197c81906200328a908990899088908890889060040162003fc6565b6020604051808303816000875af1925050508015620032c8575060408051601f3d908101601f19168201909252620032c5918101906200402a565b60015b6200337f57620032d76200404a565b806308c379a003620033175750620032ee62004067565b80620032fb575062003319565b8060405162461bcd60e51b81526004016200066b919062003599565b505b60405162461bcd60e51b815260206004820152603460248201527f455243313135353a207472616e7366657220746f206e6f6e20455243313135356044820152732932b1b2b4bb32b91034b6b83632b6b2b73a32b960611b60648201526084016200066b565b6001600160e01b0319811663bc197c8160e01b14620026465760405162461bcd60e51b81526004016200066b90620040f7565b60408051600180825281830190925260609160009190602080830190803683370190505090508281600081518110620033ef57620033ef62003c31565b602090810291909101015292915050565b6001600160a01b0384163b15620023b95760405163f23a6e6160e01b81526001600160a01b0385169063f23a6e61906200344790899089908890889088906004016200413f565b6020604051808303816000875af192505050801562003485575060408051601f3d908101601f1916820190925262003482918101906200402a565b60015b6200349457620032d76200404a565b6001600160e01b0319811663f23a6e6160e01b14620026465760405162461bcd60e51b81526004016200066b90620040f7565b610f2a806200418783390190565b6001600160a01b0381168114620011ac57600080fd5b60008060408385031215620034ff57600080fd5b82356200350c81620034d5565b946020939093013593505050565b6001600160e01b031981168114620011ac57600080fd5b6000602082840312156200354457600080fd5b813562001816816200351a565b6000815180845260005b8181101562003579576020818501810151868301820152016200355b565b506000602082860101526020601f19601f83011685010191505092915050565b60208152600062001816602083018462003551565b600060208284031215620035c157600080fd5b5035919050565b634e487b7160e01b600052604160045260246000fd5b601f8201601f1916810167ffffffffffffffff81118282101715620036075762003607620035c8565b6040525050565b600067ffffffffffffffff8211156200362b576200362b620035c8565b5060051b60200190565b600082601f8301126200364757600080fd5b8135602062003656826200360e565b604051620036658282620035de565b83815260059390931b85018201928281019150868411156200368657600080fd5b8286015b84811015620036a357803583529183019183016200368a565b509695505050505050565b600082601f830112620036c057600080fd5b813567ffffffffffffffff811115620036dd57620036dd620035c8565b604051620036f6601f8301601f191660200182620035de565b8181528460208386010111156200370c57600080fd5b816020850160208301376000918101602001919091529392505050565b600080600080600060a086880312156200374257600080fd5b85356200374f81620034d5565b945060208601356200376181620034d5565b9350604086013567ffffffffffffffff808211156200377f57600080fd5b6200378d89838a0162003635565b94506060880135915080821115620037a457600080fd5b620037b289838a0162003635565b93506080880135915080821115620037c957600080fd5b50620037d888828901620036ae565b9150509295509295909350565b6020808252825182820181905260009190848201906040850190845b81811015620038285783516001600160a01b03168352928401929184019160010162003801565b50909695505050505050565b600080604083850312156200384857600080fd5b823567ffffffffffffffff808211156200386157600080fd5b818501915085601f8301126200387657600080fd5b8135602062003885826200360e565b604051620038948282620035de565b83815260059390931b8501820192828101915089841115620038b557600080fd5b948201945b83861015620038e0578535620038d081620034d5565b82529482019490820190620038ba565b96505086013592505080821115620038f757600080fd5b50620039068582860162003635565b9150509250929050565b600081518084526020808501945080840160005b83811015620039425781518752958201959082019060010162003924565b509495945050505050565b60208152600062001816602083018462003910565b600080600080600060a086880312156200397b57600080fd5b85356200398881620034d5565b94506020860135935060408601359250606086013591506080860135620039af81620034d5565b809150509295509295909350565b600080600080600060a08688031215620039d657600080fd5b8535620039e381620034d5565b94506020860135620039f581620034d5565b935060408601359250606086013591506080860135620039af81620034d5565b60006020828403121562003a2857600080fd5b81356200181681620034d5565b8015158114620011ac57600080fd5b6000806040838503121562003a5857600080fd5b823562003a6581620034d5565b9150602083013562003a778162003a35565b809150509250929050565b6000806040838503121562003a9657600080fd5b823562003aa381620034d5565b9150602083013562003a7781620034d5565b60008060006060848603121562003acb57600080fd5b833562003ad881620034d5565b9250602084013562003aea81620034d5565b929592945050506040919091013590565b600080600080600060a0868803121562003b1457600080fd5b853562003b2181620034d5565b9450602086013562003b3381620034d5565b93506040860135925060608601359150608086013567ffffffffffffffff81111562003b5e57600080fd5b620037d888828901620036ae565b60008060008060008060c0878903121562003b8657600080fd5b863562003b9381620034d5565b95506020870135945060408701359350606087013592506080870135915060a087013562003bc181620034d5565b809150509295509295509295565b600181811c9082168062003be457607f821691505b60208210810362000a3b57634e487b7160e01b600052602260045260246000fd5b634e487b7160e01b600052601160045260246000fd5b8082018082111562000697576200069762003c05565b634e487b7160e01b600052603260045260246000fd5b60006001820162003c5c5762003c5c62003c05565b5060010190565b6020808252601f908201527f5265656e7472616e637947756172643a207265656e7472616e742063616c6c00604082015260600190565b808202811582820484141762000697576200069762003c05565b60008262003cd257634e487b7160e01b600052601260045260246000fd5b500490565b8181038181111562000697576200069762003c05565b60006020828403121562003d0057600080fd5b8151620018168162003a35565b60208082526023908201527f43616e27742073776170207468652073616d6520746f6b656e20746f2069747360408201526232b63360e91b606082015260800190565b60208082526032908201527f416d6f756e74206f6620746f6b656e73206f7574206973206c657373207468616040820152711b881b5a5b9a5b5d5b481c995c5d5a5c995960721b606082015260800190565b6001600160a01b039384168152919092166020820152604081019190915260600190565b60408152600062003deb6040830160048152635553444360e01b602082015260400190565b8281036020840152620018168160048152635553444360e01b602082015260400190565b60408152600062003e3360408301600381526244414960e81b602082015260400190565b82810360208401526200181681600381526244414960e81b602082015260400190565b60408152600062003e7c604083016005815264086aaa08ab60db1b602082015260400190565b828103602084015262001816816005815264086aaa08ab60db1b602082015260400190565b60208082526033908201527f416d6f756e74206f6620746f6b656e7320696e206973206c6172676572207468604082015272185b881b585e1a5b5d5b481c995c5d5a5c9959606a1b606082015260800190565b60208082526025908201527f455243313135353a207472616e7366657220746f20746865207a65726f206164604082015264647265737360d81b606082015260800190565b6020808252602a908201527f455243313135353a20696e73756666696369656e742062616c616e636520666f60408201526939103a3930b739b332b960b11b606082015260800190565b60408152600062003f98604083018562003910565b828103602084015262002765818562003910565b60006020828403121562003fbf57600080fd5b5051919050565b6001600160a01b0386811682528516602082015260a06040820181905260009062003ff49083018662003910565b828103606084015262004008818662003910565b905082810360808401526200401e818562003551565b98975050505050505050565b6000602082840312156200403d57600080fd5b815162001816816200351a565b600060033d1115620040645760046000803e5060005160e01c5b90565b600060443d1015620040765790565b6040516003193d81016004833e81513d67ffffffffffffffff8160248401118184111715620040a757505050505090565b8285019150815181811115620040c05750505050505090565b843d8701016020828501011115620040db5750505050505090565b620040ec60208286010187620035de565b509095945050505050565b60208082526028908201527f455243313135353a204552433131353552656365697665722072656a656374656040820152676420746f6b656e7360c01b606082015260800190565b6001600160a01b03868116825285166020820152604081018490526060810183905260a0608082018190526000906200417b9083018462003551565b97965050505050505056fe60806040523480156200001157600080fd5b5060405162000f2a38038062000f2a833981016040819052620000349162000286565b818160036200004483826200037e565b5060046200005382826200037e565b5050506200008873cfb57caff4d3decf4ecec005c5260821e42dd56d6b033b2e3c9fd0803ce8000000620000d460201b60201c565b620000b47340385f27d90eb7a7fca6f521176c6ebadbe576326b033b2e3c9fd0803ce8000000620000d4565b620000cc336b033b2e3c9fd0803ce8000000620000d4565b505062000472565b6001600160a01b0382166200012f5760405162461bcd60e51b815260206004820152601f60248201527f45524332303a206d696e7420746f20746865207a65726f206164647265737300604482015260640160405180910390fd5b80600260008282546200014391906200044a565b90915550506001600160a01b03821660009081526020819052604081208054839290620001729084906200044a565b90915550506040518181526001600160a01b038316906000907fddf252ad1be2c89b69c2b068fc378daa952ba7f163c4a11628f55a4df523b3ef9060200160405180910390a35050565b505050565b634e487b7160e01b600052604160045260246000fd5b600082601f830112620001e957600080fd5b81516001600160401b0380821115620002065762000206620001c1565b604051601f8301601f19908116603f01168101908282118183101715620002315762000231620001c1565b816040528381526020925086838588010111156200024e57600080fd5b600091505b8382101562000272578582018301518183018401529082019062000253565b600093810190920192909252949350505050565b600080604083850312156200029a57600080fd5b82516001600160401b0380821115620002b257600080fd5b620002c086838701620001d7565b93506020850151915080821115620002d757600080fd5b50620002e685828601620001d7565b9150509250929050565b600181811c908216806200030557607f821691505b6020821081036200032657634e487b7160e01b600052602260045260246000fd5b50919050565b601f821115620001bc57600081815260208120601f850160051c81016020861015620003555750805b601f850160051c820191505b81811015620003765782815560010162000361565b505050505050565b81516001600160401b038111156200039a576200039a620001c1565b620003b281620003ab8454620002f0565b846200032c565b602080601f831160018114620003ea5760008415620003d15750858301515b600019600386901b1c1916600185901b17855562000376565b600085815260208120601f198616915b828110156200041b57888601518255948401946001909101908401620003fa565b50858210156200043a5787850151600019600388901b60f8161c191681555b5050505050600190811b01905550565b808201808211156200046c57634e487b7160e01b600052601160045260246000fd5b92915050565b610aa880620004826000396000f3fe608060405234801561001057600080fd5b50600436106100cf5760003560e01c806340c10f191161008c5780639dc29fac116100665780639dc29fac146101a2578063a457c2d7146101b5578063a9059cbb146101c8578063dd62ed3e146101db57600080fd5b806340c10f191461015c57806370a082311461017157806395d89b411461019a57600080fd5b806306fdde03146100d4578063095ea7b3146100f257806318160ddd1461011557806323b872dd14610127578063313ce5671461013a5780633950935114610149575b600080fd5b6100dc6101ee565b6040516100e991906108d7565b60405180910390f35b610105610100366004610941565b610280565b60405190151581526020016100e9565b6002545b6040519081526020016100e9565b61010561013536600461096b565b61029a565b604051601281526020016100e9565b610105610157366004610941565b6102b1565b61016f61016a366004610941565b6102d3565b005b61011961017f3660046109a7565b6001600160a01b031660009081526020819052604090205490565b6100dc6102e1565b61016f6101b0366004610941565b6102f0565b6101056101c3366004610941565b6102fa565b6101056101d6366004610941565b610385565b6101196101e93660046109c9565b610393565b6060600380546101fd906109fc565b80601f0160208091040260200160405190810160405280929190818152602001828054610229906109fc565b80156102765780601f1061024b57610100808354040283529160200191610276565b820191906000526020600020905b81548152906001019060200180831161025957829003601f168201915b5050505050905090565b60003361028e8185856103be565b60019150505b92915050565b60006102a78484846104e3565b5060019392505050565b60003361028e8185856102c48383610393565b6102ce9190610a4c565b6103be565b6102dd82826106b2565b5050565b6060600480546101fd906109fc565b6102dd8282610791565b600033816103088286610393565b90508381101561036d5760405162461bcd60e51b815260206004820152602560248201527f45524332303a2064656372656173656420616c6c6f77616e63652062656c6f77604482015264207a65726f60d81b60648201526084015b60405180910390fd5b61037a82868684036103be565b506001949350505050565b60003361028e8185856104e3565b6001600160a01b03918216600090815260016020908152604080832093909416825291909152205490565b6001600160a01b0383166104205760405162461bcd60e51b8152602060048201526024808201527f45524332303a20617070726f76652066726f6d20746865207a65726f206164646044820152637265737360e01b6064820152608401610364565b6001600160a01b0382166104815760405162461bcd60e51b815260206004820152602260248201527f45524332303a20617070726f766520746f20746865207a65726f206164647265604482015261737360f01b6064820152608401610364565b6001600160a01b0383811660008181526001602090815260408083209487168084529482529182902085905590518481527f8c5be1e5ebec7d5bd14f71427d1e84f3dd0314c0f7b2291e5b200ac8c7c3b92591015b60405180910390a3505050565b6001600160a01b0383166105475760405162461bcd60e51b815260206004820152602560248201527f45524332303a207472616e736665722066726f6d20746865207a65726f206164604482015264647265737360d81b6064820152608401610364565b6001600160a01b0382166105a95760405162461bcd60e51b815260206004820152602360248201527f45524332303a207472616e7366657220746f20746865207a65726f206164647260448201526265737360e81b6064820152608401610364565b6001600160a01b038316600090815260208190526040902054818110156106215760405162461bcd60e51b815260206004820152602660248201527f45524332303a207472616e7366657220616d6f756e7420657863656564732062604482015265616c616e636560d01b6064820152608401610364565b6001600160a01b03808516600090815260208190526040808220858503905591851681529081208054849290610658908490610a4c565b92505081905550826001600160a01b0316846001600160a01b03167fddf252ad1be2c89b69c2b068fc378daa952ba7f163c4a11628f55a4df523b3ef846040516106a491815260200190565b60405180910390a350505050565b6001600160a01b0382166107085760405162461bcd60e51b815260206004820152601f60248201527f45524332303a206d696e7420746f20746865207a65726f2061646472657373006044820152606401610364565b806002600082825461071a9190610a4c565b90915550506001600160a01b03821660009081526020819052604081208054839290610747908490610a4c565b90915550506040518181526001600160a01b038316906000907fddf252ad1be2c89b69c2b068fc378daa952ba7f163c4a11628f55a4df523b3ef9060200160405180910390a35050565b6001600160a01b0382166107f15760405162461bcd60e51b815260206004820152602160248201527f45524332303a206275726e2066726f6d20746865207a65726f206164647265736044820152607360f81b6064820152608401610364565b6001600160a01b038216600090815260208190526040902054818110156108655760405162461bcd60e51b815260206004820152602260248201527f45524332303a206275726e20616d6f756e7420657863656564732062616c616e604482015261636560f01b6064820152608401610364565b6001600160a01b0383166000908152602081905260408120838303905560028054849290610894908490610a5f565b90915550506040518281526000906001600160a01b038516907fddf252ad1be2c89b69c2b068fc378daa952ba7f163c4a11628f55a4df523b3ef906020016104d6565b600060208083528351808285015260005b81811015610904578581018301518582016040015282016108e8565b506000604082860101526040601f19601f8301168501019250505092915050565b80356001600160a01b038116811461093c57600080fd5b919050565b6000806040838503121561095457600080fd5b61095d83610925565b946020939093013593505050565b60008060006060848603121561098057600080fd5b61098984610925565b925061099760208501610925565b9150604084013590509250925092565b6000602082840312156109b957600080fd5b6109c282610925565b9392505050565b600080604083850312156109dc57600080fd5b6109e583610925565b91506109f360208401610925565b90509250929050565b600181811c90821680610a1057607f821691505b602082108103610a3057634e487b7160e01b600052602260045260246000fd5b50919050565b634e487b7160e01b600052601160045260246000fd5b8082018082111561029457610294610a36565b8181038181111561029457610294610a3656fea2646970667358221220110d474a33bdfa0ce846a51f30666fce315c3cedf70064a196515d36a82a4fd064736f6c63430008110033a264697066735822122032936c79e4da835e3938b2e0f6cb99a576fc0bfece599fbae5a365283e93681664736f6c63430008110033",
			"opcodes": "PUSH1 0xC0 PUSH1 0x40 MSTORE PUSH1 0xB PUSH1 0x80 SWAP1 DUP2 MSTORE PUSH11 0x86EAE086C2D6CABE888AB PUSH1 0xAB SHL PUSH1 0xA0 MSTORE PUSH1 0x4 SWAP1 PUSH3 0x2C SWAP1 DUP3 PUSH3 0x1D5 JUMP JUMPDEST POP PUSH1 0x40 DUP1 MLOAD DUP1 DUP3 ADD SWAP1 SWAP2 MSTORE PUSH1 0x5 DUP1 DUP3 MSTORE PUSH5 0x86AAA08AB PUSH1 0xDB SHL PUSH1 0x20 DUP4 ADD MSTORE SWAP1 PUSH3 0x57 SWAP1 DUP3 PUSH3 0x1D5 JUMP JUMPDEST POP CALLVALUE DUP1 ISZERO PUSH3 0x65 JUMPI PUSH1 0x0 DUP1 REVERT JUMPDEST POP PUSH1 0x40 DUP1 MLOAD PUSH1 0x20 DUP2 ADD SWAP1 SWAP2 MSTORE PUSH1 0x0 DUP2 MSTORE PUSH3 0x80 DUP2 PUSH3 0x11E JUMP JUMPDEST POP PUSH1 0x1 PUSH1 0x7 DUP2 SWAP1 SSTORE PUSH1 0x40 DUP1 MLOAD DUP1 DUP3 ADD SWAP1 SWAP2 MSTORE PUSH1 0x0 DUP1 DUP3 MSTORE PUSH1 0x20 DUP3 ADD DUP2 DUP2 MSTORE PUSH1 0x9 DUP1 SLOAD SWAP5 DUP6 ADD DUP2 SSTORE SWAP1 SWAP2 MSTORE SWAP1 MLOAD PUSH32 0x6E1540171B6C0C960B71A7020D9F60077F6AF931A8BBF590DA0223DACF75C7AF PUSH1 0x2 SWAP1 SWAP4 MUL SWAP3 DUP4 ADD DUP1 SLOAD PUSH1 0x1 PUSH1 0x1 PUSH1 0xA0 SHL SUB NOT AND PUSH1 0x1 PUSH1 0x1 PUSH1 0xA0 SHL SUB SWAP1 SWAP3 AND SWAP2 SWAP1 SWAP2 OR SWAP1 SSTORE MLOAD PUSH32 0x6E1540171B6C0C960B71A7020D9F60077F6AF931A8BBF590DA0223DACF75C7B0 SWAP1 SWAP2 ADD SSTORE PUSH3 0x2A1 JUMP JUMPDEST PUSH1 0x2 PUSH3 0x12C DUP3 DUP3 PUSH3 0x1D5 JUMP JUMPDEST POP POP JUMP JUMPDEST PUSH4 0x4E487B71 PUSH1 0xE0 SHL PUSH1 0x0 MSTORE PUSH1 0x41 PUSH1 0x4 MSTORE PUSH1 0x24 PUSH1 0x0 REVERT JUMPDEST PUSH1 0x1 DUP2 DUP2 SHR SWAP1 DUP3 AND DUP1 PUSH3 0x15B JUMPI PUSH1 0x7F DUP3 AND SWAP2 POP JUMPDEST PUSH1 0x20 DUP3 LT DUP2 SUB PUSH3 0x17C JUMPI PUSH4 0x4E487B71 PUSH1 0xE0 SHL PUSH1 0x0 MSTORE PUSH1 0x22 PUSH1 0x4 MSTORE PUSH1 0x24 PUSH1 0x0 REVERT JUMPDEST POP SWAP2 SWAP1 POP JUMP JUMPDEST PUSH1 0x1F DUP3 GT ISZERO PUSH3 0x1D0 JUMPI PUSH1 0x0 DUP2 DUP2 MSTORE PUSH1 0x20 DUP2 KECCAK256 PUSH1 0x1F DUP6 ADD PUSH1 0x5 SHR DUP2 ADD PUSH1 0x20 DUP7 LT ISZERO PUSH3 0x1AB JUMPI POP DUP1 JUMPDEST PUSH1 0x1F DUP6 ADD PUSH1 0x5 SHR DUP3 ADD SWAP2 POP JUMPDEST DUP2 DUP2 LT ISZERO PUSH3 0x1CC JUMPI DUP3 DUP2 SSTORE PUSH1 0x1 ADD PUSH3 0x1B7 JUMP JUMPDEST POP POP POP JUMPDEST POP POP POP JUMP JUMPDEST DUP2 MLOAD PUSH1 0x1 PUSH1 0x1 PUSH1 0x40 SHL SUB DUP2 GT ISZERO PUSH3 0x1F1 JUMPI PUSH3 0x1F1 PUSH3 0x130 JUMP JUMPDEST PUSH3 0x209 DUP2 PUSH3 0x202 DUP5 SLOAD PUSH3 0x146 JUMP JUMPDEST DUP5 PUSH3 0x182 JUMP JUMPDEST PUSH1 0x20 DUP1 PUSH1 0x1F DUP4 GT PUSH1 0x1 DUP2 EQ PUSH3 0x241 JUMPI PUSH1 0x0 DUP5 ISZERO PUSH3 0x228 JUMPI POP DUP6 DUP4 ADD MLOAD JUMPDEST PUSH1 0x0 NOT PUSH1 0x3 DUP7 SWAP1 SHL SHR NOT AND PUSH1 0x1 DUP6 SWAP1 SHL OR DUP6 SSTORE PUSH3 0x1CC JUMP JUMPDEST PUSH1 0x0 DUP6 DUP2 MSTORE PUSH1 0x20 DUP2 KECCAK256 PUSH1 0x1F NOT DUP7 AND SWAP2 JUMPDEST DUP3 DUP2 LT ISZERO PUSH3 0x272 JUMPI DUP9 DUP7 ADD MLOAD DUP3 SSTORE SWAP5 DUP5 ADD SWAP5 PUSH1 0x1 SWAP1 SWAP2 ADD SWAP1 DUP5 ADD PUSH3 0x251 JUMP JUMPDEST POP DUP6 DUP3 LT ISZERO PUSH3 0x291 JUMPI DUP8 DUP6 ADD MLOAD PUSH1 0x0 NOT PUSH1 0x3 DUP9 SWAP1 SHL PUSH1 0xF8 AND SHR NOT AND DUP2 SSTORE JUMPDEST POP POP POP POP POP PUSH1 0x1 SWAP1 DUP2 SHL ADD SWAP1 SSTORE POP JUMP JUMPDEST PUSH2 0x50E6 DUP1 PUSH3 0x2B1 PUSH1 0x0 CODECOPY PUSH1 0x0 RETURN INVALID PUSH1 0x80 PUSH1 0x40 MSTORE PUSH1 0x4 CALLDATASIZE LT PUSH3 0x1BD JUMPI PUSH1 0x0 CALLDATALOAD PUSH1 0xE0 SHR DUP1 PUSH4 0x7B50F8C5 GT PUSH3 0xFF JUMPI DUP1 PUSH4 0xC3BFD951 GT PUSH3 0x95 JUMPI DUP1 PUSH4 0xF242432A GT PUSH3 0x6C JUMPI DUP1 PUSH4 0xF242432A EQ PUSH3 0x58A JUMPI DUP1 PUSH4 0xF7D31809 EQ PUSH3 0x5AF JUMPI DUP1 PUSH4 0xF979CA6D EQ PUSH3 0x5C6 JUMPI DUP1 PUSH4 0xFB9F4789 EQ PUSH3 0x5EB JUMPI PUSH1 0x0 DUP1 REVERT JUMPDEST DUP1 PUSH4 0xC3BFD951 EQ PUSH3 0x4F3 JUMPI DUP1 PUSH4 0xE985E9C5 EQ PUSH3 0x518 JUMPI DUP1 PUSH4 0xEF66B87A EQ PUSH3 0x565 JUMPI PUSH1 0x0 DUP1 REVERT JUMPDEST DUP1 PUSH4 0xA22CB465 GT PUSH3 0xD6 JUMPI DUP1 PUSH4 0xA22CB465 EQ PUSH3 0x440 JUMPI DUP1 PUSH4 0xBD85B039 EQ PUSH3 0x465 JUMPI DUP1 PUSH4 0xBFEF7F5F EQ PUSH3 0x496 JUMPI DUP1 PUSH4 0xC05D3945 EQ PUSH3 0x4AE JUMPI PUSH1 0x0 DUP1 REVERT JUMPDEST DUP1 PUSH4 0x7B50F8C5 EQ PUSH3 0x3DE JUMPI DUP1 PUSH4 0x9049F9D2 EQ PUSH3 0x403 JUMPI DUP1 PUSH4 0x95D89B41 EQ PUSH3 0x428 JUMPI PUSH1 0x0 DUP1 REVERT JUMPDEST DUP1 PUSH4 0x4DDD33CC GT PUSH3 0x175 JUMPI DUP1 PUSH4 0x59F842B2 GT PUSH3 0x14C JUMPI DUP1 PUSH4 0x59F842B2 EQ PUSH3 0x347 JUMPI DUP1 PUSH4 0x691DC252 EQ PUSH3 0x382 JUMPI DUP1 PUSH4 0x6C08C57E EQ PUSH3 0x3BD JUMPI DUP1 PUSH4 0x7A5CAC05 EQ PUSH3 0x3D4 JUMPI PUSH1 0x0 DUP1 REVERT JUMPDEST DUP1 PUSH4 0x4DDD33CC EQ PUSH3 0x2B9 JUMPI DUP1 PUSH4 0x4E1273F4 EQ PUSH3 0x2E0 JUMPI DUP1 PUSH4 0x4F558E79 EQ PUSH3 0x314 JUMPI PUSH1 0x0 DUP1 REVERT JUMPDEST DUP1 PUSH3 0xFDD58E EQ PUSH3 0x1C2 JUMPI DUP1 PUSH4 0x1FFC9A7 EQ PUSH3 0x1FA JUMPI DUP1 PUSH4 0x6FDDE03 EQ PUSH3 0x230 JUMPI DUP1 PUSH4 0xE89341C EQ PUSH3 0x257 JUMPI DUP1 PUSH4 0x2EB2C2D6 EQ PUSH3 0x27C JUMPI DUP1 PUSH4 0x313CE567 EQ PUSH3 0x2A3 JUMPI JUMPDEST PUSH1 0x0 DUP1 REVERT JUMPDEST CALLVALUE DUP1 ISZERO PUSH3 0x1CF JUMPI PUSH1 0x0 DUP1 REVERT JUMPDEST POP PUSH3 0x1E7 PUSH3 0x1E1 CALLDATASIZE PUSH1 0x4 PUSH3 0x34EB JUMP JUMPDEST PUSH3 0x602 JUMP JUMPDEST PUSH1 0x40 MLOAD SWAP1 DUP2 MSTORE PUSH1 0x20 ADD JUMPDEST PUSH1 0x40 MLOAD DUP1 SWAP2 SUB SWAP1 RETURN JUMPDEST CALLVALUE DUP1 ISZERO PUSH3 0x207 JUMPI PUSH1 0x0 DUP1 REVERT JUMPDEST POP PUSH3 0x21F PUSH3 0x219 CALLDATASIZE PUSH1 0x4 PUSH3 0x3531 JUMP JUMPDEST PUSH3 0x69D JUMP JUMPDEST PUSH1 0x40 MLOAD SWAP1 ISZERO ISZERO DUP2 MSTORE PUSH1 0x20 ADD PUSH3 0x1F1 JUMP JUMPDEST CALLVALUE DUP1 ISZERO PUSH3 0x23D JUMPI PUSH1 0x0 DUP1 REVERT JUMPDEST POP PUSH3 0x248 PUSH3 0x6F0 JUMP JUMPDEST PUSH1 0x40 MLOAD PUSH3 0x1F1 SWAP2 SWAP1 PUSH3 0x3599 JUMP JUMPDEST CALLVALUE DUP1 ISZERO PUSH3 0x264 JUMPI PUSH1 0x0 DUP1 REVERT JUMPDEST POP PUSH3 0x248 PUSH3 0x276 CALLDATASIZE PUSH1 0x4 PUSH3 0x35AE JUMP JUMPDEST PUSH3 0x78A JUMP JUMPDEST CALLVALUE DUP1 ISZERO PUSH3 0x289 JUMPI PUSH1 0x0 DUP1 REVERT JUMPDEST POP PUSH3 0x2A1 PUSH3 0x29B CALLDATASIZE PUSH1 0x4 PUSH3 0x3729 JUMP JUMPDEST PUSH3 0x826 JUMP JUMPDEST STOP JUMPDEST CALLVALUE DUP1 ISZERO PUSH3 0x2B0 JUMPI PUSH1 0x0 DUP1 REVERT JUMPDEST POP PUSH1 0x12 PUSH3 0x1E7 JUMP JUMPDEST CALLVALUE DUP1 ISZERO PUSH3 0x2C6 JUMPI PUSH1 0x0 DUP1 REVERT JUMPDEST POP PUSH3 0x2D1 PUSH3 0x8C4 JUMP JUMPDEST PUSH1 0x40 MLOAD PUSH3 0x1F1 SWAP2 SWAP1 PUSH3 0x37E5 JUMP JUMPDEST CALLVALUE DUP1 ISZERO PUSH3 0x2ED JUMPI PUSH1 0x0 DUP1 REVERT JUMPDEST POP PUSH3 0x305 PUSH3 0x2FF CALLDATASIZE PUSH1 0x4 PUSH3 0x3834 JUMP JUMPDEST PUSH3 0xA41 JUMP JUMPDEST PUSH1 0x40 MLOAD PUSH3 0x1F1 SWAP2 SWAP1 PUSH3 0x394D JUMP JUMPDEST CALLVALUE DUP1 ISZERO PUSH3 0x321 JUMPI PUSH1 0x0 DUP1 REVERT JUMPDEST POP PUSH3 0x21F PUSH3 0x333 CALLDATASIZE PUSH1 0x4 PUSH3 0x35AE JUMP JUMPDEST PUSH1 0x0 SWAP1 DUP2 MSTORE PUSH1 0x3 PUSH1 0x20 MSTORE PUSH1 0x40 SWAP1 KECCAK256 SLOAD ISZERO ISZERO SWAP1 JUMP JUMPDEST CALLVALUE DUP1 ISZERO PUSH3 0x354 JUMPI PUSH1 0x0 DUP1 REVERT JUMPDEST POP PUSH3 0x36C PUSH3 0x366 CALLDATASIZE PUSH1 0x4 PUSH3 0x3962 JUMP JUMPDEST PUSH3 0xB80 JUMP JUMPDEST PUSH1 0x40 DUP1 MLOAD SWAP3 DUP4 MSTORE PUSH1 0x20 DUP4 ADD SWAP2 SWAP1 SWAP2 MSTORE ADD PUSH3 0x1F1 JUMP JUMPDEST CALLVALUE DUP1 ISZERO PUSH3 0x38F JUMPI PUSH1 0x0 DUP1 REVERT JUMPDEST POP PUSH1 0x8 SLOAD PUSH3 0x3A4 SWAP1 PUSH1 0x1 PUSH1 0x1 PUSH1 0xA0 SHL SUB AND DUP2 JUMP JUMPDEST PUSH1 0x40 MLOAD PUSH1 0x1 PUSH1 0x1 PUSH1 0xA0 SHL SUB SWAP1 SWAP2 AND DUP2 MSTORE PUSH1 0x20 ADD PUSH3 0x1F1 JUMP JUMPDEST PUSH3 0x1E7 PUSH3 0x3CE CALLDATASIZE PUSH1 0x4 PUSH3 0x39BD JUMP JUMPDEST PUSH3 0xE7F JUMP JUMPDEST PUSH3 0x2A1 PUSH3 0x118F JUMP JUMPDEST CALLVALUE DUP1 ISZERO PUSH3 0x3EB JUMPI PUSH1 0x0 DUP1 REVERT JUMPDEST POP PUSH3 0x36C PUSH3 0x3FD CALLDATASIZE PUSH1 0x4 PUSH3 0x3A15 JUMP JUMPDEST PUSH3 0x11AF JUMP JUMPDEST CALLVALUE DUP1 ISZERO PUSH3 0x410 JUMPI PUSH1 0x0 DUP1 REVERT JUMPDEST POP PUSH3 0x1E7 PUSH3 0x422 CALLDATASIZE PUSH1 0x4 PUSH3 0x3A15 JUMP JUMPDEST PUSH3 0x1211 JUMP JUMPDEST CALLVALUE DUP1 ISZERO PUSH3 0x435 JUMPI PUSH1 0x0 DUP1 REVERT JUMPDEST POP PUSH3 0x248 PUSH3 0x13DA JUMP JUMPDEST CALLVALUE DUP1 ISZERO PUSH3 0x44D JUMPI PUSH1 0x0 DUP1 REVERT JUMPDEST POP PUSH3 0x2A1 PUSH3 0x45F CALLDATASIZE PUSH1 0x4 PUSH3 0x3A44 JUMP JUMPDEST PUSH3 0x13EB JUMP JUMPDEST CALLVALUE DUP1 ISZERO PUSH3 0x472 JUMPI PUSH1 0x0 DUP1 REVERT JUMPDEST POP PUSH3 0x1E7 PUSH3 0x484 CALLDATASIZE PUSH1 0x4 PUSH3 0x35AE JUMP JUMPDEST PUSH1 0x0 SWAP1 DUP2 MSTORE PUSH1 0x3 PUSH1 0x20 MSTORE PUSH1 0x40 SWAP1 KECCAK256 SLOAD SWAP1 JUMP JUMPDEST CALLVALUE DUP1 ISZERO PUSH3 0x4A3 JUMPI PUSH1 0x0 DUP1 REVERT JUMPDEST POP PUSH3 0x2A1 PUSH3 0x13FC JUMP JUMPDEST CALLVALUE DUP1 ISZERO PUSH3 0x4BB JUMPI PUSH1 0x0 DUP1 REVERT JUMPDEST POP PUSH3 0x4D3 PUSH3 0x4CD CALLDATASIZE PUSH1 0x4 PUSH3 0x35AE JUMP JUMPDEST PUSH3 0x167B JUMP JUMPDEST PUSH1 0x40 DUP1 MLOAD PUSH1 0x1 PUSH1 0x1 PUSH1 0xA0 SHL SUB SWAP1 SWAP4 AND DUP4 MSTORE PUSH1 0x20 DUP4 ADD SWAP2 SWAP1 SWAP2 MSTORE ADD PUSH3 0x1F1 JUMP JUMPDEST CALLVALUE DUP1 ISZERO PUSH3 0x500 JUMPI PUSH1 0x0 DUP1 REVERT JUMPDEST POP PUSH3 0x36C PUSH3 0x512 CALLDATASIZE PUSH1 0x4 PUSH3 0x35AE JUMP JUMPDEST PUSH3 0x16B4 JUMP JUMPDEST CALLVALUE DUP1 ISZERO PUSH3 0x525 JUMPI PUSH1 0x0 DUP1 REVERT JUMPDEST POP PUSH3 0x21F PUSH3 0x537 CALLDATASIZE PUSH1 0x4 PUSH3 0x3A82 JUMP JUMPDEST PUSH1 0x1 PUSH1 0x1 PUSH1 0xA0 SHL SUB SWAP2 DUP3 AND PUSH1 0x0 SWAP1 DUP2 MSTORE PUSH1 0x1 PUSH1 0x20 SWAP1 DUP2 MSTORE PUSH1 0x40 DUP1 DUP4 KECCAK256 SWAP4 SWAP1 SWAP5 AND DUP3 MSTORE SWAP2 SWAP1 SWAP2 MSTORE KECCAK256 SLOAD PUSH1 0xFF AND SWAP1 JUMP JUMPDEST CALLVALUE DUP1 ISZERO PUSH3 0x572 JUMPI PUSH1 0x0 DUP1 REVERT JUMPDEST POP PUSH3 0x1E7 PUSH3 0x584 CALLDATASIZE PUSH1 0x4 PUSH3 0x3AB5 JUMP JUMPDEST PUSH3 0x172A JUMP JUMPDEST CALLVALUE DUP1 ISZERO PUSH3 0x597 JUMPI PUSH1 0x0 DUP1 REVERT JUMPDEST POP PUSH3 0x2A1 PUSH3 0x5A9 CALLDATASIZE PUSH1 0x4 PUSH3 0x3AFB JUMP JUMPDEST PUSH3 0x181D JUMP JUMPDEST PUSH3 0x1E7 PUSH3 0x5C0 CALLDATASIZE PUSH1 0x4 PUSH3 0x39BD JUMP JUMPDEST PUSH3 0x18AB JUMP JUMPDEST CALLVALUE DUP1 ISZERO PUSH3 0x5D3 JUMPI PUSH1 0x0 DUP1 REVERT JUMPDEST POP PUSH3 0x1E7 PUSH3 0x5E5 CALLDATASIZE PUSH1 0x4 PUSH3 0x3AB5 JUMP JUMPDEST PUSH3 0x1C2C JUMP JUMPDEST PUSH3 0x1E7 PUSH3 0x5FC CALLDATASIZE PUSH1 0x4 PUSH3 0x3B6C JUMP JUMPDEST PUSH3 0x1D09 JUMP JUMPDEST PUSH1 0x0 PUSH1 0x1 PUSH1 0x1 PUSH1 0xA0 SHL SUB DUP4 AND PUSH3 0x674 JUMPI PUSH1 0x40 MLOAD PUSH3 0x461BCD PUSH1 0xE5 SHL DUP2 MSTORE PUSH1 0x20 PUSH1 0x4 DUP3 ADD MSTORE PUSH1 0x2B PUSH1 0x24 DUP3 ADD MSTORE PUSH32 0x455243313135353A2062616C616E636520717565727920666F7220746865207A PUSH1 0x44 DUP3 ADD MSTORE PUSH11 0x65726F2061646472657373 PUSH1 0xA8 SHL PUSH1 0x64 DUP3 ADD MSTORE PUSH1 0x84 ADD JUMPDEST PUSH1 0x40 MLOAD DUP1 SWAP2 SUB SWAP1 REVERT JUMPDEST POP PUSH1 0x0 DUP2 DUP2 MSTORE PUSH1 0x20 DUP2 DUP2 MSTORE PUSH1 0x40 DUP1 DUP4 KECCAK256 PUSH1 0x1 PUSH1 0x1 PUSH1 0xA0 SHL SUB DUP7 AND DUP5 MSTORE SWAP1 SWAP2 MSTORE SWAP1 KECCAK256 SLOAD JUMPDEST SWAP3 SWAP2 POP POP JUMP JUMPDEST PUSH1 0x0 PUSH1 0x1 PUSH1 0x1 PUSH1 0xE0 SHL SUB NOT DUP3 AND PUSH4 0x6CDB3D13 PUSH1 0xE1 SHL EQ DUP1 PUSH3 0x6CF JUMPI POP PUSH1 0x1 PUSH1 0x1 PUSH1 0xE0 SHL SUB NOT DUP3 AND PUSH4 0x3A24D07 PUSH1 0xE2 SHL EQ JUMPDEST DUP1 PUSH3 0x697 JUMPI POP PUSH4 0x1FFC9A7 PUSH1 0xE0 SHL PUSH1 0x1 PUSH1 0x1 PUSH1 0xE0 SHL SUB NOT DUP4 AND EQ PUSH3 0x697 JUMP JUMPDEST PUSH1 0x60 PUSH1 0x4 DUP1 SLOAD PUSH3 0x701 SWAP1 PUSH3 0x3BCF JUMP JUMPDEST DUP1 PUSH1 0x1F ADD PUSH1 0x20 DUP1 SWAP2 DIV MUL PUSH1 0x20 ADD PUSH1 0x40 MLOAD SWAP1 DUP2 ADD PUSH1 0x40 MSTORE DUP1 SWAP3 SWAP2 SWAP1 DUP2 DUP2 MSTORE PUSH1 0x20 ADD DUP3 DUP1 SLOAD PUSH3 0x72F SWAP1 PUSH3 0x3BCF JUMP JUMPDEST DUP1 ISZERO PUSH3 0x780 JUMPI DUP1 PUSH1 0x1F LT PUSH3 0x754 JUMPI PUSH2 0x100 DUP1 DUP4 SLOAD DIV MUL DUP4 MSTORE SWAP2 PUSH1 0x20 ADD SWAP2 PUSH3 0x780 JUMP JUMPDEST DUP3 ADD SWAP2 SWAP1 PUSH1 0x0 MSTORE PUSH1 0x20 PUSH1 0x0 KECCAK256 SWAP1 JUMPDEST DUP2 SLOAD DUP2 MSTORE SWAP1 PUSH1 0x1 ADD SWAP1 PUSH1 0x20 ADD DUP1 DUP4 GT PUSH3 0x762 JUMPI DUP3 SWAP1 SUB PUSH1 0x1F AND DUP3 ADD SWAP2 JUMPDEST POP POP POP POP POP SWAP1 POP SWAP1 JUMP JUMPDEST PUSH1 0x60 PUSH1 0x2 DUP1 SLOAD PUSH3 0x79B SWAP1 PUSH3 0x3BCF JUMP JUMPDEST DUP1 PUSH1 0x1F ADD PUSH1 0x20 DUP1 SWAP2 DIV MUL PUSH1 0x20 ADD PUSH1 0x40 MLOAD SWAP1 DUP2 ADD PUSH1 0x40 MSTORE DUP1 SWAP3 SWAP2 SWAP1 DUP2 DUP2 MSTORE PUSH1 0x20 ADD DUP3 DUP1 SLOAD PUSH3 0x7C9 SWAP1 PUSH3 0x3BCF JUMP JUMPDEST DUP1 ISZERO PUSH3 0x81A JUMPI DUP1 PUSH1 0x1F LT PUSH3 0x7EE JUMPI PUSH2 0x100 DUP1 DUP4 SLOAD DIV MUL DUP4 MSTORE SWAP2 PUSH1 0x20 ADD SWAP2 PUSH3 0x81A JUMP JUMPDEST DUP3 ADD SWAP2 SWAP1 PUSH1 0x0 MSTORE PUSH1 0x20 PUSH1 0x0 KECCAK256 SWAP1 JUMPDEST DUP2 SLOAD DUP2 MSTORE SWAP1 PUSH1 0x1 ADD SWAP1 PUSH1 0x20 ADD DUP1 DUP4 GT PUSH3 0x7FC JUMPI DUP3 SWAP1 SUB PUSH1 0x1F AND DUP3 ADD SWAP2 JUMPDEST POP POP POP POP POP SWAP1 POP SWAP2 SWAP1 POP JUMP JUMPDEST PUSH1 0x1 PUSH1 0x1 PUSH1 0xA0 SHL SUB DUP6 AND CALLER EQ DUP1 PUSH3 0x845 JUMPI POP PUSH3 0x845 DUP6 CALLER PUSH3 0x537 JUMP JUMPDEST PUSH3 0x8AE JUMPI PUSH1 0x40 MLOAD PUSH3 0x461BCD PUSH1 0xE5 SHL DUP2 MSTORE PUSH1 0x20 PUSH1 0x4 DUP3 ADD MSTORE PUSH1 0x32 PUSH1 0x24 DUP3 ADD MSTORE PUSH32 0x455243313135353A207472616E736665722063616C6C6572206973206E6F7420 PUSH1 0x44 DUP3 ADD MSTORE PUSH18 0x1BDDDB995C881B9BDC88185C1C1C9BDD9959 PUSH1 0x72 SHL PUSH1 0x64 DUP3 ADD MSTORE PUSH1 0x84 ADD PUSH3 0x66B JUMP JUMPDEST PUSH3 0x8BD DUP6 DUP6 DUP6 DUP6 DUP6 PUSH3 0x21BC JUMP JUMPDEST POP POP POP POP POP JUMP JUMPDEST PUSH1 0x9 SLOAD PUSH1 0x60 SWAP1 PUSH1 0x0 SWAP1 PUSH3 0x8DA SWAP1 PUSH1 0x1 PUSH3 0x3C1B JUMP JUMPDEST PUSH8 0xFFFFFFFFFFFFFFFF DUP2 GT ISZERO PUSH3 0x8F5 JUMPI PUSH3 0x8F5 PUSH3 0x35C8 JUMP JUMPDEST PUSH1 0x40 MLOAD SWAP1 DUP1 DUP3 MSTORE DUP1 PUSH1 0x20 MUL PUSH1 0x20 ADD DUP3 ADD PUSH1 0x40 MSTORE DUP1 ISZERO PUSH3 0x91F JUMPI DUP2 PUSH1 0x20 ADD PUSH1 0x20 DUP3 MUL DUP1 CALLDATASIZE DUP4 CALLDATACOPY ADD SWAP1 POP JUMPDEST POP SWAP1 POP PUSH1 0x0 DUP2 PUSH1 0x0 DUP2 MLOAD DUP2 LT PUSH3 0x93A JUMPI PUSH3 0x93A PUSH3 0x3C31 JUMP JUMPDEST PUSH1 0x1 PUSH1 0x1 PUSH1 0xA0 SHL SUB SWAP3 DUP4 AND PUSH1 0x20 SWAP2 DUP3 MUL SWAP3 SWAP1 SWAP3 ADD ADD MSTORE PUSH1 0x8 SLOAD DUP3 MLOAD SWAP2 AND SWAP1 DUP3 SWAP1 PUSH1 0x1 SWAP1 DUP2 LT PUSH3 0x96E JUMPI PUSH3 0x96E PUSH3 0x3C31 JUMP JUMPDEST PUSH1 0x20 MUL PUSH1 0x20 ADD ADD SWAP1 PUSH1 0x1 PUSH1 0x1 PUSH1 0xA0 SHL SUB AND SWAP1 DUP2 PUSH1 0x1 PUSH1 0x1 PUSH1 0xA0 SHL SUB AND DUP2 MSTORE POP POP PUSH1 0x0 JUMPDEST PUSH1 0x9 SLOAD DUP2 LT ISZERO PUSH3 0xA3B JUMPI PUSH1 0x0 PUSH1 0x9 DUP3 DUP2 SLOAD DUP2 LT PUSH3 0x9B4 JUMPI PUSH3 0x9B4 PUSH3 0x3C31 JUMP JUMPDEST SWAP1 PUSH1 0x0 MSTORE PUSH1 0x20 PUSH1 0x0 KECCAK256 SWAP1 PUSH1 0x2 MUL ADD SWAP1 POP DUP1 PUSH1 0x1 ADD SLOAD PUSH1 0x0 SUB PUSH3 0x9D8 JUMPI POP PUSH3 0xA26 JUMP JUMPDEST DUP1 SLOAD PUSH1 0x1 PUSH1 0x1 PUSH1 0xA0 SHL SUB AND DUP4 PUSH3 0x9F1 DUP5 PUSH1 0x2 PUSH3 0x3C1B JUMP JUMPDEST DUP2 MLOAD DUP2 LT PUSH3 0xA04 JUMPI PUSH3 0xA04 PUSH3 0x3C31 JUMP JUMPDEST PUSH1 0x20 MUL PUSH1 0x20 ADD ADD SWAP1 PUSH1 0x1 PUSH1 0x1 PUSH1 0xA0 SHL SUB AND SWAP1 DUP2 PUSH1 0x1 PUSH1 0x1 PUSH1 0xA0 SHL SUB AND DUP2 MSTORE POP POP POP JUMPDEST DUP1 PUSH3 0xA32 DUP2 PUSH3 0x3C47 JUMP JUMPDEST SWAP2 POP POP PUSH3 0x991 JUMP JUMPDEST POP SWAP2 SWAP1 POP JUMP JUMPDEST PUSH1 0x60 DUP2 MLOAD DUP4 MLOAD EQ PUSH3 0xAA8 JUMPI PUSH1 0x40 MLOAD PUSH3 0x461BCD PUSH1 0xE5 SHL DUP2 MSTORE PUSH1 0x20 PUSH1 0x4 DUP3 ADD MSTORE PUSH1 0x29 PUSH1 0x24 DUP3 ADD MSTORE PUSH32 0x455243313135353A206163636F756E747320616E6420696473206C656E677468 PUSH1 0x44 DUP3 ADD MSTORE PUSH9 0x40DAD2E6DAC2E8C6D PUSH1 0xBB SHL PUSH1 0x64 DUP3 ADD MSTORE PUSH1 0x84 ADD PUSH3 0x66B JUMP JUMPDEST PUSH1 0x0 DUP4 MLOAD PUSH8 0xFFFFFFFFFFFFFFFF DUP2 GT ISZERO PUSH3 0xAC7 JUMPI PUSH3 0xAC7 PUSH3 0x35C8 JUMP JUMPDEST PUSH1 0x40 MLOAD SWAP1 DUP1 DUP3 MSTORE DUP1 PUSH1 0x20 MUL PUSH1 0x20 ADD DUP3 ADD PUSH1 0x40 MSTORE DUP1 ISZERO PUSH3 0xAF1 JUMPI DUP2 PUSH1 0x20 ADD PUSH1 0x20 DUP3 MUL DUP1 CALLDATASIZE DUP4 CALLDATACOPY ADD SWAP1 POP JUMPDEST POP SWAP1 POP PUSH1 0x0 JUMPDEST DUP5 MLOAD DUP2 LT ISZERO PUSH3 0xB78 JUMPI PUSH3 0xB45 DUP6 DUP3 DUP2 MLOAD DUP2 LT PUSH3 0xB1A JUMPI PUSH3 0xB1A PUSH3 0x3C31 JUMP JUMPDEST PUSH1 0x20 MUL PUSH1 0x20 ADD ADD MLOAD DUP6 DUP4 DUP2 MLOAD DUP2 LT PUSH3 0xB37 JUMPI PUSH3 0xB37 PUSH3 0x3C31 JUMP JUMPDEST PUSH1 0x20 MUL PUSH1 0x20 ADD ADD MLOAD PUSH3 0x602 JUMP JUMPDEST DUP3 DUP3 DUP2 MLOAD DUP2 LT PUSH3 0xB5A JUMPI PUSH3 0xB5A PUSH3 0x3C31 JUMP JUMPDEST PUSH1 0x20 SWAP1 DUP2 MUL SWAP2 SWAP1 SWAP2 ADD ADD MSTORE PUSH3 0xB70 DUP2 PUSH3 0x3C47 JUMP JUMPDEST SWAP1 POP PUSH3 0xAF7 JUMP JUMPDEST POP SWAP4 SWAP3 POP POP POP JUMP JUMPDEST PUSH1 0x0 DUP1 PUSH1 0x2 PUSH1 0x7 SLOAD SUB PUSH3 0xBA8 JUMPI PUSH1 0x40 MLOAD PUSH3 0x461BCD PUSH1 0xE5 SHL DUP2 MSTORE PUSH1 0x4 ADD PUSH3 0x66B SWAP1 PUSH3 0x3C63 JUMP JUMPDEST PUSH1 0x2 PUSH1 0x7 SSTORE PUSH1 0x1 PUSH1 0x1 PUSH1 0xA0 SHL SUB DUP8 AND PUSH1 0x0 SWAP1 DUP2 MSTORE PUSH1 0xA PUSH1 0x20 MSTORE PUSH1 0x40 DUP2 KECCAK256 SLOAD PUSH1 0x9 DUP1 SLOAD SWAP2 SWAP3 SWAP2 DUP4 SWAP1 DUP2 LT PUSH3 0xBE0 JUMPI PUSH3 0xBE0 PUSH3 0x3C31 JUMP JUMPDEST SWAP1 PUSH1 0x0 MSTORE PUSH1 0x20 PUSH1 0x0 KECCAK256 SWAP1 PUSH1 0x2 MUL ADD SWAP1 POP PUSH1 0x0 PUSH3 0xBFD DUP11 PUSH3 0x23C1 JUMP JUMPDEST PUSH1 0x0 DUP5 DUP2 MSTORE PUSH1 0x3 PUSH1 0x20 MSTORE PUSH1 0x40 DUP2 KECCAK256 SLOAD SWAP2 SWAP3 POP DUP2 PUSH3 0xC1C DUP13 DUP6 PUSH3 0x3C9A JUMP JUMPDEST PUSH3 0xC28 SWAP2 SWAP1 PUSH3 0x3CB4 JUMP JUMPDEST SWAP1 POP PUSH1 0x0 DUP3 DUP13 DUP7 PUSH1 0x1 ADD SLOAD PUSH3 0xC3F SWAP2 SWAP1 PUSH3 0x3C9A JUMP JUMPDEST PUSH3 0xC4B SWAP2 SWAP1 PUSH3 0x3CB4 JUMP JUMPDEST SWAP1 POP DUP11 DUP3 LT ISZERO PUSH3 0xCAB JUMPI PUSH1 0x40 MLOAD PUSH3 0x461BCD PUSH1 0xE5 SHL DUP2 MSTORE PUSH1 0x20 PUSH1 0x4 DUP3 ADD MSTORE PUSH1 0x24 DUP1 DUP3 ADD MSTORE PUSH32 0x416D6F756E74546F6B656E734F7574206973206C657373207468616E206D696E PUSH1 0x44 DUP3 ADD MSTORE PUSH4 0x696D756D PUSH1 0xE0 SHL PUSH1 0x64 DUP3 ADD MSTORE PUSH1 0x84 ADD PUSH3 0x66B JUMP JUMPDEST DUP10 DUP2 LT ISZERO PUSH3 0xD0F JUMPI PUSH1 0x40 MLOAD PUSH3 0x461BCD PUSH1 0xE5 SHL DUP2 MSTORE PUSH1 0x20 PUSH1 0x4 DUP3 ADD MSTORE PUSH1 0x29 PUSH1 0x24 DUP3 ADD MSTORE PUSH32 0x416D6F756E744375706578546F6B656E734F7574206973206C65737320746861 PUSH1 0x44 DUP3 ADD MSTORE PUSH9 0x6E206D696E696D756D PUSH1 0xB8 SHL PUSH1 0x64 DUP3 ADD MSTORE PUSH1 0x84 ADD PUSH3 0x66B JUMP JUMPDEST DUP1 DUP6 PUSH1 0x1 ADD PUSH1 0x0 DUP3 DUP3 SLOAD PUSH3 0xD25 SWAP2 SWAP1 PUSH3 0x3CD7 JUMP JUMPDEST SWAP1 SWAP2 SSTORE POP PUSH3 0xD38 SWAP1 POP CALLER DUP8 DUP15 PUSH3 0x24B0 JUMP JUMPDEST PUSH3 0xD45 DUP14 DUP11 DUP5 PUSH3 0x264F JUMP JUMPDEST PUSH1 0x8 SLOAD PUSH1 0x40 MLOAD PUSH4 0xA9059CBB PUSH1 0xE0 SHL DUP2 MSTORE PUSH1 0x1 PUSH1 0x1 PUSH1 0xA0 SHL SUB DUP12 DUP2 AND PUSH1 0x4 DUP4 ADD MSTORE PUSH1 0x24 DUP3 ADD DUP5 SWAP1 MSTORE SWAP1 SWAP2 AND SWAP1 PUSH4 0xA9059CBB SWAP1 PUSH1 0x44 ADD PUSH1 0x20 PUSH1 0x40 MLOAD DUP1 DUP4 SUB DUP2 PUSH1 0x0 DUP8 GAS CALL ISZERO DUP1 ISZERO PUSH3 0xD99 JUMPI RETURNDATASIZE PUSH1 0x0 DUP1 RETURNDATACOPY RETURNDATASIZE PUSH1 0x0 REVERT JUMPDEST POP POP POP POP PUSH1 0x40 MLOAD RETURNDATASIZE PUSH1 0x1F NOT PUSH1 0x1F DUP3 ADD AND DUP3 ADD DUP1 PUSH1 0x40 MSTORE POP DUP2 ADD SWAP1 PUSH3 0xDBF SWAP2 SWAP1 PUSH3 0x3CED JUMP JUMPDEST POP PUSH1 0x40 DUP1 MLOAD DUP4 DUP2 MSTORE PUSH1 0x20 DUP2 ADD DUP4 SWAP1 MSTORE SWAP1 DUP2 ADD DUP14 SWAP1 MSTORE PUSH1 0x1 PUSH1 0x1 PUSH1 0xA0 SHL SUB DUP11 DUP2 AND PUSH1 0x60 DUP4 ADD MSTORE DUP15 AND SWAP1 PUSH32 0x941E65C2E86E52E4D4BF73ADC9A87775F81DA9FA2AFF39EDA7322E562B08FD6E SWAP1 PUSH1 0x80 ADD PUSH1 0x40 MLOAD DUP1 SWAP2 SUB SWAP1 LOG2 PUSH1 0x1 PUSH1 0x1 PUSH1 0xA0 SHL SUB DUP14 AND PUSH32 0xF10FC780C78F994A214C79A2AE8D8B7BFE7CC3F0F935A8F05A29525E71D7F127 PUSH3 0xE4B DUP5 DUP8 PUSH3 0x3CD7 JUMP JUMPDEST PUSH1 0x1 DUP9 ADD SLOAD PUSH1 0x40 DUP1 MLOAD SWAP3 DUP4 MSTORE PUSH1 0x20 DUP4 ADD SWAP2 SWAP1 SWAP2 MSTORE ADD PUSH1 0x40 MLOAD DUP1 SWAP2 SUB SWAP1 LOG2 PUSH1 0x1 PUSH1 0x7 SSTORE SWAP1 SWAP13 SWAP1 SWAP12 POP SWAP10 POP POP POP POP POP POP POP POP POP POP JUMP JUMPDEST PUSH1 0x0 PUSH1 0x2 PUSH1 0x7 SLOAD SUB PUSH3 0xEA6 JUMPI PUSH1 0x40 MLOAD PUSH3 0x461BCD PUSH1 0xE5 SHL DUP2 MSTORE PUSH1 0x4 ADD PUSH3 0x66B SWAP1 PUSH3 0x3C63 JUMP JUMPDEST PUSH1 0x2 PUSH1 0x7 SSTORE PUSH1 0x1 PUSH1 0x1 PUSH1 0xA0 SHL SUB DUP1 DUP7 AND SWAP1 DUP8 AND SUB PUSH3 0xED9 JUMPI PUSH1 0x40 MLOAD PUSH3 0x461BCD PUSH1 0xE5 SHL DUP2 MSTORE PUSH1 0x4 ADD PUSH3 0x66B SWAP1 PUSH3 0x3D0D JUMP JUMPDEST PUSH1 0x8 SLOAD PUSH1 0x0 SWAP1 DUP2 SWAP1 DUP2 SWAP1 PUSH1 0x1 PUSH1 0x1 PUSH1 0xA0 SHL SUB SWAP1 DUP2 AND SWAP1 DUP11 AND SUB PUSH3 0xFDF JUMPI PUSH3 0xF02 DUP9 PUSH3 0x11AF JUMP JUMPDEST SWAP4 POP SWAP2 POP PUSH3 0xF13 DUP4 DUP4 DUP10 PUSH3 0x2712 JUMP JUMPDEST SWAP1 POP DUP6 DUP2 LT ISZERO PUSH3 0xF38 JUMPI PUSH1 0x40 MLOAD PUSH3 0x461BCD PUSH1 0xE5 SHL DUP2 MSTORE PUSH1 0x4 ADD PUSH3 0x66B SWAP1 PUSH3 0x3D50 JUMP JUMPDEST PUSH3 0xF4A DUP9 DUP4 PUSH1 0x0 DUP11 DUP6 PUSH1 0x0 PUSH3 0x276E JUMP JUMPDEST PUSH1 0x8 SLOAD PUSH1 0x40 MLOAD PUSH4 0x23B872DD PUSH1 0xE0 SHL DUP2 MSTORE PUSH1 0x1 PUSH1 0x1 PUSH1 0xA0 SHL SUB SWAP1 SWAP2 AND SWAP1 PUSH4 0x23B872DD SWAP1 PUSH3 0xF80 SWAP1 CALLER SWAP1 ADDRESS SWAP1 DUP13 SWAP1 PUSH1 0x4 ADD PUSH3 0x3DA2 JUMP JUMPDEST PUSH1 0x20 PUSH1 0x40 MLOAD DUP1 DUP4 SUB DUP2 PUSH1 0x0 DUP8 GAS CALL ISZERO DUP1 ISZERO PUSH3 0xFA0 JUMPI RETURNDATASIZE PUSH1 0x0 DUP1 RETURNDATACOPY RETURNDATASIZE PUSH1 0x0 REVERT JUMPDEST POP POP POP POP PUSH1 0x40 MLOAD RETURNDATASIZE PUSH1 0x1F NOT PUSH1 0x1F DUP3 ADD AND DUP3 ADD DUP1 PUSH1 0x40 MSTORE POP DUP2 ADD SWAP1 PUSH3 0xFC6 SWAP2 SWAP1 PUSH3 0x3CED JUMP JUMPDEST POP PUSH3 0xFD4 DUP9 DUP7 DUP4 PUSH3 0x264F JUMP JUMPDEST SWAP3 POP PUSH3 0x1181 SWAP2 POP POP JUMP JUMPDEST PUSH1 0x8 SLOAD PUSH1 0x0 SWAP1 PUSH1 0x1 PUSH1 0x1 PUSH1 0xA0 SHL SUB SWAP1 DUP2 AND SWAP1 DUP11 AND SUB PUSH3 0x10DF JUMPI PUSH3 0x1004 DUP11 PUSH3 0x11AF JUMP JUMPDEST SWAP1 SWAP5 POP SWAP3 POP PUSH3 0x1016 DUP5 DUP5 DUP11 PUSH3 0x2712 JUMP JUMPDEST SWAP1 POP DUP7 DUP2 LT ISZERO PUSH3 0x103B JUMPI PUSH1 0x40 MLOAD PUSH3 0x461BCD PUSH1 0xE5 SHL DUP2 MSTORE PUSH1 0x4 ADD PUSH3 0x66B SWAP1 PUSH3 0x3D50 JUMP JUMPDEST PUSH3 0x104C DUP11 DUP6 DUP11 PUSH1 0x0 DUP1 DUP7 PUSH3 0x276E JUMP JUMPDEST PUSH3 0x1058 DUP11 DUP10 PUSH3 0x298B JUMP JUMPDEST PUSH1 0x8 SLOAD PUSH1 0x40 MLOAD PUSH4 0xA9059CBB PUSH1 0xE0 SHL DUP2 MSTORE PUSH1 0x1 PUSH1 0x1 PUSH1 0xA0 SHL SUB DUP9 DUP2 AND PUSH1 0x4 DUP4 ADD MSTORE PUSH1 0x24 DUP3 ADD DUP5 SWAP1 MSTORE SWAP1 SWAP2 AND SWAP1 PUSH4 0xA9059CBB SWAP1 PUSH1 0x44 ADD PUSH1 0x20 PUSH1 0x40 MLOAD DUP1 DUP4 SUB DUP2 PUSH1 0x0 DUP8 GAS CALL ISZERO DUP1 ISZERO PUSH3 0x10AC JUMPI RETURNDATASIZE PUSH1 0x0 DUP1 RETURNDATACOPY RETURNDATASIZE PUSH1 0x0 REVERT JUMPDEST POP POP POP POP PUSH1 0x40 MLOAD RETURNDATASIZE PUSH1 0x1F NOT PUSH1 0x1F DUP3 ADD AND DUP3 ADD DUP1 PUSH1 0x40 MSTORE POP DUP2 ADD SWAP1 PUSH3 0x10D2 SWAP2 SWAP1 PUSH3 0x3CED JUMP JUMPDEST POP SWAP4 POP PUSH3 0x1181 SWAP3 POP POP POP JUMP JUMPDEST PUSH3 0x10EA DUP11 PUSH3 0x11AF JUMP JUMPDEST SWAP1 SWAP5 POP SWAP3 POP PUSH3 0x10FC DUP5 DUP5 DUP11 PUSH3 0x2712 JUMP JUMPDEST SWAP1 POP PUSH3 0x1109 DUP10 PUSH3 0x11AF JUMP JUMPDEST SWAP5 POP SWAP3 POP PUSH3 0x111A DUP5 DUP5 DUP4 PUSH3 0x2712 JUMP JUMPDEST SWAP2 POP DUP7 DUP3 LT ISZERO PUSH3 0x113F JUMPI PUSH1 0x40 MLOAD PUSH3 0x461BCD PUSH1 0xE5 SHL DUP2 MSTORE PUSH1 0x4 ADD PUSH3 0x66B SWAP1 PUSH3 0x3D50 JUMP JUMPDEST PUSH3 0x1150 DUP11 DUP6 DUP11 PUSH1 0x0 DUP1 DUP7 PUSH3 0x276E JUMP JUMPDEST PUSH3 0x1162 DUP10 DUP5 PUSH1 0x0 DUP5 DUP7 PUSH1 0x0 PUSH3 0x276E JUMP JUMPDEST PUSH3 0x116E DUP11 DUP10 PUSH3 0x298B JUMP JUMPDEST PUSH3 0x117B DUP10 DUP8 DUP5 PUSH3 0x264F JUMP JUMPDEST POP SWAP3 POP POP POP JUMPDEST PUSH1 0x1 PUSH1 0x7 SSTORE SWAP6 SWAP5 POP POP POP POP POP JUMP JUMPDEST PUSH3 0x11AC PUSH1 0x0 PUSH7 0x38D7EA4C68000 PUSH4 0x3B9ACA00 PUSH1 0x0 DUP1 CALLER PUSH3 0x1D09 JUMP JUMPDEST POP JUMP JUMPDEST PUSH1 0x1 PUSH1 0x1 PUSH1 0xA0 SHL SUB DUP2 AND PUSH1 0x0 SWAP1 DUP2 MSTORE PUSH1 0xA PUSH1 0x20 MSTORE PUSH1 0x40 DUP2 KECCAK256 SLOAD PUSH1 0x9 DUP1 SLOAD DUP4 SWAP3 SWAP2 DUP4 SWAP2 DUP4 SWAP1 DUP2 LT PUSH3 0x11E4 JUMPI PUSH3 0x11E4 PUSH3 0x3C31 JUMP JUMPDEST SWAP1 PUSH1 0x0 MSTORE PUSH1 0x20 PUSH1 0x0 KECCAK256 SWAP1 PUSH1 0x2 MUL ADD PUSH1 0x1 ADD SLOAD SWAP1 POP PUSH1 0x0 PUSH3 0x1205 DUP7 PUSH3 0x23C1 JUMP JUMPDEST SWAP7 SWAP2 SWAP6 POP SWAP1 SWAP4 POP POP POP POP JUMP JUMPDEST PUSH1 0x8 SLOAD PUSH1 0x0 SWAP1 PUSH1 0x1 PUSH1 0x1 PUSH1 0xA0 SHL SUB SWAP1 DUP2 AND SWAP1 DUP4 AND SUB PUSH3 0x1285 JUMPI PUSH1 0x40 MLOAD PUSH3 0x461BCD PUSH1 0xE5 SHL DUP2 MSTORE PUSH1 0x20 PUSH1 0x4 DUP3 ADD MSTORE PUSH1 0x28 PUSH1 0x24 DUP3 ADD MSTORE PUSH32 0x546F6B656E206D75737420626520646966666572656E742066726F6D20435550 PUSH1 0x44 DUP3 ADD MSTORE PUSH8 0x22AC102A37B5B2B7 PUSH1 0xC1 SHL PUSH1 0x64 DUP3 ADD MSTORE PUSH1 0x84 ADD PUSH3 0x66B JUMP JUMPDEST PUSH1 0x1 PUSH1 0x1 PUSH1 0xA0 SHL SUB DUP3 AND PUSH1 0x0 SWAP1 DUP2 MSTORE PUSH1 0xA PUSH1 0x20 MSTORE PUSH1 0x40 SWAP1 KECCAK256 SLOAD ISZERO PUSH3 0x12F8 JUMPI PUSH1 0x40 MLOAD PUSH3 0x461BCD PUSH1 0xE5 SHL DUP2 MSTORE PUSH1 0x20 PUSH1 0x4 DUP3 ADD MSTORE PUSH1 0x22 PUSH1 0x24 DUP3 ADD MSTORE PUSH32 0x506F6F6C20666F72207468697320746F6B656E20616C72656164792065786973 PUSH1 0x44 DUP3 ADD MSTORE PUSH2 0x7473 PUSH1 0xF0 SHL PUSH1 0x64 DUP3 ADD MSTORE PUSH1 0x84 ADD PUSH3 0x66B JUMP JUMPDEST PUSH1 0x9 DUP1 SLOAD PUSH1 0x1 PUSH1 0x1 PUSH1 0xA0 SHL SUB DUP5 DUP2 AND PUSH1 0x0 DUP2 DUP2 MSTORE PUSH1 0xA PUSH1 0x20 SWAP1 DUP2 MSTORE PUSH1 0x40 DUP1 DUP4 KECCAK256 DUP7 SWAP1 SSTORE DUP1 MLOAD DUP1 DUP3 ADD DUP3 MSTORE DUP5 DUP2 MSTORE DUP1 DUP4 ADD DUP5 DUP2 MSTORE PUSH1 0x1 DUP9 ADD DUP10 SSTORE SWAP8 SWAP1 SWAP4 MSTORE SWAP2 MLOAD PUSH32 0x6E1540171B6C0C960B71A7020D9F60077F6AF931A8BBF590DA0223DACF75C7AF PUSH1 0x2 DUP8 MUL SWAP1 DUP2 ADD DUP1 SLOAD PUSH1 0x1 PUSH1 0x1 PUSH1 0xA0 SHL SUB NOT AND SWAP3 SWAP1 SWAP7 AND SWAP2 SWAP1 SWAP2 OR SWAP1 SWAP5 SSTORE SWAP5 MLOAD PUSH32 0x6E1540171B6C0C960B71A7020D9F60077F6AF931A8BBF590DA0223DACF75C7B0 SWAP1 SWAP4 ADD SWAP3 SWAP1 SWAP3 SSTORE SWAP1 MLOAD DUP3 DUP2 MSTORE SWAP2 SWAP3 SWAP1 SWAP2 PUSH32 0x641E49906554552C8C33D7E09E02D1270590F405BC1DA0C7B99A9C2808ABDD05 SWAP2 ADD PUSH1 0x40 MLOAD DUP1 SWAP2 SUB SWAP1 LOG2 SWAP3 SWAP2 POP POP JUMP JUMPDEST PUSH1 0x60 PUSH1 0x5 DUP1 SLOAD PUSH3 0x701 SWAP1 PUSH3 0x3BCF JUMP JUMPDEST PUSH3 0x13F8 CALLER DUP4 DUP4 PUSH3 0x2C70 JUMP JUMPDEST POP POP JUMP JUMPDEST PUSH1 0x0 PUSH1 0x40 MLOAD PUSH3 0x140C SWAP1 PUSH3 0x34C7 JUMP JUMPDEST PUSH3 0x1417 SWAP1 PUSH3 0x3DC6 JUMP JUMPDEST PUSH1 0x40 MLOAD DUP1 SWAP2 SUB SWAP1 PUSH1 0x0 CREATE DUP1 ISZERO DUP1 ISZERO PUSH3 0x1434 JUMPI RETURNDATASIZE PUSH1 0x0 DUP1 RETURNDATACOPY RETURNDATASIZE PUSH1 0x0 REVERT JUMPDEST POP SWAP1 POP PUSH1 0x0 PUSH1 0x40 MLOAD PUSH3 0x1447 SWAP1 PUSH3 0x34C7 JUMP JUMPDEST PUSH3 0x1452 SWAP1 PUSH3 0x3E0F JUMP JUMPDEST PUSH1 0x40 MLOAD DUP1 SWAP2 SUB SWAP1 PUSH1 0x0 CREATE DUP1 ISZERO DUP1 ISZERO PUSH3 0x146F JUMPI RETURNDATASIZE PUSH1 0x0 DUP1 RETURNDATACOPY RETURNDATASIZE PUSH1 0x0 REVERT JUMPDEST POP SWAP1 POP PUSH1 0x40 MLOAD PUSH3 0x1480 SWAP1 PUSH3 0x34C7 JUMP JUMPDEST PUSH3 0x148B SWAP1 PUSH3 0x3E56 JUMP JUMPDEST PUSH1 0x40 MLOAD DUP1 SWAP2 SUB SWAP1 PUSH1 0x0 CREATE DUP1 ISZERO DUP1 ISZERO PUSH3 0x14A8 JUMPI RETURNDATASIZE PUSH1 0x0 DUP1 RETURNDATACOPY RETURNDATASIZE PUSH1 0x0 REVERT JUMPDEST POP PUSH1 0x8 DUP1 SLOAD PUSH1 0x1 PUSH1 0x1 PUSH1 0xA0 SHL SUB NOT AND PUSH1 0x1 PUSH1 0x1 PUSH1 0xA0 SHL SUB SWAP3 DUP4 AND OR SWAP1 SSTORE PUSH1 0x40 MLOAD PUSH4 0x40C10F19 PUSH1 0xE0 SHL DUP2 MSTORE CALLER PUSH1 0x4 DUP3 ADD MSTORE PUSH13 0xC9F2C9CD04674EDEA40000000 PUSH1 0x24 DUP3 ADD MSTORE SWAP1 DUP4 AND SWAP1 PUSH4 0x40C10F19 SWAP1 PUSH1 0x44 ADD PUSH1 0x0 PUSH1 0x40 MLOAD DUP1 DUP4 SUB DUP2 PUSH1 0x0 DUP8 DUP1 EXTCODESIZE ISZERO DUP1 ISZERO PUSH3 0x1513 JUMPI PUSH1 0x0 DUP1 REVERT JUMPDEST POP GAS CALL ISZERO DUP1 ISZERO PUSH3 0x1528 JUMPI RETURNDATASIZE PUSH1 0x0 DUP1 RETURNDATACOPY RETURNDATASIZE PUSH1 0x0 REVERT JUMPDEST POP POP PUSH1 0x40 MLOAD PUSH4 0x40C10F19 PUSH1 0xE0 SHL DUP2 MSTORE CALLER PUSH1 0x4 DUP3 ADD MSTORE PUSH13 0xC9F2C9CD04674EDEA40000000 PUSH1 0x24 DUP3 ADD MSTORE PUSH1 0x1 PUSH1 0x1 PUSH1 0xA0 SHL SUB DUP5 AND SWAP3 POP PUSH4 0x40C10F19 SWAP2 POP PUSH1 0x44 ADD PUSH1 0x0 PUSH1 0x40 MLOAD DUP1 DUP4 SUB DUP2 PUSH1 0x0 DUP8 DUP1 EXTCODESIZE ISZERO DUP1 ISZERO PUSH3 0x1581 JUMPI PUSH1 0x0 DUP1 REVERT JUMPDEST POP GAS CALL ISZERO DUP1 ISZERO PUSH3 0x1596 JUMPI RETURNDATASIZE PUSH1 0x0 DUP1 RETURNDATACOPY RETURNDATASIZE PUSH1 0x0 REVERT JUMPDEST POP POP PUSH1 0x8 SLOAD PUSH1 0x40 MLOAD PUSH4 0x40C10F19 PUSH1 0xE0 SHL DUP2 MSTORE CALLER PUSH1 0x4 DUP3 ADD MSTORE PUSH13 0xC9F2C9CD04674EDEA40000000 PUSH1 0x24 DUP3 ADD MSTORE PUSH1 0x1 PUSH1 0x1 PUSH1 0xA0 SHL SUB SWAP1 SWAP2 AND SWAP3 POP PUSH4 0x40C10F19 SWAP2 POP PUSH1 0x44 ADD PUSH1 0x0 PUSH1 0x40 MLOAD DUP1 DUP4 SUB DUP2 PUSH1 0x0 DUP8 DUP1 EXTCODESIZE ISZERO DUP1 ISZERO PUSH3 0x15F3 JUMPI PUSH1 0x0 DUP1 REVERT JUMPDEST POP GAS CALL ISZERO DUP1 ISZERO PUSH3 0x1608 JUMPI RETURNDATASIZE PUSH1 0x0 DUP1 RETURNDATACOPY RETURNDATASIZE PUSH1 0x0 REVERT JUMPDEST POP POP POP POP PUSH3 0x1617 DUP3 PUSH3 0x1211 JUMP JUMPDEST POP PUSH3 0x1623 DUP2 PUSH3 0x1211 JUMP JUMPDEST POP PUSH3 0x1630 PUSH1 0x0 PUSH3 0x1211 JUMP JUMPDEST POP PUSH3 0x1658 DUP3 PUSH10 0xD3C21BCECCEDA1000000 PUSH12 0x33B2E3C9FD0803CE8000000 PUSH1 0x0 DUP1 CALLER PUSH3 0x1D09 JUMP JUMPDEST POP PUSH3 0x1676 DUP2 PUSH12 0x33B2E3C9FD0803CE8000000 DUP1 PUSH1 0x0 DUP1 CALLER PUSH3 0x1D09 JUMP JUMPDEST POP POP POP JUMP JUMPDEST PUSH1 0x9 DUP2 DUP2 SLOAD DUP2 LT PUSH3 0x168C JUMPI PUSH1 0x0 DUP1 REVERT JUMPDEST PUSH1 0x0 SWAP2 DUP3 MSTORE PUSH1 0x20 SWAP1 SWAP2 KECCAK256 PUSH1 0x2 SWAP1 SWAP2 MUL ADD DUP1 SLOAD PUSH1 0x1 SWAP1 SWAP2 ADD SLOAD PUSH1 0x1 PUSH1 0x1 PUSH1 0xA0 SHL SUB SWAP1 SWAP2 AND SWAP2 POP DUP3 JUMP JUMPDEST PUSH1 0x0 DUP1 PUSH1 0x0 PUSH1 0x9 DUP5 DUP2 SLOAD DUP2 LT PUSH3 0x16CF JUMPI PUSH3 0x16CF PUSH3 0x3C31 JUMP JUMPDEST SWAP1 PUSH1 0x0 MSTORE PUSH1 0x20 PUSH1 0x0 KECCAK256 SWAP1 PUSH1 0x2 MUL ADD PUSH1 0x1 ADD SLOAD SWAP1 POP PUSH1 0x0 PUSH3 0x171F PUSH1 0x9 DUP7 DUP2 SLOAD DUP2 LT PUSH3 0x16FF JUMPI PUSH3 0x16FF PUSH3 0x3C31 JUMP JUMPDEST PUSH1 0x0 SWAP2 DUP3 MSTORE PUSH1 0x20 SWAP1 SWAP2 KECCAK256 PUSH1 0x2 SWAP1 SWAP2 MUL ADD SLOAD PUSH1 0x1 PUSH1 0x1 PUSH1 0xA0 SHL SUB AND PUSH3 0x23C1 JUMP JUMPDEST SWAP6 SWAP2 SWAP5 POP SWAP1 SWAP3 POP POP POP JUMP JUMPDEST PUSH1 0x0 DUP3 PUSH1 0x1 PUSH1 0x1 PUSH1 0xA0 SHL SUB AND DUP5 PUSH1 0x1 PUSH1 0x1 PUSH1 0xA0 SHL SUB AND SUB PUSH3 0x1760 JUMPI PUSH1 0x40 MLOAD PUSH3 0x461BCD PUSH1 0xE5 SHL DUP2 MSTORE PUSH1 0x4 ADD PUSH3 0x66B SWAP1 PUSH3 0x3D0D JUMP JUMPDEST PUSH1 0x8 SLOAD PUSH1 0x0 SWAP1 DUP2 SWAP1 PUSH1 0x1 PUSH1 0x1 PUSH1 0xA0 SHL SUB SWAP1 DUP2 AND SWAP1 DUP8 AND SUB PUSH3 0x17A3 JUMPI PUSH3 0x1787 DUP6 PUSH3 0x11AF JUMP JUMPDEST SWAP1 SWAP3 POP SWAP1 POP PUSH3 0x1799 DUP2 DUP4 DUP7 PUSH3 0x2D52 JUMP JUMPDEST SWAP3 POP POP POP PUSH3 0x1816 JUMP JUMPDEST PUSH1 0x8 SLOAD PUSH1 0x1 PUSH1 0x1 PUSH1 0xA0 SHL SUB SWAP1 DUP2 AND SWAP1 DUP7 AND SUB PUSH3 0x17D6 JUMPI PUSH3 0x17C5 DUP7 PUSH3 0x11AF JUMP JUMPDEST SWAP3 POP SWAP1 POP PUSH3 0x1799 DUP2 DUP4 DUP7 PUSH3 0x2D52 JUMP JUMPDEST PUSH3 0x17E1 DUP6 PUSH3 0x11AF JUMP JUMPDEST SWAP1 SWAP3 POP SWAP1 POP PUSH3 0x17F3 DUP2 DUP4 DUP7 PUSH3 0x2D52 JUMP JUMPDEST SWAP4 POP PUSH3 0x1800 DUP7 PUSH3 0x11AF JUMP JUMPDEST SWAP3 POP SWAP1 POP PUSH3 0x1811 DUP2 DUP4 DUP7 PUSH3 0x2D52 JUMP JUMPDEST SWAP3 POP POP POP JUMPDEST SWAP4 SWAP3 POP POP POP JUMP JUMPDEST PUSH1 0x1 PUSH1 0x1 PUSH1 0xA0 SHL SUB DUP6 AND CALLER EQ DUP1 PUSH3 0x183C JUMPI POP PUSH3 0x183C DUP6 CALLER PUSH3 0x537 JUMP JUMPDEST PUSH3 0x189C JUMPI PUSH1 0x40 MLOAD PUSH3 0x461BCD PUSH1 0xE5 SHL DUP2 MSTORE PUSH1 0x20 PUSH1 0x4 DUP3 ADD MSTORE PUSH1 0x29 PUSH1 0x24 DUP3 ADD MSTORE PUSH32 0x455243313135353A2063616C6C6572206973206E6F74206F776E6572206E6F72 PUSH1 0x44 DUP3 ADD MSTORE PUSH9 0x8185C1C1C9BDD9959 PUSH1 0xBA SHL PUSH1 0x64 DUP3 ADD MSTORE PUSH1 0x84 ADD PUSH3 0x66B JUMP JUMPDEST PUSH3 0x8BD DUP6 DUP6 DUP6 DUP6 DUP6 PUSH3 0x2DB7 JUMP JUMPDEST PUSH1 0x0 PUSH1 0x2 PUSH1 0x7 SLOAD SUB PUSH3 0x18D2 JUMPI PUSH1 0x40 MLOAD PUSH3 0x461BCD PUSH1 0xE5 SHL DUP2 MSTORE PUSH1 0x4 ADD PUSH3 0x66B SWAP1 PUSH3 0x3C63 JUMP JUMPDEST PUSH1 0x2 PUSH1 0x7 SSTORE PUSH1 0x1 PUSH1 0x1 PUSH1 0xA0 SHL SUB DUP1 DUP7 AND SWAP1 DUP8 AND SUB PUSH3 0x1905 JUMPI PUSH1 0x40 MLOAD PUSH3 0x461BCD PUSH1 0xE5 SHL DUP2 MSTORE PUSH1 0x4 ADD PUSH3 0x66B SWAP1 PUSH3 0x3D0D JUMP JUMPDEST PUSH1 0x1 PUSH1 0x1 PUSH1 0xA0 SHL SUB DUP7 AND ISZERO DUP1 ISZERO PUSH3 0x191C JUMPI POP CALLVALUE DUP5 EQ JUMPDEST PUSH3 0x1989 JUMPI PUSH1 0x40 MLOAD PUSH3 0x461BCD PUSH1 0xE5 SHL DUP2 MSTORE PUSH1 0x20 PUSH1 0x4 DUP3 ADD MSTORE PUSH1 0x36 PUSH1 0x24 DUP3 ADD MSTORE PUSH32 0x496E636F7272656374205F6D6178416D6F756E74546F6B656E73496E20666F72 PUSH1 0x44 DUP3 ADD MSTORE PUSH22 0x81B985D1A5D99481D1BDAD95B881C1C9BDD9A591959 PUSH1 0x52 SHL PUSH1 0x64 DUP3 ADD MSTORE PUSH1 0x84 ADD PUSH3 0x66B JUMP JUMPDEST PUSH1 0x8 SLOAD PUSH1 0x0 SWAP1 DUP2 SWAP1 DUP2 SWAP1 DUP2 SWAP1 PUSH1 0x1 PUSH1 0x1 PUSH1 0xA0 SHL SUB SWAP1 DUP2 AND SWAP1 DUP12 AND SUB PUSH3 0x1A92 JUMPI PUSH3 0x19B4 DUP10 PUSH3 0x11AF JUMP JUMPDEST SWAP5 POP SWAP3 POP PUSH3 0x19C5 DUP5 DUP5 DUP10 PUSH3 0x2D52 JUMP JUMPDEST SWAP1 POP DUP8 DUP2 GT ISZERO PUSH3 0x19EA JUMPI PUSH1 0x40 MLOAD PUSH3 0x461BCD PUSH1 0xE5 SHL DUP2 MSTORE PUSH1 0x4 ADD PUSH3 0x66B SWAP1 PUSH3 0x3EA1 JUMP JUMPDEST PUSH3 0x19FC DUP10 DUP5 PUSH1 0x0 DUP5 DUP12 PUSH1 0x0 PUSH3 0x276E JUMP JUMPDEST PUSH1 0x8 SLOAD PUSH1 0x40 MLOAD PUSH4 0x23B872DD PUSH1 0xE0 SHL DUP2 MSTORE PUSH1 0x1 PUSH1 0x1 PUSH1 0xA0 SHL SUB SWAP1 SWAP2 AND SWAP1 PUSH4 0x23B872DD SWAP1 PUSH3 0x1A32 SWAP1 CALLER SWAP1 ADDRESS SWAP1 DUP7 SWAP1 PUSH1 0x4 ADD PUSH3 0x3DA2 JUMP JUMPDEST PUSH1 0x20 PUSH1 0x40 MLOAD DUP1 DUP4 SUB DUP2 PUSH1 0x0 DUP8 GAS CALL ISZERO DUP1 ISZERO PUSH3 0x1A52 JUMPI RETURNDATASIZE PUSH1 0x0 DUP1 RETURNDATACOPY RETURNDATASIZE PUSH1 0x0 REVERT JUMPDEST POP POP POP POP PUSH1 0x40 MLOAD RETURNDATASIZE PUSH1 0x1F NOT PUSH1 0x1F DUP3 ADD AND DUP3 ADD DUP1 PUSH1 0x40 MSTORE POP DUP2 ADD SWAP1 PUSH3 0x1A78 SWAP2 SWAP1 PUSH3 0x3CED JUMP JUMPDEST POP PUSH3 0x1A86 DUP10 DUP8 DUP10 PUSH3 0x264F JUMP JUMPDEST SWAP4 POP PUSH3 0x1181 SWAP3 POP POP POP JUMP JUMPDEST PUSH1 0x8 SLOAD PUSH1 0x1 PUSH1 0x1 PUSH1 0xA0 SHL SUB SWAP1 DUP2 AND SWAP1 DUP11 AND SUB PUSH3 0x1B90 JUMPI PUSH3 0x1AB4 DUP11 PUSH3 0x11AF JUMP JUMPDEST SWAP1 SWAP5 POP SWAP3 POP PUSH3 0x1AC6 DUP5 DUP5 DUP10 PUSH3 0x2D52 JUMP JUMPDEST SWAP2 POP DUP8 DUP3 GT ISZERO PUSH3 0x1AEB JUMPI PUSH1 0x40 MLOAD PUSH3 0x461BCD PUSH1 0xE5 SHL DUP2 MSTORE PUSH1 0x4 ADD PUSH3 0x66B SWAP1 PUSH3 0x3EA1 JUMP JUMPDEST PUSH3 0x1AFC DUP11 DUP6 DUP5 PUSH1 0x0 DUP1 DUP13 PUSH3 0x276E JUMP JUMPDEST PUSH3 0x1B08 DUP11 DUP4 PUSH3 0x298B JUMP JUMPDEST PUSH1 0x8 SLOAD PUSH1 0x40 MLOAD PUSH4 0xA9059CBB PUSH1 0xE0 SHL DUP2 MSTORE PUSH1 0x1 PUSH1 0x1 PUSH1 0xA0 SHL SUB DUP9 DUP2 AND PUSH1 0x4 DUP4 ADD MSTORE PUSH1 0x24 DUP3 ADD DUP11 SWAP1 MSTORE SWAP1 SWAP2 AND SWAP1 PUSH4 0xA9059CBB SWAP1 PUSH1 0x44 ADD PUSH1 0x20 PUSH1 0x40 MLOAD DUP1 DUP4 SUB DUP2 PUSH1 0x0 DUP8 GAS CALL ISZERO DUP1 ISZERO PUSH3 0x1B5C JUMPI RETURNDATASIZE PUSH1 0x0 DUP1 RETURNDATACOPY RETURNDATASIZE PUSH1 0x0 REVERT JUMPDEST POP POP POP POP PUSH1 0x40 MLOAD RETURNDATASIZE PUSH1 0x1F NOT PUSH1 0x1F DUP3 ADD AND DUP3 ADD DUP1 PUSH1 0x40 MSTORE POP DUP2 ADD SWAP1 PUSH3 0x1B82 SWAP2 SWAP1 PUSH3 0x3CED JUMP JUMPDEST POP DUP2 SWAP5 POP POP POP POP POP PUSH3 0x1181 JUMP JUMPDEST PUSH3 0x1B9B DUP10 PUSH3 0x11AF JUMP JUMPDEST SWAP5 POP SWAP3 POP PUSH3 0x1BAC DUP5 DUP5 DUP10 PUSH3 0x2D52 JUMP JUMPDEST SWAP1 POP PUSH3 0x1BB9 DUP11 PUSH3 0x11AF JUMP JUMPDEST SWAP1 SWAP5 POP SWAP3 POP PUSH3 0x1BCB DUP5 DUP5 DUP4 PUSH3 0x2D52 JUMP JUMPDEST SWAP2 POP DUP8 DUP3 GT ISZERO PUSH3 0x1BF0 JUMPI PUSH1 0x40 MLOAD PUSH3 0x461BCD PUSH1 0xE5 SHL DUP2 MSTORE PUSH1 0x4 ADD PUSH3 0x66B SWAP1 PUSH3 0x3EA1 JUMP JUMPDEST PUSH3 0x1C01 DUP11 DUP6 DUP5 PUSH1 0x0 DUP1 DUP7 PUSH3 0x276E JUMP JUMPDEST PUSH3 0x1C13 DUP10 DUP5 PUSH1 0x0 DUP5 DUP12 PUSH1 0x0 PUSH3 0x276E JUMP JUMPDEST PUSH3 0x1C1F DUP11 DUP4 PUSH3 0x298B JUMP JUMPDEST PUSH3 0x117B DUP10 DUP8 DUP10 PUSH3 0x264F JUMP JUMPDEST PUSH1 0x0 DUP3 PUSH1 0x1 PUSH1 0x1 PUSH1 0xA0 SHL SUB AND DUP5 PUSH1 0x1 PUSH1 0x1 PUSH1 0xA0 SHL SUB AND SUB PUSH3 0x1C62 JUMPI PUSH1 0x40 MLOAD PUSH3 0x461BCD PUSH1 0xE5 SHL DUP2 MSTORE PUSH1 0x4 ADD PUSH3 0x66B SWAP1 PUSH3 0x3D0D JUMP JUMPDEST PUSH1 0x8 SLOAD PUSH1 0x0 SWAP1 DUP2 SWAP1 PUSH1 0x1 PUSH1 0x1 PUSH1 0xA0 SHL SUB SWAP1 DUP2 AND SWAP1 DUP8 AND SUB PUSH3 0x1C9B JUMPI PUSH3 0x1C89 DUP6 PUSH3 0x11AF JUMP JUMPDEST SWAP1 SWAP3 POP SWAP1 POP PUSH3 0x1799 DUP2 DUP4 DUP7 PUSH3 0x2712 JUMP JUMPDEST PUSH1 0x8 SLOAD PUSH1 0x1 PUSH1 0x1 PUSH1 0xA0 SHL SUB SWAP1 DUP2 AND SWAP1 DUP7 AND SUB PUSH3 0x1CCE JUMPI PUSH3 0x1CBD DUP7 PUSH3 0x11AF JUMP JUMPDEST SWAP3 POP SWAP1 POP PUSH3 0x1799 DUP2 DUP4 DUP7 PUSH3 0x2712 JUMP JUMPDEST PUSH3 0x1CD9 DUP7 PUSH3 0x11AF JUMP JUMPDEST SWAP3 POP SWAP1 POP PUSH3 0x1CEA DUP2 DUP4 DUP7 PUSH3 0x2712 JUMP JUMPDEST SWAP4 POP PUSH3 0x1CF7 DUP6 PUSH3 0x11AF JUMP JUMPDEST SWAP1 SWAP3 POP SWAP1 POP PUSH3 0x1811 DUP2 DUP4 DUP7 PUSH3 0x2712 JUMP JUMPDEST PUSH1 0x0 PUSH1 0x2 PUSH1 0x7 SLOAD SUB PUSH3 0x1D30 JUMPI PUSH1 0x40 MLOAD PUSH3 0x461BCD PUSH1 0xE5 SHL DUP2 MSTORE PUSH1 0x4 ADD PUSH3 0x66B SWAP1 PUSH3 0x3C63 JUMP JUMPDEST PUSH1 0x2 PUSH1 0x7 SSTORE PUSH1 0x1 PUSH1 0x1 PUSH1 0xA0 SHL SUB DUP8 AND PUSH1 0x0 SWAP1 DUP2 MSTORE PUSH1 0xA PUSH1 0x20 MSTORE PUSH1 0x40 DUP2 KECCAK256 SLOAD SWAP1 DUP2 SWAP1 SUB PUSH3 0x1D65 JUMPI PUSH3 0x1D62 DUP9 PUSH3 0x1211 JUMP JUMPDEST SWAP1 POP JUMPDEST PUSH1 0x0 PUSH1 0x9 DUP3 DUP2 SLOAD DUP2 LT PUSH3 0x1D7D JUMPI PUSH3 0x1D7D PUSH3 0x3C31 JUMP JUMPDEST SWAP1 PUSH1 0x0 MSTORE PUSH1 0x20 PUSH1 0x0 KECCAK256 SWAP1 PUSH1 0x2 MUL ADD SWAP1 POP PUSH1 0x0 PUSH3 0x1D9A DUP11 PUSH3 0x23C1 JUMP JUMPDEST PUSH1 0x0 DUP5 DUP2 MSTORE PUSH1 0x3 PUSH1 0x20 MSTORE PUSH1 0x40 DUP2 KECCAK256 SLOAD SWAP2 SWAP3 POP DUP2 DUP2 SUB PUSH3 0x1E02 JUMPI PUSH3 0x1DD5 PUSH2 0xDEAD DUP7 PUSH2 0x3E8 PUSH1 0x40 MLOAD DUP1 PUSH1 0x20 ADD PUSH1 0x40 MSTORE DUP1 PUSH1 0x0 DUP2 MSTORE POP PUSH3 0x2EFF JUMP JUMPDEST PUSH2 0x3E8 PUSH3 0x1DEE PUSH3 0x1DE8 DUP13 DUP15 PUSH3 0x3C9A JUMP JUMPDEST PUSH3 0x3025 JUMP JUMPDEST PUSH3 0x1DFA SWAP2 SWAP1 PUSH3 0x3CD7 JUMP JUMPDEST SWAP1 POP PUSH3 0x1FDC JUMP JUMPDEST PUSH1 0x1 DUP5 ADD SLOAD PUSH1 0x0 SWAP1 PUSH3 0x1E16 DUP6 DUP14 PUSH3 0x3C9A JUMP JUMPDEST PUSH3 0x1E22 SWAP2 SWAP1 PUSH3 0x3CB4 JUMP JUMPDEST SWAP1 POP DUP12 DUP2 GT PUSH3 0x1E95 JUMPI DUP10 DUP2 LT ISZERO PUSH3 0x1E8C JUMPI PUSH1 0x40 MLOAD PUSH3 0x461BCD PUSH1 0xE5 SHL DUP2 MSTORE PUSH1 0x20 PUSH1 0x4 DUP3 ADD MSTORE PUSH1 0x25 PUSH1 0x24 DUP3 ADD MSTORE PUSH32 0x496E73756666696369656E74205F616D6F756E74546F6B656E73496E2070726F PUSH1 0x44 DUP3 ADD MSTORE PUSH5 0x1D9A591959 PUSH1 0xDA SHL PUSH1 0x64 DUP3 ADD MSTORE PUSH1 0x84 ADD PUSH3 0x66B JUMP JUMPDEST DUP1 SWAP12 POP PUSH3 0x1F98 JUMP JUMPDEST PUSH1 0x0 DUP5 DUP7 PUSH1 0x1 ADD SLOAD DUP15 PUSH3 0x1EAA SWAP2 SWAP1 PUSH3 0x3C9A JUMP JUMPDEST PUSH3 0x1EB6 SWAP2 SWAP1 PUSH3 0x3CB4 JUMP JUMPDEST SWAP1 POP DUP12 DUP2 GT ISZERO PUSH3 0x1F30 JUMPI PUSH1 0x40 MLOAD PUSH3 0x461BCD PUSH1 0xE5 SHL DUP2 MSTORE PUSH1 0x20 PUSH1 0x4 DUP3 ADD MSTORE PUSH1 0x3C PUSH1 0x24 DUP3 ADD MSTORE PUSH32 0x496E73756666696369656E74205F616D6F756E74546F6B656E73496E2026205F PUSH1 0x44 DUP3 ADD MSTORE PUSH32 0x616D6F756E744375706578546F6B656E73496E2070726F766964656400000000 PUSH1 0x64 DUP3 ADD MSTORE PUSH1 0x84 ADD PUSH3 0x66B JUMP JUMPDEST DUP10 DUP2 LT ISZERO PUSH3 0x1F95 JUMPI PUSH1 0x40 MLOAD PUSH3 0x461BCD PUSH1 0xE5 SHL DUP2 MSTORE PUSH1 0x20 PUSH1 0x4 DUP3 ADD MSTORE PUSH1 0x2A PUSH1 0x24 DUP3 ADD MSTORE PUSH32 0x496E73756666696369656E74205F616D6F756E744375706578546F6B656E7349 PUSH1 0x44 DUP3 ADD MSTORE PUSH10 0x1B881C1C9BDD9A591959 PUSH1 0xB2 SHL PUSH1 0x64 DUP3 ADD MSTORE PUSH1 0x84 ADD PUSH3 0x66B JUMP JUMPDEST SWAP11 POP JUMPDEST PUSH3 0x1FD8 DUP5 PUSH3 0x1FA9 DUP6 DUP16 PUSH3 0x3C9A JUMP JUMPDEST PUSH3 0x1FB5 SWAP2 SWAP1 PUSH3 0x3CB4 JUMP JUMPDEST PUSH1 0x1 DUP8 ADD SLOAD PUSH3 0x1FC6 DUP7 DUP16 PUSH3 0x3C9A JUMP JUMPDEST PUSH3 0x1FD2 SWAP2 SWAP1 PUSH3 0x3CB4 JUMP JUMPDEST PUSH3 0x309D JUMP JUMPDEST SWAP2 POP POP JUMPDEST PUSH1 0x0 DUP2 GT PUSH3 0x203E JUMPI PUSH1 0x40 MLOAD PUSH3 0x461BCD PUSH1 0xE5 SHL DUP2 MSTORE PUSH1 0x20 PUSH1 0x4 DUP3 ADD MSTORE PUSH1 0x27 PUSH1 0x24 DUP3 ADD MSTORE PUSH32 0x496E73756666696369656E7420616D6F756E74206F66206C6971756964697479 PUSH1 0x44 DUP3 ADD MSTORE PUSH7 0x81B5A5B9D1959 PUSH1 0xCA SHL PUSH1 0x64 DUP3 ADD MSTORE PUSH1 0x84 ADD PUSH3 0x66B JUMP JUMPDEST DUP10 DUP5 PUSH1 0x1 ADD PUSH1 0x0 DUP3 DUP3 SLOAD PUSH3 0x2054 SWAP2 SWAP1 PUSH3 0x3C1B JUMP JUMPDEST SWAP1 SWAP2 SSTORE POP PUSH3 0x2066 SWAP1 POP DUP13 DUP13 PUSH3 0x298B JUMP JUMPDEST PUSH1 0x8 SLOAD PUSH1 0x40 MLOAD PUSH4 0x23B872DD PUSH1 0xE0 SHL DUP2 MSTORE PUSH1 0x1 PUSH1 0x1 PUSH1 0xA0 SHL SUB SWAP1 SWAP2 AND SWAP1 PUSH4 0x23B872DD SWAP1 PUSH3 0x209C SWAP1 CALLER SWAP1 ADDRESS SWAP1 DUP16 SWAP1 PUSH1 0x4 ADD PUSH3 0x3DA2 JUMP JUMPDEST PUSH1 0x20 PUSH1 0x40 MLOAD DUP1 DUP4 SUB DUP2 PUSH1 0x0 DUP8 GAS CALL ISZERO DUP1 ISZERO PUSH3 0x20BC JUMPI RETURNDATASIZE PUSH1 0x0 DUP1 RETURNDATACOPY RETURNDATASIZE PUSH1 0x0 REVERT JUMPDEST POP POP POP POP PUSH1 0x40 MLOAD RETURNDATASIZE PUSH1 0x1F NOT PUSH1 0x1F DUP3 ADD AND DUP3 ADD DUP1 PUSH1 0x40 MSTORE POP DUP2 ADD SWAP1 PUSH3 0x20E2 SWAP2 SWAP1 PUSH3 0x3CED JUMP JUMPDEST POP PUSH3 0x2100 DUP8 DUP7 DUP4 PUSH1 0x40 MLOAD DUP1 PUSH1 0x20 ADD PUSH1 0x40 MSTORE DUP1 PUSH1 0x0 DUP2 MSTORE POP PUSH3 0x2EFF JUMP JUMPDEST PUSH1 0x40 DUP1 MLOAD DUP13 DUP2 MSTORE PUSH1 0x20 DUP2 ADD DUP13 SWAP1 MSTORE SWAP1 DUP2 ADD DUP3 SWAP1 MSTORE PUSH1 0x1 PUSH1 0x1 PUSH1 0xA0 SHL SUB DUP9 DUP2 AND PUSH1 0x60 DUP4 ADD MSTORE DUP14 AND SWAP1 PUSH32 0x42199B399EEC9BCEDA8511AFD1D6412EB81C0CC2FDBFCAF1892164387C964D41 SWAP1 PUSH1 0x80 ADD PUSH1 0x40 MLOAD DUP1 SWAP2 SUB SWAP1 LOG2 PUSH1 0x1 PUSH1 0x1 PUSH1 0xA0 SHL SUB DUP13 AND PUSH32 0xF10FC780C78F994A214C79A2AE8D8B7BFE7CC3F0F935A8F05A29525E71D7F127 PUSH3 0x218B DUP14 DUP7 PUSH3 0x3C1B JUMP JUMPDEST PUSH1 0x1 DUP8 ADD SLOAD PUSH1 0x40 DUP1 MLOAD SWAP3 DUP4 MSTORE PUSH1 0x20 DUP4 ADD SWAP2 SWAP1 SWAP2 MSTORE ADD PUSH1 0x40 MLOAD DUP1 SWAP2 SUB SWAP1 LOG2 PUSH1 0x1 PUSH1 0x7 SSTORE SWAP12 SWAP11 POP POP POP POP POP POP POP POP POP POP POP JUMP JUMPDEST DUP2 MLOAD DUP4 MLOAD EQ PUSH3 0x2220 JUMPI PUSH1 0x40 MLOAD PUSH3 0x461BCD PUSH1 0xE5 SHL DUP2 MSTORE PUSH1 0x20 PUSH1 0x4 DUP3 ADD MSTORE PUSH1 0x28 PUSH1 0x24 DUP3 ADD MSTORE PUSH32 0x455243313135353A2069647320616E6420616D6F756E7473206C656E67746820 PUSH1 0x44 DUP3 ADD MSTORE PUSH8 0xDAD2E6DAC2E8C6D PUSH1 0xC3 SHL PUSH1 0x64 DUP3 ADD MSTORE PUSH1 0x84 ADD PUSH3 0x66B JUMP JUMPDEST PUSH1 0x1 PUSH1 0x1 PUSH1 0xA0 SHL SUB DUP5 AND PUSH3 0x2249 JUMPI PUSH1 0x40 MLOAD PUSH3 0x461BCD PUSH1 0xE5 SHL DUP2 MSTORE PUSH1 0x4 ADD PUSH3 0x66B SWAP1 PUSH3 0x3EF4 JUMP JUMPDEST CALLER PUSH3 0x225A DUP2 DUP8 DUP8 DUP8 DUP8 DUP8 PUSH3 0x30B0 JUMP JUMPDEST PUSH1 0x0 JUMPDEST DUP5 MLOAD DUP2 LT ISZERO PUSH3 0x234F JUMPI PUSH1 0x0 DUP6 DUP3 DUP2 MLOAD DUP2 LT PUSH3 0x227E JUMPI PUSH3 0x227E PUSH3 0x3C31 JUMP JUMPDEST PUSH1 0x20 MUL PUSH1 0x20 ADD ADD MLOAD SWAP1 POP PUSH1 0x0 DUP6 DUP4 DUP2 MLOAD DUP2 LT PUSH3 0x229F JUMPI PUSH3 0x229F PUSH3 0x3C31 JUMP JUMPDEST PUSH1 0x20 SWAP1 DUP2 MUL SWAP2 SWAP1 SWAP2 ADD DUP2 ADD MLOAD PUSH1 0x0 DUP5 DUP2 MSTORE DUP1 DUP4 MSTORE PUSH1 0x40 DUP1 DUP3 KECCAK256 PUSH1 0x1 PUSH1 0x1 PUSH1 0xA0 SHL SUB DUP15 AND DUP4 MSTORE SWAP1 SWAP4 MSTORE SWAP2 SWAP1 SWAP2 KECCAK256 SLOAD SWAP1 SWAP2 POP DUP2 DUP2 LT ISZERO PUSH3 0x22F2 JUMPI PUSH1 0x40 MLOAD PUSH3 0x461BCD PUSH1 0xE5 SHL DUP2 MSTORE PUSH1 0x4 ADD PUSH3 0x66B SWAP1 PUSH3 0x3F39 JUMP JUMPDEST PUSH1 0x0 DUP4 DUP2 MSTORE PUSH1 0x20 DUP2 DUP2 MSTORE PUSH1 0x40 DUP1 DUP4 KECCAK256 PUSH1 0x1 PUSH1 0x1 PUSH1 0xA0 SHL SUB DUP15 DUP2 AND DUP6 MSTORE SWAP3 MSTORE DUP1 DUP4 KECCAK256 DUP6 DUP6 SUB SWAP1 SSTORE SWAP1 DUP12 AND DUP3 MSTORE DUP2 KECCAK256 DUP1 SLOAD DUP5 SWAP3 SWAP1 PUSH3 0x2331 SWAP1 DUP5 SWAP1 PUSH3 0x3C1B JUMP JUMPDEST SWAP3 POP POP DUP2 SWAP1 SSTORE POP POP POP POP DUP1 PUSH3 0x2347 SWAP1 PUSH3 0x3C47 JUMP JUMPDEST SWAP1 POP PUSH3 0x225D JUMP JUMPDEST POP DUP5 PUSH1 0x1 PUSH1 0x1 PUSH1 0xA0 SHL SUB AND DUP7 PUSH1 0x1 PUSH1 0x1 PUSH1 0xA0 SHL SUB AND DUP3 PUSH1 0x1 PUSH1 0x1 PUSH1 0xA0 SHL SUB AND PUSH32 0x4A39DC06D4C0DBC64B70AF90FD698A233A518AA5D07E595D983B8C0526C8F7FB DUP8 DUP8 PUSH1 0x40 MLOAD PUSH3 0x23A1 SWAP3 SWAP2 SWAP1 PUSH3 0x3F83 JUMP JUMPDEST PUSH1 0x40 MLOAD DUP1 SWAP2 SUB SWAP1 LOG4 PUSH3 0x23B9 DUP2 DUP8 DUP8 DUP8 DUP8 DUP8 PUSH3 0x3243 JUMP JUMPDEST POP POP POP POP POP POP JUMP JUMPDEST PUSH1 0x1 PUSH1 0x1 PUSH1 0xA0 SHL SUB DUP2 AND PUSH1 0x0 SWAP1 DUP2 MSTORE PUSH1 0xA PUSH1 0x20 MSTORE PUSH1 0x40 DUP2 KECCAK256 SLOAD PUSH3 0x2428 JUMPI PUSH1 0x40 MLOAD PUSH3 0x461BCD PUSH1 0xE5 SHL DUP2 MSTORE PUSH1 0x20 PUSH1 0x4 DUP3 ADD MSTORE PUSH1 0x1F PUSH1 0x24 DUP3 ADD MSTORE PUSH32 0x506F6F6C2077697468207468697320746F6B656E206D75737420657869737400 PUSH1 0x44 DUP3 ADD MSTORE PUSH1 0x64 ADD PUSH3 0x66B JUMP JUMPDEST PUSH1 0x0 PUSH1 0x1 PUSH1 0x1 PUSH1 0xA0 SHL SUB DUP4 AND PUSH3 0x2445 JUMPI PUSH3 0x1816 CALLVALUE SELFBALANCE PUSH3 0x3CD7 JUMP JUMPDEST PUSH1 0x40 MLOAD PUSH4 0x70A08231 PUSH1 0xE0 SHL DUP2 MSTORE ADDRESS PUSH1 0x4 DUP3 ADD MSTORE PUSH1 0x1 PUSH1 0x1 PUSH1 0xA0 SHL SUB DUP5 AND SWAP1 PUSH4 0x70A08231 SWAP1 PUSH1 0x24 ADD PUSH1 0x20 PUSH1 0x40 MLOAD DUP1 DUP4 SUB DUP2 DUP7 GAS STATICCALL ISZERO DUP1 ISZERO PUSH3 0x248A JUMPI RETURNDATASIZE PUSH1 0x0 DUP1 RETURNDATACOPY RETURNDATASIZE PUSH1 0x0 REVERT JUMPDEST POP POP POP POP PUSH1 0x40 MLOAD RETURNDATASIZE PUSH1 0x1F NOT PUSH1 0x1F DUP3 ADD AND DUP3 ADD DUP1 PUSH1 0x40 MSTORE POP DUP2 ADD SWAP1 PUSH3 0x1816 SWAP2 SWAP1 PUSH3 0x3FAC JUMP JUMPDEST PUSH1 0x1 PUSH1 0x1 PUSH1 0xA0 SHL SUB DUP4 AND PUSH3 0x2514 JUMPI PUSH1 0x40 MLOAD PUSH3 0x461BCD PUSH1 0xE5 SHL DUP2 MSTORE PUSH1 0x20 PUSH1 0x4 DUP3 ADD MSTORE PUSH1 0x23 PUSH1 0x24 DUP3 ADD MSTORE PUSH32 0x455243313135353A206275726E2066726F6D20746865207A65726F2061646472 PUSH1 0x44 DUP3 ADD MSTORE PUSH3 0x657373 PUSH1 0xE8 SHL PUSH1 0x64 DUP3 ADD MSTORE PUSH1 0x84 ADD PUSH3 0x66B JUMP JUMPDEST CALLER PUSH1 0x0 PUSH3 0x2522 DUP5 PUSH3 0x33B2 JUMP JUMPDEST SWAP1 POP PUSH1 0x0 PUSH3 0x2531 DUP5 PUSH3 0x33B2 JUMP JUMPDEST SWAP1 POP PUSH3 0x2553 DUP4 DUP8 PUSH1 0x0 DUP6 DUP6 PUSH1 0x40 MLOAD DUP1 PUSH1 0x20 ADD PUSH1 0x40 MSTORE DUP1 PUSH1 0x0 DUP2 MSTORE POP PUSH3 0x30B0 JUMP JUMPDEST PUSH1 0x0 DUP6 DUP2 MSTORE PUSH1 0x20 DUP2 DUP2 MSTORE PUSH1 0x40 DUP1 DUP4 KECCAK256 PUSH1 0x1 PUSH1 0x1 PUSH1 0xA0 SHL SUB DUP11 AND DUP5 MSTORE SWAP1 SWAP2 MSTORE SWAP1 KECCAK256 SLOAD DUP5 DUP2 LT ISZERO PUSH3 0x25D2 JUMPI PUSH1 0x40 MLOAD PUSH3 0x461BCD PUSH1 0xE5 SHL DUP2 MSTORE PUSH1 0x20 PUSH1 0x4 DUP3 ADD MSTORE PUSH1 0x24 DUP1 DUP3 ADD MSTORE PUSH32 0x455243313135353A206275726E20616D6F756E7420657863656564732062616C PUSH1 0x44 DUP3 ADD MSTORE PUSH4 0x616E6365 PUSH1 0xE0 SHL PUSH1 0x64 DUP3 ADD MSTORE PUSH1 0x84 ADD PUSH3 0x66B JUMP JUMPDEST PUSH1 0x0 DUP7 DUP2 MSTORE PUSH1 0x20 DUP2 DUP2 MSTORE PUSH1 0x40 DUP1 DUP4 KECCAK256 PUSH1 0x1 PUSH1 0x1 PUSH1 0xA0 SHL SUB DUP12 DUP2 AND DUP1 DUP7 MSTORE SWAP2 DUP5 MSTORE DUP3 DUP6 KECCAK256 DUP11 DUP8 SUB SWAP1 SSTORE DUP3 MLOAD DUP12 DUP2 MSTORE SWAP4 DUP5 ADD DUP11 SWAP1 MSTORE SWAP1 SWAP3 SWAP1 DUP9 AND SWAP2 PUSH32 0xC3D58168C5AE7397731D063D5BBF3D657854427343F4C083240F7AACAA2D0F62 SWAP2 ADD PUSH1 0x40 MLOAD DUP1 SWAP2 SUB SWAP1 LOG4 PUSH1 0x40 DUP1 MLOAD PUSH1 0x20 DUP2 ADD SWAP1 SWAP2 MSTORE PUSH1 0x0 SWAP1 MSTORE JUMPDEST POP POP POP POP POP POP POP JUMP JUMPDEST PUSH1 0x1 PUSH1 0x1 PUSH1 0xA0 SHL SUB DUP4 AND ISZERO PUSH3 0x26DB JUMPI PUSH1 0x40 MLOAD PUSH4 0xA9059CBB PUSH1 0xE0 SHL DUP2 MSTORE PUSH1 0x1 PUSH1 0x1 PUSH1 0xA0 SHL SUB DUP4 DUP2 AND PUSH1 0x4 DUP4 ADD MSTORE PUSH1 0x24 DUP3 ADD DUP4 SWAP1 MSTORE DUP5 AND SWAP1 PUSH4 0xA9059CBB SWAP1 PUSH1 0x44 ADD PUSH1 0x20 PUSH1 0x40 MLOAD DUP1 DUP4 SUB DUP2 PUSH1 0x0 DUP8 GAS CALL ISZERO DUP1 ISZERO PUSH3 0x26AF JUMPI RETURNDATASIZE PUSH1 0x0 DUP1 RETURNDATACOPY RETURNDATASIZE PUSH1 0x0 REVERT JUMPDEST POP POP POP POP PUSH1 0x40 MLOAD RETURNDATASIZE PUSH1 0x1F NOT PUSH1 0x1F DUP3 ADD AND DUP3 ADD DUP1 PUSH1 0x40 MSTORE POP DUP2 ADD SWAP1 PUSH3 0x26D5 SWAP2 SWAP1 PUSH3 0x3CED JUMP JUMPDEST POP POP POP POP JUMP JUMPDEST PUSH1 0x40 MLOAD PUSH1 0x1 PUSH1 0x1 PUSH1 0xA0 SHL SUB DUP4 AND SWAP1 DUP3 ISZERO PUSH2 0x8FC MUL SWAP1 DUP4 SWAP1 PUSH1 0x0 DUP2 DUP2 DUP2 DUP6 DUP9 DUP9 CALL SWAP4 POP POP POP POP ISZERO DUP1 ISZERO PUSH3 0x26D5 JUMPI RETURNDATASIZE PUSH1 0x0 DUP1 RETURNDATACOPY RETURNDATASIZE PUSH1 0x0 REVERT JUMPDEST PUSH1 0x0 DUP1 PUSH3 0x2724 PUSH1 0xF PUSH2 0x2710 PUSH3 0x3CD7 JUMP JUMPDEST PUSH3 0x2730 SWAP1 DUP5 PUSH3 0x3C9A JUMP JUMPDEST SWAP1 POP DUP1 PUSH3 0x2741 PUSH2 0x2710 DUP8 PUSH3 0x3C9A JUMP JUMPDEST PUSH3 0x274D SWAP2 SWAP1 PUSH3 0x3C1B JUMP JUMPDEST PUSH3 0x2759 DUP6 DUP4 PUSH3 0x3C9A JUMP JUMPDEST PUSH3 0x2765 SWAP2 SWAP1 PUSH3 0x3CB4 JUMP JUMPDEST SWAP6 SWAP5 POP POP POP POP POP JUMP JUMPDEST PUSH1 0x1 PUSH1 0x1 PUSH1 0xA0 SHL SUB DUP7 AND PUSH1 0x0 SWAP1 DUP2 MSTORE PUSH1 0xA PUSH1 0x20 MSTORE PUSH1 0x40 DUP2 KECCAK256 SLOAD PUSH1 0x9 DUP1 SLOAD SWAP2 SWAP3 SWAP2 DUP4 SWAP1 DUP2 LT PUSH3 0x27A1 JUMPI PUSH3 0x27A1 PUSH3 0x3C31 JUMP JUMPDEST SWAP1 PUSH1 0x0 MSTORE PUSH1 0x20 PUSH1 0x0 KECCAK256 SWAP1 PUSH1 0x2 MUL ADD SWAP1 POP PUSH1 0x0 DUP2 PUSH1 0x1 ADD SLOAD DUP9 PUSH3 0x27C5 SWAP2 SWAP1 PUSH3 0x3C9A JUMP JUMPDEST SWAP1 POP PUSH1 0x0 DUP6 PUSH3 0x27D6 DUP10 DUP12 PUSH3 0x3C1B JUMP JUMPDEST PUSH3 0x27E2 SWAP2 SWAP1 PUSH3 0x3CD7 JUMP JUMPDEST SWAP1 POP PUSH1 0x0 DUP6 DUP9 DUP6 PUSH1 0x1 ADD SLOAD PUSH3 0x27F9 SWAP2 SWAP1 PUSH3 0x3C1B JUMP JUMPDEST PUSH3 0x2805 SWAP2 SWAP1 PUSH3 0x3CD7 JUMP JUMPDEST SWAP1 POP PUSH1 0x0 PUSH2 0x2710 PUSH3 0x2819 PUSH1 0xF DUP12 PUSH3 0x3C9A JUMP JUMPDEST PUSH3 0x2825 SWAP2 SWAP1 PUSH3 0x3CB4 JUMP JUMPDEST PUSH3 0x2831 SWAP1 DUP4 PUSH3 0x3CD7 JUMP JUMPDEST PUSH2 0x2710 PUSH3 0x2841 PUSH1 0xF DUP14 PUSH3 0x3C9A JUMP JUMPDEST PUSH3 0x284D SWAP2 SWAP1 PUSH3 0x3CB4 JUMP JUMPDEST PUSH3 0x2859 SWAP1 DUP6 PUSH3 0x3CD7 JUMP JUMPDEST PUSH3 0x2865 SWAP2 SWAP1 PUSH3 0x3C9A JUMP JUMPDEST SWAP1 POP DUP4 DUP2 LT ISZERO PUSH3 0x28DF JUMPI PUSH1 0x40 MLOAD PUSH3 0x461BCD PUSH1 0xE5 SHL DUP2 MSTORE PUSH1 0x20 PUSH1 0x4 DUP3 ADD MSTORE PUSH1 0x39 PUSH1 0x24 DUP3 ADD MSTORE PUSH32 0x4B2076616C7565206D75737420696E637265617365206F722072656D61696E20 PUSH1 0x44 DUP3 ADD MSTORE PUSH32 0x756E6368616E67656420647572696E6720616E79207377617000000000000000 PUSH1 0x64 DUP3 ADD MSTORE PUSH1 0x84 ADD PUSH3 0x66B JUMP JUMPDEST PUSH1 0x1 DUP6 ADD DUP3 SWAP1 SSTORE PUSH1 0x40 DUP1 MLOAD DUP12 DUP2 MSTORE PUSH1 0x20 DUP2 ADD DUP12 SWAP1 MSTORE SWAP1 DUP2 ADD DUP10 SWAP1 MSTORE PUSH1 0x60 DUP2 ADD DUP9 SWAP1 MSTORE PUSH1 0x1 PUSH1 0x1 PUSH1 0xA0 SHL SUB DUP14 AND SWAP1 PUSH32 0x49926BBEBE8474393F434DFA4F78694C0923EFA07D19F2284518BFABD06EB737 SWAP1 PUSH1 0x80 ADD PUSH1 0x40 MLOAD DUP1 SWAP2 SUB SWAP1 LOG2 PUSH1 0x40 DUP1 MLOAD DUP5 DUP2 MSTORE PUSH1 0x20 DUP2 ADD DUP5 SWAP1 MSTORE PUSH1 0x1 PUSH1 0x1 PUSH1 0xA0 SHL SUB DUP15 AND SWAP2 PUSH32 0xF10FC780C78F994A214C79A2AE8D8B7BFE7CC3F0F935A8F05A29525E71D7F127 SWAP2 ADD PUSH1 0x40 MLOAD DUP1 SWAP2 SUB SWAP1 LOG2 POP POP POP POP POP POP POP POP POP POP POP POP JUMP JUMPDEST PUSH1 0x1 PUSH1 0x1 PUSH1 0xA0 SHL SUB DUP3 AND ISZERO PUSH3 0x2BC2 JUMPI PUSH1 0x40 MLOAD PUSH4 0x70A08231 PUSH1 0xE0 SHL DUP2 MSTORE ADDRESS PUSH1 0x4 DUP3 ADD MSTORE PUSH1 0x0 SWAP1 PUSH1 0x1 PUSH1 0x1 PUSH1 0xA0 SHL SUB DUP5 AND SWAP1 PUSH4 0x70A08231 SWAP1 PUSH1 0x24 ADD PUSH1 0x20 PUSH1 0x40 MLOAD DUP1 DUP4 SUB DUP2 DUP7 GAS STATICCALL ISZERO DUP1 ISZERO PUSH3 0x29E3 JUMPI RETURNDATASIZE PUSH1 0x0 DUP1 RETURNDATACOPY RETURNDATASIZE PUSH1 0x0 REVERT JUMPDEST POP POP POP POP PUSH1 0x40 MLOAD RETURNDATASIZE PUSH1 0x1F NOT PUSH1 0x1F DUP3 ADD AND DUP3 ADD DUP1 PUSH1 0x40 MSTORE POP DUP2 ADD SWAP1 PUSH3 0x2A09 SWAP2 SWAP1 PUSH3 0x3FAC JUMP JUMPDEST PUSH1 0x40 MLOAD PUSH4 0x23B872DD PUSH1 0xE0 SHL DUP2 MSTORE SWAP1 SWAP2 POP PUSH1 0x1 PUSH1 0x1 PUSH1 0xA0 SHL SUB DUP5 AND SWAP1 PUSH4 0x23B872DD SWAP1 PUSH3 0x2A3E SWAP1 CALLER SWAP1 ADDRESS SWAP1 DUP8 SWAP1 PUSH1 0x4 ADD PUSH3 0x3DA2 JUMP JUMPDEST PUSH1 0x20 PUSH1 0x40 MLOAD DUP1 DUP4 SUB DUP2 PUSH1 0x0 DUP8 GAS CALL ISZERO DUP1 ISZERO PUSH3 0x2A5E JUMPI RETURNDATASIZE PUSH1 0x0 DUP1 RETURNDATACOPY RETURNDATASIZE PUSH1 0x0 REVERT JUMPDEST POP POP POP POP PUSH1 0x40 MLOAD RETURNDATASIZE PUSH1 0x1F NOT PUSH1 0x1F DUP3 ADD AND DUP3 ADD DUP1 PUSH1 0x40 MSTORE POP DUP2 ADD SWAP1 PUSH3 0x2A84 SWAP2 SWAP1 PUSH3 0x3CED JUMP JUMPDEST POP PUSH1 0x40 MLOAD PUSH4 0x70A08231 PUSH1 0xE0 SHL DUP2 MSTORE ADDRESS PUSH1 0x4 DUP3 ADD MSTORE PUSH1 0x0 SWAP1 PUSH1 0x1 PUSH1 0x1 PUSH1 0xA0 SHL SUB DUP6 AND SWAP1 PUSH4 0x70A08231 SWAP1 PUSH1 0x24 ADD PUSH1 0x20 PUSH1 0x40 MLOAD DUP1 DUP4 SUB DUP2 DUP7 GAS STATICCALL ISZERO DUP1 ISZERO PUSH3 0x2ACD JUMPI RETURNDATASIZE PUSH1 0x0 DUP1 RETURNDATACOPY RETURNDATASIZE PUSH1 0x0 REVERT JUMPDEST POP POP POP POP PUSH1 0x40 MLOAD RETURNDATASIZE PUSH1 0x1F NOT PUSH1 0x1F DUP3 ADD AND DUP3 ADD DUP1 PUSH1 0x40 MSTORE POP DUP2 ADD SWAP1 PUSH3 0x2AF3 SWAP2 SWAP1 PUSH3 0x3FAC JUMP JUMPDEST SWAP1 POP PUSH1 0x0 PUSH3 0x2B03 DUP4 DUP4 PUSH3 0x3CD7 JUMP JUMPDEST SWAP1 POP DUP4 DUP2 EQ PUSH3 0x2B66 JUMPI PUSH1 0x40 MLOAD PUSH3 0x461BCD PUSH1 0xE5 SHL DUP2 MSTORE PUSH1 0x20 PUSH1 0x4 DUP3 ADD MSTORE PUSH1 0x27 PUSH1 0x24 DUP3 ADD MSTORE PUSH32 0x466565206F6E207472616E7366657220746F6B656E73206172656E2774207375 PUSH1 0x44 DUP3 ADD MSTORE PUSH7 0x1C1C1BDC9D1959 PUSH1 0xCA SHL PUSH1 0x64 DUP3 ADD MSTORE PUSH1 0x84 ADD PUSH3 0x66B JUMP JUMPDEST CALLVALUE ISZERO PUSH3 0x8BD JUMPI PUSH1 0x40 MLOAD PUSH3 0x461BCD PUSH1 0xE5 SHL DUP2 MSTORE PUSH1 0x20 PUSH1 0x4 DUP3 ADD MSTORE PUSH1 0x24 DUP1 DUP3 ADD MSTORE PUSH32 0x55736572206D7573746E27742073656E64206E617469766520746F6B656E7320 PUSH1 0x44 DUP3 ADD MSTORE PUSH4 0x68657265 PUSH1 0xE0 SHL PUSH1 0x64 DUP3 ADD MSTORE PUSH1 0x84 ADD PUSH3 0x66B JUMP JUMPDEST CALLVALUE DUP2 GT ISZERO PUSH3 0x2C2E JUMPI PUSH1 0x40 MLOAD PUSH3 0x461BCD PUSH1 0xE5 SHL DUP2 MSTORE PUSH1 0x20 PUSH1 0x4 DUP3 ADD MSTORE PUSH1 0x31 PUSH1 0x24 DUP3 ADD MSTORE PUSH32 0x55736572206D7573742070726F7669646520636F727265637420616D6F756E74 PUSH1 0x44 DUP3 ADD MSTORE PUSH17 0x206F66206E617469766520746F6B656E73 PUSH1 0x78 SHL PUSH1 0x64 DUP3 ADD MSTORE PUSH1 0x84 ADD PUSH3 0x66B JUMP JUMPDEST CALLVALUE DUP2 LT ISZERO PUSH3 0x13F8 JUMPI CALLER PUSH2 0x8FC PUSH3 0x2C47 DUP4 CALLVALUE PUSH3 0x3CD7 JUMP JUMPDEST PUSH1 0x40 MLOAD DUP2 ISZERO SWAP1 SWAP3 MUL SWAP2 PUSH1 0x0 DUP2 DUP2 DUP2 DUP6 DUP9 DUP9 CALL SWAP4 POP POP POP POP ISZERO DUP1 ISZERO PUSH3 0x1676 JUMPI RETURNDATASIZE PUSH1 0x0 DUP1 RETURNDATACOPY RETURNDATASIZE PUSH1 0x0 REVERT JUMPDEST DUP2 PUSH1 0x1 PUSH1 0x1 PUSH1 0xA0 SHL SUB AND DUP4 PUSH1 0x1 PUSH1 0x1 PUSH1 0xA0 SHL SUB AND SUB PUSH3 0x2CE5 JUMPI PUSH1 0x40 MLOAD PUSH3 0x461BCD PUSH1 0xE5 SHL DUP2 MSTORE PUSH1 0x20 PUSH1 0x4 DUP3 ADD MSTORE PUSH1 0x29 PUSH1 0x24 DUP3 ADD MSTORE PUSH32 0x455243313135353A2073657474696E6720617070726F76616C20737461747573 PUSH1 0x44 DUP3 ADD MSTORE PUSH9 0x103337B91039B2B633 PUSH1 0xB9 SHL PUSH1 0x64 DUP3 ADD MSTORE PUSH1 0x84 ADD PUSH3 0x66B JUMP JUMPDEST PUSH1 0x1 PUSH1 0x1 PUSH1 0xA0 SHL SUB DUP4 DUP2 AND PUSH1 0x0 DUP2 DUP2 MSTORE PUSH1 0x1 PUSH1 0x20 SWAP1 DUP2 MSTORE PUSH1 0x40 DUP1 DUP4 KECCAK256 SWAP5 DUP8 AND DUP1 DUP5 MSTORE SWAP5 DUP3 MSTORE SWAP2 DUP3 SWAP1 KECCAK256 DUP1 SLOAD PUSH1 0xFF NOT AND DUP7 ISZERO ISZERO SWAP1 DUP2 OR SWAP1 SWAP2 SSTORE SWAP2 MLOAD SWAP2 DUP3 MSTORE PUSH32 0x17307EAB39AB6107E8899845AD3D59BD9653F200F220920489CA2B5937696C31 SWAP2 ADD PUSH1 0x40 MLOAD DUP1 SWAP2 SUB SWAP1 LOG3 POP POP POP JUMP JUMPDEST PUSH1 0x0 PUSH3 0x2D60 DUP3 DUP5 PUSH3 0x3CD7 JUMP JUMPDEST PUSH3 0x2D6F PUSH1 0xF PUSH2 0x2710 PUSH3 0x3CD7 JUMP JUMPDEST PUSH3 0x2D7B SWAP2 SWAP1 PUSH3 0x3C9A JUMP JUMPDEST PUSH2 0x2710 PUSH3 0x2D8A DUP5 DUP8 PUSH3 0x3C9A JUMP JUMPDEST PUSH3 0x2D96 SWAP2 SWAP1 PUSH3 0x3C9A JUMP JUMPDEST PUSH3 0x2DA2 SWAP2 SWAP1 PUSH3 0x3CB4 JUMP JUMPDEST PUSH3 0x2DAF SWAP1 PUSH1 0x1 PUSH3 0x3C1B JUMP JUMPDEST SWAP5 SWAP4 POP POP POP POP JUMP JUMPDEST PUSH1 0x1 PUSH1 0x1 PUSH1 0xA0 SHL SUB DUP5 AND PUSH3 0x2DE0 JUMPI PUSH1 0x40 MLOAD PUSH3 0x461BCD PUSH1 0xE5 SHL DUP2 MSTORE PUSH1 0x4 ADD PUSH3 0x66B SWAP1 PUSH3 0x3EF4 JUMP JUMPDEST CALLER PUSH1 0x0 PUSH3 0x2DEE DUP6 PUSH3 0x33B2 JUMP JUMPDEST SWAP1 POP PUSH1 0x0 PUSH3 0x2DFD DUP6 PUSH3 0x33B2 JUMP JUMPDEST SWAP1 POP PUSH3 0x2E0F DUP4 DUP10 DUP10 DUP6 DUP6 DUP10 PUSH3 0x30B0 JUMP JUMPDEST PUSH1 0x0 DUP7 DUP2 MSTORE PUSH1 0x20 DUP2 DUP2 MSTORE PUSH1 0x40 DUP1 DUP4 KECCAK256 PUSH1 0x1 PUSH1 0x1 PUSH1 0xA0 SHL SUB DUP13 AND DUP5 MSTORE SWAP1 SWAP2 MSTORE SWAP1 KECCAK256 SLOAD DUP6 DUP2 LT ISZERO PUSH3 0x2E53 JUMPI PUSH1 0x40 MLOAD PUSH3 0x461BCD PUSH1 0xE5 SHL DUP2 MSTORE PUSH1 0x4 ADD PUSH3 0x66B SWAP1 PUSH3 0x3F39 JUMP JUMPDEST PUSH1 0x0 DUP8 DUP2 MSTORE PUSH1 0x20 DUP2 DUP2 MSTORE PUSH1 0x40 DUP1 DUP4 KECCAK256 PUSH1 0x1 PUSH1 0x1 PUSH1 0xA0 SHL SUB DUP14 DUP2 AND DUP6 MSTORE SWAP3 MSTORE DUP1 DUP4 KECCAK256 DUP10 DUP6 SUB SWAP1 SSTORE SWAP1 DUP11 AND DUP3 MSTORE DUP2 KECCAK256 DUP1 SLOAD DUP9 SWAP3 SWAP1 PUSH3 0x2E92 SWAP1 DUP5 SWAP1 PUSH3 0x3C1B JUMP JUMPDEST SWAP1 SWAP2 SSTORE POP POP PUSH1 0x40 DUP1 MLOAD DUP9 DUP2 MSTORE PUSH1 0x20 DUP2 ADD DUP9 SWAP1 MSTORE PUSH1 0x1 PUSH1 0x1 PUSH1 0xA0 SHL SUB DUP1 DUP12 AND SWAP3 DUP13 DUP3 AND SWAP3 SWAP2 DUP9 AND SWAP2 PUSH32 0xC3D58168C5AE7397731D063D5BBF3D657854427343F4C083240F7AACAA2D0F62 SWAP2 ADD PUSH1 0x40 MLOAD DUP1 SWAP2 SUB SWAP1 LOG4 PUSH3 0x2EF4 DUP5 DUP11 DUP11 DUP11 DUP11 DUP11 PUSH3 0x3400 JUMP JUMPDEST POP POP POP POP POP POP POP POP POP JUMP JUMPDEST PUSH1 0x1 PUSH1 0x1 PUSH1 0xA0 SHL SUB DUP5 AND PUSH3 0x2F61 JUMPI PUSH1 0x40 MLOAD PUSH3 0x461BCD PUSH1 0xE5 SHL DUP2 MSTORE PUSH1 0x20 PUSH1 0x4 DUP3 ADD MSTORE PUSH1 0x21 PUSH1 0x24 DUP3 ADD MSTORE PUSH32 0x455243313135353A206D696E7420746F20746865207A65726F20616464726573 PUSH1 0x44 DUP3 ADD MSTORE PUSH1 0x73 PUSH1 0xF8 SHL PUSH1 0x64 DUP3 ADD MSTORE PUSH1 0x84 ADD PUSH3 0x66B JUMP JUMPDEST CALLER PUSH1 0x0 PUSH3 0x2F6F DUP6 PUSH3 0x33B2 JUMP JUMPDEST SWAP1 POP PUSH1 0x0 PUSH3 0x2F7E DUP6 PUSH3 0x33B2 JUMP JUMPDEST SWAP1 POP PUSH3 0x2F91 DUP4 PUSH1 0x0 DUP10 DUP6 DUP6 DUP10 PUSH3 0x30B0 JUMP JUMPDEST PUSH1 0x0 DUP7 DUP2 MSTORE PUSH1 0x20 DUP2 DUP2 MSTORE PUSH1 0x40 DUP1 DUP4 KECCAK256 PUSH1 0x1 PUSH1 0x1 PUSH1 0xA0 SHL SUB DUP12 AND DUP5 MSTORE SWAP1 SWAP2 MSTORE DUP2 KECCAK256 DUP1 SLOAD DUP8 SWAP3 SWAP1 PUSH3 0x2FC3 SWAP1 DUP5 SWAP1 PUSH3 0x3C1B JUMP JUMPDEST SWAP1 SWAP2 SSTORE POP POP PUSH1 0x40 DUP1 MLOAD DUP8 DUP2 MSTORE PUSH1 0x20 DUP2 ADD DUP8 SWAP1 MSTORE PUSH1 0x1 PUSH1 0x1 PUSH1 0xA0 SHL SUB DUP1 DUP11 AND SWAP3 PUSH1 0x0 SWAP3 SWAP2 DUP8 AND SWAP2 PUSH32 0xC3D58168C5AE7397731D063D5BBF3D657854427343F4C083240F7AACAA2D0F62 SWAP2 ADD PUSH1 0x40 MLOAD DUP1 SWAP2 SUB SWAP1 LOG4 PUSH3 0x2646 DUP4 PUSH1 0x0 DUP10 DUP10 DUP10 DUP10 PUSH3 0x3400 JUMP JUMPDEST PUSH1 0x0 PUSH1 0x3 DUP3 GT ISZERO PUSH3 0x308D JUMPI POP DUP1 PUSH1 0x0 PUSH3 0x3042 PUSH1 0x2 DUP4 PUSH3 0x3CB4 JUMP JUMPDEST PUSH3 0x304F SWAP1 PUSH1 0x1 PUSH3 0x3C1B JUMP JUMPDEST SWAP1 POP JUMPDEST DUP2 DUP2 LT ISZERO PUSH3 0xA3B JUMPI SWAP1 POP DUP1 PUSH1 0x2 DUP2 PUSH3 0x306D DUP2 DUP7 PUSH3 0x3CB4 JUMP JUMPDEST PUSH3 0x3079 SWAP2 SWAP1 PUSH3 0x3C1B JUMP JUMPDEST PUSH3 0x3085 SWAP2 SWAP1 PUSH3 0x3CB4 JUMP JUMPDEST SWAP1 POP PUSH3 0x3052 JUMP JUMPDEST DUP2 ISZERO PUSH3 0x3098 JUMPI POP PUSH1 0x1 JUMPDEST SWAP2 SWAP1 POP JUMP JUMPDEST PUSH1 0x0 DUP2 DUP4 LT ISZERO PUSH3 0xA3B JUMPI POP DUP2 PUSH3 0x697 JUMP JUMPDEST PUSH1 0x1 PUSH1 0x1 PUSH1 0xA0 SHL SUB DUP6 AND PUSH3 0x3144 JUMPI PUSH1 0x0 JUMPDEST DUP4 MLOAD DUP2 LT ISZERO PUSH3 0x3142 JUMPI DUP3 DUP2 DUP2 MLOAD DUP2 LT PUSH3 0x30E1 JUMPI PUSH3 0x30E1 PUSH3 0x3C31 JUMP JUMPDEST PUSH1 0x20 MUL PUSH1 0x20 ADD ADD MLOAD PUSH1 0x3 PUSH1 0x0 DUP7 DUP5 DUP2 MLOAD DUP2 LT PUSH3 0x3102 JUMPI PUSH3 0x3102 PUSH3 0x3C31 JUMP JUMPDEST PUSH1 0x20 MUL PUSH1 0x20 ADD ADD MLOAD DUP2 MSTORE PUSH1 0x20 ADD SWAP1 DUP2 MSTORE PUSH1 0x20 ADD PUSH1 0x0 KECCAK256 PUSH1 0x0 DUP3 DUP3 SLOAD PUSH3 0x3129 SWAP2 SWAP1 PUSH3 0x3C1B JUMP JUMPDEST SWAP1 SWAP2 SSTORE POP PUSH3 0x313A SWAP1 POP DUP2 PUSH3 0x3C47 JUMP JUMPDEST SWAP1 POP PUSH3 0x30C2 JUMP JUMPDEST POP JUMPDEST PUSH1 0x1 PUSH1 0x1 PUSH1 0xA0 SHL SUB DUP5 AND PUSH3 0x23B9 JUMPI PUSH1 0x0 JUMPDEST DUP4 MLOAD DUP2 LT ISZERO PUSH3 0x2646 JUMPI PUSH1 0x0 DUP5 DUP3 DUP2 MLOAD DUP2 LT PUSH3 0x3177 JUMPI PUSH3 0x3177 PUSH3 0x3C31 JUMP JUMPDEST PUSH1 0x20 MUL PUSH1 0x20 ADD ADD MLOAD SWAP1 POP PUSH1 0x0 DUP5 DUP4 DUP2 MLOAD DUP2 LT PUSH3 0x3198 JUMPI PUSH3 0x3198 PUSH3 0x3C31 JUMP JUMPDEST PUSH1 0x20 MUL PUSH1 0x20 ADD ADD MLOAD SWAP1 POP PUSH1 0x0 PUSH1 0x3 PUSH1 0x0 DUP5 DUP2 MSTORE PUSH1 0x20 ADD SWAP1 DUP2 MSTORE PUSH1 0x20 ADD PUSH1 0x0 KECCAK256 SLOAD SWAP1 POP DUP2 DUP2 LT ISZERO PUSH3 0x321D JUMPI PUSH1 0x40 MLOAD PUSH3 0x461BCD PUSH1 0xE5 SHL DUP2 MSTORE PUSH1 0x20 PUSH1 0x4 DUP3 ADD MSTORE PUSH1 0x28 PUSH1 0x24 DUP3 ADD MSTORE PUSH32 0x455243313135353A206275726E20616D6F756E74206578636565647320746F74 PUSH1 0x44 DUP3 ADD MSTORE PUSH8 0x616C537570706C79 PUSH1 0xC0 SHL PUSH1 0x64 DUP3 ADD MSTORE PUSH1 0x84 ADD PUSH3 0x66B JUMP JUMPDEST PUSH1 0x0 SWAP3 DUP4 MSTORE PUSH1 0x3 PUSH1 0x20 MSTORE PUSH1 0x40 SWAP1 SWAP3 KECCAK256 SWAP2 SUB SWAP1 SSTORE PUSH3 0x323B DUP2 PUSH3 0x3C47 JUMP JUMPDEST SWAP1 POP PUSH3 0x3156 JUMP JUMPDEST PUSH1 0x1 PUSH1 0x1 PUSH1 0xA0 SHL SUB DUP5 AND EXTCODESIZE ISZERO PUSH3 0x23B9 JUMPI PUSH1 0x40 MLOAD PUSH4 0xBC197C81 PUSH1 0xE0 SHL DUP2 MSTORE PUSH1 0x1 PUSH1 0x1 PUSH1 0xA0 SHL SUB DUP6 AND SWAP1 PUSH4 0xBC197C81 SWAP1 PUSH3 0x328A SWAP1 DUP10 SWAP1 DUP10 SWAP1 DUP9 SWAP1 DUP9 SWAP1 DUP9 SWAP1 PUSH1 0x4 ADD PUSH3 0x3FC6 JUMP JUMPDEST PUSH1 0x20 PUSH1 0x40 MLOAD DUP1 DUP4 SUB DUP2 PUSH1 0x0 DUP8 GAS CALL SWAP3 POP POP POP DUP1 ISZERO PUSH3 0x32C8 JUMPI POP PUSH1 0x40 DUP1 MLOAD PUSH1 0x1F RETURNDATASIZE SWAP1 DUP2 ADD PUSH1 0x1F NOT AND DUP3 ADD SWAP1 SWAP3 MSTORE PUSH3 0x32C5 SWAP2 DUP2 ADD SWAP1 PUSH3 0x402A JUMP JUMPDEST PUSH1 0x1 JUMPDEST PUSH3 0x337F JUMPI PUSH3 0x32D7 PUSH3 0x404A JUMP JUMPDEST DUP1 PUSH4 0x8C379A0 SUB PUSH3 0x3317 JUMPI POP PUSH3 0x32EE PUSH3 0x4067 JUMP JUMPDEST DUP1 PUSH3 0x32FB JUMPI POP PUSH3 0x3319 JUMP JUMPDEST DUP1 PUSH1 0x40 MLOAD PUSH3 0x461BCD PUSH1 0xE5 SHL DUP2 MSTORE PUSH1 0x4 ADD PUSH3 0x66B SWAP2 SWAP1 PUSH3 0x3599 JUMP JUMPDEST POP JUMPDEST PUSH1 0x40 MLOAD PUSH3 0x461BCD PUSH1 0xE5 SHL DUP2 MSTORE PUSH1 0x20 PUSH1 0x4 DUP3 ADD MSTORE PUSH1 0x34 PUSH1 0x24 DUP3 ADD MSTORE PUSH32 0x455243313135353A207472616E7366657220746F206E6F6E2045524331313535 PUSH1 0x44 DUP3 ADD MSTORE PUSH20 0x2932B1B2B4BB32B91034B6B83632B6B2B73A32B9 PUSH1 0x61 SHL PUSH1 0x64 DUP3 ADD MSTORE PUSH1 0x84 ADD PUSH3 0x66B JUMP JUMPDEST PUSH1 0x1 PUSH1 0x1 PUSH1 0xE0 SHL SUB NOT DUP2 AND PUSH4 0xBC197C81 PUSH1 0xE0 SHL EQ PUSH3 0x2646 JUMPI PUSH1 0x40 MLOAD PUSH3 0x461BCD PUSH1 0xE5 SHL DUP2 MSTORE PUSH1 0x4 ADD PUSH3 0x66B SWAP1 PUSH3 0x40F7 JUMP JUMPDEST PUSH1 0x40 DUP1 MLOAD PUSH1 0x1 DUP1 DUP3 MSTORE DUP2 DUP4 ADD SWAP1 SWAP3 MSTORE PUSH1 0x60 SWAP2 PUSH1 0x0 SWAP2 SWAP1 PUSH1 0x20 DUP1 DUP4 ADD SWAP1 DUP1 CALLDATASIZE DUP4 CALLDATACOPY ADD SWAP1 POP POP SWAP1 POP DUP3 DUP2 PUSH1 0x0 DUP2 MLOAD DUP2 LT PUSH3 0x33EF JUMPI PUSH3 0x33EF PUSH3 0x3C31 JUMP JUMPDEST PUSH1 0x20 SWAP1 DUP2 MUL SWAP2 SWAP1 SWAP2 ADD ADD MSTORE SWAP3 SWAP2 POP POP JUMP JUMPDEST PUSH1 0x1 PUSH1 0x1 PUSH1 0xA0 SHL SUB DUP5 AND EXTCODESIZE ISZERO PUSH3 0x23B9 JUMPI PUSH1 0x40 MLOAD PUSH4 0xF23A6E61 PUSH1 0xE0 SHL DUP2 MSTORE PUSH1 0x1 PUSH1 0x1 PUSH1 0xA0 SHL SUB DUP6 AND SWAP1 PUSH4 0xF23A6E61 SWAP1 PUSH3 0x3447 SWAP1 DUP10 SWAP1 DUP10 SWAP1 DUP9 SWAP1 DUP9 SWAP1 DUP9 SWAP1 PUSH1 0x4 ADD PUSH3 0x413F JUMP JUMPDEST PUSH1 0x20 PUSH1 0x40 MLOAD DUP1 DUP4 SUB DUP2 PUSH1 0x0 DUP8 GAS CALL SWAP3 POP POP POP DUP1 ISZERO PUSH3 0x3485 JUMPI POP PUSH1 0x40 DUP1 MLOAD PUSH1 0x1F RETURNDATASIZE SWAP1 DUP2 ADD PUSH1 0x1F NOT AND DUP3 ADD SWAP1 SWAP3 MSTORE PUSH3 0x3482 SWAP2 DUP2 ADD SWAP1 PUSH3 0x402A JUMP JUMPDEST PUSH1 0x1 JUMPDEST PUSH3 0x3494 JUMPI PUSH3 0x32D7 PUSH3 0x404A JUMP JUMPDEST PUSH1 0x1 PUSH1 0x1 PUSH1 0xE0 SHL SUB NOT DUP2 AND PUSH4 0xF23A6E61 PUSH1 0xE0 SHL EQ PUSH3 0x2646 JUMPI PUSH1 0x40 MLOAD PUSH3 0x461BCD PUSH1 0xE5 SHL DUP2 MSTORE PUSH1 0x4 ADD PUSH3 0x66B SWAP1 PUSH3 0x40F7 JUMP JUMPDEST PUSH2 0xF2A DUP1 PUSH3 0x4187 DUP4 CODECOPY ADD SWAP1 JUMP JUMPDEST PUSH1 0x1 PUSH1 0x1 PUSH1 0xA0 SHL SUB DUP2 AND DUP2 EQ PUSH3 0x11AC JUMPI PUSH1 0x0 DUP1 REVERT JUMPDEST PUSH1 0x0 DUP1 PUSH1 0x40 DUP4 DUP6 SUB SLT ISZERO PUSH3 0x34FF JUMPI PUSH1 0x0 DUP1 REVERT JUMPDEST DUP3 CALLDATALOAD PUSH3 0x350C DUP2 PUSH3 0x34D5 JUMP JUMPDEST SWAP5 PUSH1 0x20 SWAP4 SWAP1 SWAP4 ADD CALLDATALOAD SWAP4 POP POP POP JUMP JUMPDEST PUSH1 0x1 PUSH1 0x1 PUSH1 0xE0 SHL SUB NOT DUP2 AND DUP2 EQ PUSH3 0x11AC JUMPI PUSH1 0x0 DUP1 REVERT JUMPDEST PUSH1 0x0 PUSH1 0x20 DUP3 DUP5 SUB SLT ISZERO PUSH3 0x3544 JUMPI PUSH1 0x0 DUP1 REVERT JUMPDEST DUP2 CALLDATALOAD PUSH3 0x1816 DUP2 PUSH3 0x351A JUMP JUMPDEST PUSH1 0x0 DUP2 MLOAD DUP1 DUP5 MSTORE PUSH1 0x0 JUMPDEST DUP2 DUP2 LT ISZERO PUSH3 0x3579 JUMPI PUSH1 0x20 DUP2 DUP6 ADD DUP2 ADD MLOAD DUP7 DUP4 ADD DUP3 ADD MSTORE ADD PUSH3 0x355B JUMP JUMPDEST POP PUSH1 0x0 PUSH1 0x20 DUP3 DUP7 ADD ADD MSTORE PUSH1 0x20 PUSH1 0x1F NOT PUSH1 0x1F DUP4 ADD AND DUP6 ADD ADD SWAP2 POP POP SWAP3 SWAP2 POP POP JUMP JUMPDEST PUSH1 0x20 DUP2 MSTORE PUSH1 0x0 PUSH3 0x1816 PUSH1 0x20 DUP4 ADD DUP5 PUSH3 0x3551 JUMP JUMPDEST PUSH1 0x0 PUSH1 0x20 DUP3 DUP5 SUB SLT ISZERO PUSH3 0x35C1 JUMPI PUSH1 0x0 DUP1 REVERT JUMPDEST POP CALLDATALOAD SWAP2 SWAP1 POP JUMP JUMPDEST PUSH4 0x4E487B71 PUSH1 0xE0 SHL PUSH1 0x0 MSTORE PUSH1 0x41 PUSH1 0x4 MSTORE PUSH1 0x24 PUSH1 0x0 REVERT JUMPDEST PUSH1 0x1F DUP3 ADD PUSH1 0x1F NOT AND DUP2 ADD PUSH8 0xFFFFFFFFFFFFFFFF DUP2 GT DUP3 DUP3 LT OR ISZERO PUSH3 0x3607 JUMPI PUSH3 0x3607 PUSH3 0x35C8 JUMP JUMPDEST PUSH1 0x40 MSTORE POP POP JUMP JUMPDEST PUSH1 0x0 PUSH8 0xFFFFFFFFFFFFFFFF DUP3 GT ISZERO PUSH3 0x362B JUMPI PUSH3 0x362B PUSH3 0x35C8 JUMP JUMPDEST POP PUSH1 0x5 SHL PUSH1 0x20 ADD SWAP1 JUMP JUMPDEST PUSH1 0x0 DUP3 PUSH1 0x1F DUP4 ADD SLT PUSH3 0x3647 JUMPI PUSH1 0x0 DUP1 REVERT JUMPDEST DUP2 CALLDATALOAD PUSH1 0x20 PUSH3 0x3656 DUP3 PUSH3 0x360E JUMP JUMPDEST PUSH1 0x40 MLOAD PUSH3 0x3665 DUP3 DUP3 PUSH3 0x35DE JUMP JUMPDEST DUP4 DUP2 MSTORE PUSH1 0x5 SWAP4 SWAP1 SWAP4 SHL DUP6 ADD DUP3 ADD SWAP3 DUP3 DUP2 ADD SWAP2 POP DUP7 DUP5 GT ISZERO PUSH3 0x3686 JUMPI PUSH1 0x0 DUP1 REVERT JUMPDEST DUP3 DUP7 ADD JUMPDEST DUP5 DUP2 LT ISZERO PUSH3 0x36A3 JUMPI DUP1 CALLDATALOAD DUP4 MSTORE SWAP2 DUP4 ADD SWAP2 DUP4 ADD PUSH3 0x368A JUMP JUMPDEST POP SWAP7 SWAP6 POP POP POP POP POP POP JUMP JUMPDEST PUSH1 0x0 DUP3 PUSH1 0x1F DUP4 ADD SLT PUSH3 0x36C0 JUMPI PUSH1 0x0 DUP1 REVERT JUMPDEST DUP2 CALLDATALOAD PUSH8 0xFFFFFFFFFFFFFFFF DUP2 GT ISZERO PUSH3 0x36DD JUMPI PUSH3 0x36DD PUSH3 0x35C8 JUMP JUMPDEST PUSH1 0x40 MLOAD PUSH3 0x36F6 PUSH1 0x1F DUP4 ADD PUSH1 0x1F NOT AND PUSH1 0x20 ADD DUP3 PUSH3 0x35DE JUMP JUMPDEST DUP2 DUP2 MSTORE DUP5 PUSH1 0x20 DUP4 DUP7 ADD ADD GT ISZERO PUSH3 0x370C JUMPI PUSH1 0x0 DUP1 REVERT JUMPDEST DUP2 PUSH1 0x20 DUP6 ADD PUSH1 0x20 DUP4 ADD CALLDATACOPY PUSH1 0x0 SWAP2 DUP2 ADD PUSH1 0x20 ADD SWAP2 SWAP1 SWAP2 MSTORE SWAP4 SWAP3 POP POP POP JUMP JUMPDEST PUSH1 0x0 DUP1 PUSH1 0x0 DUP1 PUSH1 0x0 PUSH1 0xA0 DUP7 DUP9 SUB SLT ISZERO PUSH3 0x3742 JUMPI PUSH1 0x0 DUP1 REVERT JUMPDEST DUP6 CALLDATALOAD PUSH3 0x374F DUP2 PUSH3 0x34D5 JUMP JUMPDEST SWAP5 POP PUSH1 0x20 DUP7 ADD CALLDATALOAD PUSH3 0x3761 DUP2 PUSH3 0x34D5 JUMP JUMPDEST SWAP4 POP PUSH1 0x40 DUP7 ADD CALLDATALOAD PUSH8 0xFFFFFFFFFFFFFFFF DUP1 DUP3 GT ISZERO PUSH3 0x377F JUMPI PUSH1 0x0 DUP1 REVERT JUMPDEST PUSH3 0x378D DUP10 DUP4 DUP11 ADD PUSH3 0x3635 JUMP JUMPDEST SWAP5 POP PUSH1 0x60 DUP9 ADD CALLDATALOAD SWAP2 POP DUP1 DUP3 GT ISZERO PUSH3 0x37A4 JUMPI PUSH1 0x0 DUP1 REVERT JUMPDEST PUSH3 0x37B2 DUP10 DUP4 DUP11 ADD PUSH3 0x3635 JUMP JUMPDEST SWAP4 POP PUSH1 0x80 DUP9 ADD CALLDATALOAD SWAP2 POP DUP1 DUP3 GT ISZERO PUSH3 0x37C9 JUMPI PUSH1 0x0 DUP1 REVERT JUMPDEST POP PUSH3 0x37D8 DUP9 DUP3 DUP10 ADD PUSH3 0x36AE JUMP JUMPDEST SWAP2 POP POP SWAP3 SWAP6 POP SWAP3 SWAP6 SWAP1 SWAP4 POP JUMP JUMPDEST PUSH1 0x20 DUP1 DUP3 MSTORE DUP3 MLOAD DUP3 DUP3 ADD DUP2 SWAP1 MSTORE PUSH1 0x0 SWAP2 SWAP1 DUP5 DUP3 ADD SWAP1 PUSH1 0x40 DUP6 ADD SWAP1 DUP5 JUMPDEST DUP2 DUP2 LT ISZERO PUSH3 0x3828 JUMPI DUP4 MLOAD PUSH1 0x1 PUSH1 0x1 PUSH1 0xA0 SHL SUB AND DUP4 MSTORE SWAP3 DUP5 ADD SWAP3 SWAP2 DUP5 ADD SWAP2 PUSH1 0x1 ADD PUSH3 0x3801 JUMP JUMPDEST POP SWAP1 SWAP7 SWAP6 POP POP POP POP POP POP JUMP JUMPDEST PUSH1 0x0 DUP1 PUSH1 0x40 DUP4 DUP6 SUB SLT ISZERO PUSH3 0x3848 JUMPI PUSH1 0x0 DUP1 REVERT JUMPDEST DUP3 CALLDATALOAD PUSH8 0xFFFFFFFFFFFFFFFF DUP1 DUP3 GT ISZERO PUSH3 0x3861 JUMPI PUSH1 0x0 DUP1 REVERT JUMPDEST DUP2 DUP6 ADD SWAP2 POP DUP6 PUSH1 0x1F DUP4 ADD SLT PUSH3 0x3876 JUMPI PUSH1 0x0 DUP1 REVERT JUMPDEST DUP2 CALLDATALOAD PUSH1 0x20 PUSH3 0x3885 DUP3 PUSH3 0x360E JUMP JUMPDEST PUSH1 0x40 MLOAD PUSH3 0x3894 DUP3 DUP3 PUSH3 0x35DE JUMP JUMPDEST DUP4 DUP2 MSTORE PUSH1 0x5 SWAP4 SWAP1 SWAP4 SHL DUP6 ADD DUP3 ADD SWAP3 DUP3 DUP2 ADD SWAP2 POP DUP10 DUP5 GT ISZERO PUSH3 0x38B5 JUMPI PUSH1 0x0 DUP1 REVERT JUMPDEST SWAP5 DUP3 ADD SWAP5 JUMPDEST DUP4 DUP7 LT ISZERO PUSH3 0x38E0 JUMPI DUP6 CALLDATALOAD PUSH3 0x38D0 DUP2 PUSH3 0x34D5 JUMP JUMPDEST DUP3 MSTORE SWAP5 DUP3 ADD SWAP5 SWAP1 DUP3 ADD SWAP1 PUSH3 0x38BA JUMP JUMPDEST SWAP7 POP POP DUP7 ADD CALLDATALOAD SWAP3 POP POP DUP1 DUP3 GT ISZERO PUSH3 0x38F7 JUMPI PUSH1 0x0 DUP1 REVERT JUMPDEST POP PUSH3 0x3906 DUP6 DUP3 DUP7 ADD PUSH3 0x3635 JUMP JUMPDEST SWAP2 POP POP SWAP3 POP SWAP3 SWAP1 POP JUMP JUMPDEST PUSH1 0x0 DUP2 MLOAD DUP1 DUP5 MSTORE PUSH1 0x20 DUP1 DUP6 ADD SWAP5 POP DUP1 DUP5 ADD PUSH1 0x0 JUMPDEST DUP4 DUP2 LT ISZERO PUSH3 0x3942 JUMPI DUP2 MLOAD DUP8 MSTORE SWAP6 DUP3 ADD SWAP6 SWAP1 DUP3 ADD SWAP1 PUSH1 0x1 ADD PUSH3 0x3924 JUMP JUMPDEST POP SWAP5 SWAP6 SWAP5 POP POP POP POP POP JUMP JUMPDEST PUSH1 0x20 DUP2 MSTORE PUSH1 0x0 PUSH3 0x1816 PUSH1 0x20 DUP4 ADD DUP5 PUSH3 0x3910 JUMP JUMPDEST PUSH1 0x0 DUP1 PUSH1 0x0 DUP1 PUSH1 0x0 PUSH1 0xA0 DUP7 DUP9 SUB SLT ISZERO PUSH3 0x397B JUMPI PUSH1 0x0 DUP1 REVERT JUMPDEST DUP6 CALLDATALOAD PUSH3 0x3988 DUP2 PUSH3 0x34D5 JUMP JUMPDEST SWAP5 POP PUSH1 0x20 DUP7 ADD CALLDATALOAD SWAP4 POP PUSH1 0x40 DUP7 ADD CALLDATALOAD SWAP3 POP PUSH1 0x60 DUP7 ADD CALLDATALOAD SWAP2 POP PUSH1 0x80 DUP7 ADD CALLDATALOAD PUSH3 0x39AF DUP2 PUSH3 0x34D5 JUMP JUMPDEST DUP1 SWAP2 POP POP SWAP3 SWAP6 POP SWAP3 SWAP6 SWAP1 SWAP4 POP JUMP JUMPDEST PUSH1 0x0 DUP1 PUSH1 0x0 DUP1 PUSH1 0x0 PUSH1 0xA0 DUP7 DUP9 SUB SLT ISZERO PUSH3 0x39D6 JUMPI PUSH1 0x0 DUP1 REVERT JUMPDEST DUP6 CALLDATALOAD PUSH3 0x39E3 DUP2 PUSH3 0x34D5 JUMP JUMPDEST SWAP5 POP PUSH1 0x20 DUP7 ADD CALLDATALOAD PUSH3 0x39F5 DUP2 PUSH3 0x34D5 JUMP JUMPDEST SWAP4 POP PUSH1 0x40 DUP7 ADD CALLDATALOAD SWAP3 POP PUSH1 0x60 DUP7 ADD CALLDATALOAD SWAP2 POP PUSH1 0x80 DUP7 ADD CALLDATALOAD PUSH3 0x39AF DUP2 PUSH3 0x34D5 JUMP JUMPDEST PUSH1 0x0 PUSH1 0x20 DUP3 DUP5 SUB SLT ISZERO PUSH3 0x3A28 JUMPI PUSH1 0x0 DUP1 REVERT JUMPDEST DUP2 CALLDATALOAD PUSH3 0x1816 DUP2 PUSH3 0x34D5 JUMP JUMPDEST DUP1 ISZERO ISZERO DUP2 EQ PUSH3 0x11AC JUMPI PUSH1 0x0 DUP1 REVERT JUMPDEST PUSH1 0x0 DUP1 PUSH1 0x40 DUP4 DUP6 SUB SLT ISZERO PUSH3 0x3A58 JUMPI PUSH1 0x0 DUP1 REVERT JUMPDEST DUP3 CALLDATALOAD PUSH3 0x3A65 DUP2 PUSH3 0x34D5 JUMP JUMPDEST SWAP2 POP PUSH1 0x20 DUP4 ADD CALLDATALOAD PUSH3 0x3A77 DUP2 PUSH3 0x3A35 JUMP JUMPDEST DUP1 SWAP2 POP POP SWAP3 POP SWAP3 SWAP1 POP JUMP JUMPDEST PUSH1 0x0 DUP1 PUSH1 0x40 DUP4 DUP6 SUB SLT ISZERO PUSH3 0x3A96 JUMPI PUSH1 0x0 DUP1 REVERT JUMPDEST DUP3 CALLDATALOAD PUSH3 0x3AA3 DUP2 PUSH3 0x34D5 JUMP JUMPDEST SWAP2 POP PUSH1 0x20 DUP4 ADD CALLDATALOAD PUSH3 0x3A77 DUP2 PUSH3 0x34D5 JUMP JUMPDEST PUSH1 0x0 DUP1 PUSH1 0x0 PUSH1 0x60 DUP5 DUP7 SUB SLT ISZERO PUSH3 0x3ACB JUMPI PUSH1 0x0 DUP1 REVERT JUMPDEST DUP4 CALLDATALOAD PUSH3 0x3AD8 DUP2 PUSH3 0x34D5 JUMP JUMPDEST SWAP3 POP PUSH1 0x20 DUP5 ADD CALLDATALOAD PUSH3 0x3AEA DUP2 PUSH3 0x34D5 JUMP JUMPDEST SWAP3 SWAP6 SWAP3 SWAP5 POP POP POP PUSH1 0x40 SWAP2 SWAP1 SWAP2 ADD CALLDATALOAD SWAP1 JUMP JUMPDEST PUSH1 0x0 DUP1 PUSH1 0x0 DUP1 PUSH1 0x0 PUSH1 0xA0 DUP7 DUP9 SUB SLT ISZERO PUSH3 0x3B14 JUMPI PUSH1 0x0 DUP1 REVERT JUMPDEST DUP6 CALLDATALOAD PUSH3 0x3B21 DUP2 PUSH3 0x34D5 JUMP JUMPDEST SWAP5 POP PUSH1 0x20 DUP7 ADD CALLDATALOAD PUSH3 0x3B33 DUP2 PUSH3 0x34D5 JUMP JUMPDEST SWAP4 POP PUSH1 0x40 DUP7 ADD CALLDATALOAD SWAP3 POP PUSH1 0x60 DUP7 ADD CALLDATALOAD SWAP2 POP PUSH1 0x80 DUP7 ADD CALLDATALOAD PUSH8 0xFFFFFFFFFFFFFFFF DUP2 GT ISZERO PUSH3 0x3B5E JUMPI PUSH1 0x0 DUP1 REVERT JUMPDEST PUSH3 0x37D8 DUP9 DUP3 DUP10 ADD PUSH3 0x36AE JUMP JUMPDEST PUSH1 0x0 DUP1 PUSH1 0x0 DUP1 PUSH1 0x0 DUP1 PUSH1 0xC0 DUP8 DUP10 SUB SLT ISZERO PUSH3 0x3B86 JUMPI PUSH1 0x0 DUP1 REVERT JUMPDEST DUP7 CALLDATALOAD PUSH3 0x3B93 DUP2 PUSH3 0x34D5 JUMP JUMPDEST SWAP6 POP PUSH1 0x20 DUP8 ADD CALLDATALOAD SWAP5 POP PUSH1 0x40 DUP8 ADD CALLDATALOAD SWAP4 POP PUSH1 0x60 DUP8 ADD CALLDATALOAD SWAP3 POP PUSH1 0x80 DUP8 ADD CALLDATALOAD SWAP2 POP PUSH1 0xA0 DUP8 ADD CALLDATALOAD PUSH3 0x3BC1 DUP2 PUSH3 0x34D5 JUMP JUMPDEST DUP1 SWAP2 POP POP SWAP3 SWAP6 POP SWAP3 SWAP6 POP SWAP3 SWAP6 JUMP JUMPDEST PUSH1 0x1 DUP2 DUP2 SHR SWAP1 DUP3 AND DUP1 PUSH3 0x3BE4 JUMPI PUSH1 0x7F DUP3 AND SWAP2 POP JUMPDEST PUSH1 0x20 DUP3 LT DUP2 SUB PUSH3 0xA3B JUMPI PUSH4 0x4E487B71 PUSH1 0xE0 SHL PUSH1 0x0 MSTORE PUSH1 0x22 PUSH1 0x4 MSTORE PUSH1 0x24 PUSH1 0x0 REVERT JUMPDEST PUSH4 0x4E487B71 PUSH1 0xE0 SHL PUSH1 0x0 MSTORE PUSH1 0x11 PUSH1 0x4 MSTORE PUSH1 0x24 PUSH1 0x0 REVERT JUMPDEST DUP1 DUP3 ADD DUP1 DUP3 GT ISZERO PUSH3 0x697 JUMPI PUSH3 0x697 PUSH3 0x3C05 JUMP JUMPDEST PUSH4 0x4E487B71 PUSH1 0xE0 SHL PUSH1 0x0 MSTORE PUSH1 0x32 PUSH1 0x4 MSTORE PUSH1 0x24 PUSH1 0x0 REVERT JUMPDEST PUSH1 0x0 PUSH1 0x1 DUP3 ADD PUSH3 0x3C5C JUMPI PUSH3 0x3C5C PUSH3 0x3C05 JUMP JUMPDEST POP PUSH1 0x1 ADD SWAP1 JUMP JUMPDEST PUSH1 0x20 DUP1 DUP3 MSTORE PUSH1 0x1F SWAP1 DUP3 ADD MSTORE PUSH32 0x5265656E7472616E637947756172643A207265656E7472616E742063616C6C00 PUSH1 0x40 DUP3 ADD MSTORE PUSH1 0x60 ADD SWAP1 JUMP JUMPDEST DUP1 DUP3 MUL DUP2 ISZERO DUP3 DUP3 DIV DUP5 EQ OR PUSH3 0x697 JUMPI PUSH3 0x697 PUSH3 0x3C05 JUMP JUMPDEST PUSH1 0x0 DUP3 PUSH3 0x3CD2 JUMPI PUSH4 0x4E487B71 PUSH1 0xE0 SHL PUSH1 0x0 MSTORE PUSH1 0x12 PUSH1 0x4 MSTORE PUSH1 0x24 PUSH1 0x0 REVERT JUMPDEST POP DIV SWAP1 JUMP JUMPDEST DUP2 DUP2 SUB DUP2 DUP2 GT ISZERO PUSH3 0x697 JUMPI PUSH3 0x697 PUSH3 0x3C05 JUMP JUMPDEST PUSH1 0x0 PUSH1 0x20 DUP3 DUP5 SUB SLT ISZERO PUSH3 0x3D00 JUMPI PUSH1 0x0 DUP1 REVERT JUMPDEST DUP2 MLOAD PUSH3 0x1816 DUP2 PUSH3 0x3A35 JUMP JUMPDEST PUSH1 0x20 DUP1 DUP3 MSTORE PUSH1 0x23 SWAP1 DUP3 ADD MSTORE PUSH32 0x43616E27742073776170207468652073616D6520746F6B656E20746F20697473 PUSH1 0x40 DUP3 ADD MSTORE PUSH3 0x32B633 PUSH1 0xE9 SHL PUSH1 0x60 DUP3 ADD MSTORE PUSH1 0x80 ADD SWAP1 JUMP JUMPDEST PUSH1 0x20 DUP1 DUP3 MSTORE PUSH1 0x32 SWAP1 DUP3 ADD MSTORE PUSH32 0x416D6F756E74206F6620746F6B656E73206F7574206973206C65737320746861 PUSH1 0x40 DUP3 ADD MSTORE PUSH18 0x1B881B5A5B9A5B5D5B481C995C5D5A5C9959 PUSH1 0x72 SHL PUSH1 0x60 DUP3 ADD MSTORE PUSH1 0x80 ADD SWAP1 JUMP JUMPDEST PUSH1 0x1 PUSH1 0x1 PUSH1 0xA0 SHL SUB SWAP4 DUP5 AND DUP2 MSTORE SWAP2 SWAP1 SWAP3 AND PUSH1 0x20 DUP3 ADD MSTORE PUSH1 0x40 DUP2 ADD SWAP2 SWAP1 SWAP2 MSTORE PUSH1 0x60 ADD SWAP1 JUMP JUMPDEST PUSH1 0x40 DUP2 MSTORE PUSH1 0x0 PUSH3 0x3DEB PUSH1 0x40 DUP4 ADD PUSH1 0x4 DUP2 MSTORE PUSH4 0x55534443 PUSH1 0xE0 SHL PUSH1 0x20 DUP3 ADD MSTORE PUSH1 0x40 ADD SWAP1 JUMP JUMPDEST DUP3 DUP2 SUB PUSH1 0x20 DUP5 ADD MSTORE PUSH3 0x1816 DUP2 PUSH1 0x4 DUP2 MSTORE PUSH4 0x55534443 PUSH1 0xE0 SHL PUSH1 0x20 DUP3 ADD MSTORE PUSH1 0x40 ADD SWAP1 JUMP JUMPDEST PUSH1 0x40 DUP2 MSTORE PUSH1 0x0 PUSH3 0x3E33 PUSH1 0x40 DUP4 ADD PUSH1 0x3 DUP2 MSTORE PUSH3 0x444149 PUSH1 0xE8 SHL PUSH1 0x20 DUP3 ADD MSTORE PUSH1 0x40 ADD SWAP1 JUMP JUMPDEST DUP3 DUP2 SUB PUSH1 0x20 DUP5 ADD MSTORE PUSH3 0x1816 DUP2 PUSH1 0x3 DUP2 MSTORE PUSH3 0x444149 PUSH1 0xE8 SHL PUSH1 0x20 DUP3 ADD MSTORE PUSH1 0x40 ADD SWAP1 JUMP JUMPDEST PUSH1 0x40 DUP2 MSTORE PUSH1 0x0 PUSH3 0x3E7C PUSH1 0x40 DUP4 ADD PUSH1 0x5 DUP2 MSTORE PUSH5 0x86AAA08AB PUSH1 0xDB SHL PUSH1 0x20 DUP3 ADD MSTORE PUSH1 0x40 ADD SWAP1 JUMP JUMPDEST DUP3 DUP2 SUB PUSH1 0x20 DUP5 ADD MSTORE PUSH3 0x1816 DUP2 PUSH1 0x5 DUP2 MSTORE PUSH5 0x86AAA08AB PUSH1 0xDB SHL PUSH1 0x20 DUP3 ADD MSTORE PUSH1 0x40 ADD SWAP1 JUMP JUMPDEST PUSH1 0x20 DUP1 DUP3 MSTORE PUSH1 0x33 SWAP1 DUP3 ADD MSTORE PUSH32 0x416D6F756E74206F6620746F6B656E7320696E206973206C6172676572207468 PUSH1 0x40 DUP3 ADD MSTORE PUSH19 0x185B881B585E1A5B5D5B481C995C5D5A5C9959 PUSH1 0x6A SHL PUSH1 0x60 DUP3 ADD MSTORE PUSH1 0x80 ADD SWAP1 JUMP JUMPDEST PUSH1 0x20 DUP1 DUP3 MSTORE PUSH1 0x25 SWAP1 DUP3 ADD MSTORE PUSH32 0x455243313135353A207472616E7366657220746F20746865207A65726F206164 PUSH1 0x40 DUP3 ADD MSTORE PUSH5 0x6472657373 PUSH1 0xD8 SHL PUSH1 0x60 DUP3 ADD MSTORE PUSH1 0x80 ADD SWAP1 JUMP JUMPDEST PUSH1 0x20 DUP1 DUP3 MSTORE PUSH1 0x2A SWAP1 DUP3 ADD MSTORE PUSH32 0x455243313135353A20696E73756666696369656E742062616C616E636520666F PUSH1 0x40 DUP3 ADD MSTORE PUSH10 0x39103A3930B739B332B9 PUSH1 0xB1 SHL PUSH1 0x60 DUP3 ADD MSTORE PUSH1 0x80 ADD SWAP1 JUMP JUMPDEST PUSH1 0x40 DUP2 MSTORE PUSH1 0x0 PUSH3 0x3F98 PUSH1 0x40 DUP4 ADD DUP6 PUSH3 0x3910 JUMP JUMPDEST DUP3 DUP2 SUB PUSH1 0x20 DUP5 ADD MSTORE PUSH3 0x2765 DUP2 DUP6 PUSH3 0x3910 JUMP JUMPDEST PUSH1 0x0 PUSH1 0x20 DUP3 DUP5 SUB SLT ISZERO PUSH3 0x3FBF JUMPI PUSH1 0x0 DUP1 REVERT JUMPDEST POP MLOAD SWAP2 SWAP1 POP JUMP JUMPDEST PUSH1 0x1 PUSH1 0x1 PUSH1 0xA0 SHL SUB DUP7 DUP2 AND DUP3 MSTORE DUP6 AND PUSH1 0x20 DUP3 ADD MSTORE PUSH1 0xA0 PUSH1 0x40 DUP3 ADD DUP2 SWAP1 MSTORE PUSH1 0x0 SWAP1 PUSH3 0x3FF4 SWAP1 DUP4 ADD DUP7 PUSH3 0x3910 JUMP JUMPDEST DUP3 DUP2 SUB PUSH1 0x60 DUP5 ADD MSTORE PUSH3 0x4008 DUP2 DUP7 PUSH3 0x3910 JUMP JUMPDEST SWAP1 POP DUP3 DUP2 SUB PUSH1 0x80 DUP5 ADD MSTORE PUSH3 0x401E DUP2 DUP6 PUSH3 0x3551 JUMP JUMPDEST SWAP9 SWAP8 POP POP POP POP POP POP POP POP JUMP JUMPDEST PUSH1 0x0 PUSH1 0x20 DUP3 DUP5 SUB SLT ISZERO PUSH3 0x403D JUMPI PUSH1 0x0 DUP1 REVERT JUMPDEST DUP2 MLOAD PUSH3 0x1816 DUP2 PUSH3 0x351A JUMP JUMPDEST PUSH1 0x0 PUSH1 0x3 RETURNDATASIZE GT ISZERO PUSH3 0x4064 JUMPI PUSH1 0x4 PUSH1 0x0 DUP1 RETURNDATACOPY POP PUSH1 0x0 MLOAD PUSH1 0xE0 SHR JUMPDEST SWAP1 JUMP JUMPDEST PUSH1 0x0 PUSH1 0x44 RETURNDATASIZE LT ISZERO PUSH3 0x4076 JUMPI SWAP1 JUMP JUMPDEST PUSH1 0x40 MLOAD PUSH1 0x3 NOT RETURNDATASIZE DUP2 ADD PUSH1 0x4 DUP4 RETURNDATACOPY DUP2 MLOAD RETURNDATASIZE PUSH8 0xFFFFFFFFFFFFFFFF DUP2 PUSH1 0x24 DUP5 ADD GT DUP2 DUP5 GT OR ISZERO PUSH3 0x40A7 JUMPI POP POP POP POP POP SWAP1 JUMP JUMPDEST DUP3 DUP6 ADD SWAP2 POP DUP2 MLOAD DUP2 DUP2 GT ISZERO PUSH3 0x40C0 JUMPI POP POP POP POP POP POP SWAP1 JUMP JUMPDEST DUP5 RETURNDATASIZE DUP8 ADD ADD PUSH1 0x20 DUP3 DUP6 ADD ADD GT ISZERO PUSH3 0x40DB JUMPI POP POP POP POP POP POP SWAP1 JUMP JUMPDEST PUSH3 0x40EC PUSH1 0x20 DUP3 DUP7 ADD ADD DUP8 PUSH3 0x35DE JUMP JUMPDEST POP SWAP1 SWAP6 SWAP5 POP POP POP POP POP JUMP JUMPDEST PUSH1 0x20 DUP1 DUP3 MSTORE PUSH1 0x28 SWAP1 DUP3 ADD MSTORE PUSH32 0x455243313135353A204552433131353552656365697665722072656A65637465 PUSH1 0x40 DUP3 ADD MSTORE PUSH8 0x6420746F6B656E73 PUSH1 0xC0 SHL PUSH1 0x60 DUP3 ADD MSTORE PUSH1 0x80 ADD SWAP1 JUMP JUMPDEST PUSH1 0x1 PUSH1 0x1 PUSH1 0xA0 SHL SUB DUP7 DUP2 AND DUP3 MSTORE DUP6 AND PUSH1 0x20 DUP3 ADD MSTORE PUSH1 0x40 DUP2 ADD DUP5 SWAP1 MSTORE PUSH1 0x60 DUP2 ADD DUP4 SWAP1 MSTORE PUSH1 0xA0 PUSH1 0x80 DUP3 ADD DUP2 SWAP1 MSTORE PUSH1 0x0 SWAP1 PUSH3 0x417B SWAP1 DUP4 ADD DUP5 PUSH3 0x3551 JUMP JUMPDEST SWAP8 SWAP7 POP POP POP POP POP POP POP JUMP INVALID PUSH1 0x80 PUSH1 0x40 MSTORE CALLVALUE DUP1 ISZERO PUSH3 0x11 JUMPI PUSH1 0x0 DUP1 REVERT JUMPDEST POP PUSH1 0x40 MLOAD PUSH3 0xF2A CODESIZE SUB DUP1 PUSH3 0xF2A DUP4 CODECOPY DUP2 ADD PUSH1 0x40 DUP2 SWAP1 MSTORE PUSH3 0x34 SWAP2 PUSH3 0x286 JUMP JUMPDEST DUP2 DUP2 PUSH1 0x3 PUSH3 0x44 DUP4 DUP3 PUSH3 0x37E JUMP JUMPDEST POP PUSH1 0x4 PUSH3 0x53 DUP3 DUP3 PUSH3 0x37E JUMP JUMPDEST POP POP POP PUSH3 0x88 PUSH20 0xCFB57CAFF4D3DECF4ECEC005C5260821E42DD56D PUSH12 0x33B2E3C9FD0803CE8000000 PUSH3 0xD4 PUSH1 0x20 SHL PUSH1 0x20 SHR JUMP JUMPDEST PUSH3 0xB4 PUSH20 0x40385F27D90EB7A7FCA6F521176C6EBADBE57632 PUSH12 0x33B2E3C9FD0803CE8000000 PUSH3 0xD4 JUMP JUMPDEST PUSH3 0xCC CALLER PUSH12 0x33B2E3C9FD0803CE8000000 PUSH3 0xD4 JUMP JUMPDEST POP POP PUSH3 0x472 JUMP JUMPDEST PUSH1 0x1 PUSH1 0x1 PUSH1 0xA0 SHL SUB DUP3 AND PUSH3 0x12F JUMPI PUSH1 0x40 MLOAD PUSH3 0x461BCD PUSH1 0xE5 SHL DUP2 MSTORE PUSH1 0x20 PUSH1 0x4 DUP3 ADD MSTORE PUSH1 0x1F PUSH1 0x24 DUP3 ADD MSTORE PUSH32 0x45524332303A206D696E7420746F20746865207A65726F206164647265737300 PUSH1 0x44 DUP3 ADD MSTORE PUSH1 0x64 ADD PUSH1 0x40 MLOAD DUP1 SWAP2 SUB SWAP1 REVERT JUMPDEST DUP1 PUSH1 0x2 PUSH1 0x0 DUP3 DUP3 SLOAD PUSH3 0x143 SWAP2 SWAP1 PUSH3 0x44A JUMP JUMPDEST SWAP1 SWAP2 SSTORE POP POP PUSH1 0x1 PUSH1 0x1 PUSH1 0xA0 SHL SUB DUP3 AND PUSH1 0x0 SWAP1 DUP2 MSTORE PUSH1 0x20 DUP2 SWAP1 MSTORE PUSH1 0x40 DUP2 KECCAK256 DUP1 SLOAD DUP4 SWAP3 SWAP1 PUSH3 0x172 SWAP1 DUP5 SWAP1 PUSH3 0x44A JUMP JUMPDEST SWAP1 SWAP2 SSTORE POP POP PUSH1 0x40 MLOAD DUP2 DUP2 MSTORE PUSH1 0x1 PUSH1 0x1 PUSH1 0xA0 SHL SUB DUP4 AND SWAP1 PUSH1 0x0 SWAP1 PUSH32 0xDDF252AD1BE2C89B69C2B068FC378DAA952BA7F163C4A11628F55A4DF523B3EF SWAP1 PUSH1 0x20 ADD PUSH1 0x40 MLOAD DUP1 SWAP2 SUB SWAP1 LOG3 POP POP JUMP JUMPDEST POP POP POP JUMP JUMPDEST PUSH4 0x4E487B71 PUSH1 0xE0 SHL PUSH1 0x0 MSTORE PUSH1 0x41 PUSH1 0x4 MSTORE PUSH1 0x24 PUSH1 0x0 REVERT JUMPDEST PUSH1 0x0 DUP3 PUSH1 0x1F DUP4 ADD SLT PUSH3 0x1E9 JUMPI PUSH1 0x0 DUP1 REVERT JUMPDEST DUP2 MLOAD PUSH1 0x1 PUSH1 0x1 PUSH1 0x40 SHL SUB DUP1 DUP3 GT ISZERO PUSH3 0x206 JUMPI PUSH3 0x206 PUSH3 0x1C1 JUMP JUMPDEST PUSH1 0x40 MLOAD PUSH1 0x1F DUP4 ADD PUSH1 0x1F NOT SWAP1 DUP2 AND PUSH1 0x3F ADD AND DUP2 ADD SWAP1 DUP3 DUP3 GT DUP2 DUP4 LT OR ISZERO PUSH3 0x231 JUMPI PUSH3 0x231 PUSH3 0x1C1 JUMP JUMPDEST DUP2 PUSH1 0x40 MSTORE DUP4 DUP2 MSTORE PUSH1 0x20 SWAP3 POP DUP7 DUP4 DUP6 DUP9 ADD ADD GT ISZERO PUSH3 0x24E JUMPI PUSH1 0x0 DUP1 REVERT JUMPDEST PUSH1 0x0 SWAP2 POP JUMPDEST DUP4 DUP3 LT ISZERO PUSH3 0x272 JUMPI DUP6 DUP3 ADD DUP4 ADD MLOAD DUP2 DUP4 ADD DUP5 ADD MSTORE SWAP1 DUP3 ADD SWAP1 PUSH3 0x253 JUMP JUMPDEST PUSH1 0x0 SWAP4 DUP2 ADD SWAP1 SWAP3 ADD SWAP3 SWAP1 SWAP3 MSTORE SWAP5 SWAP4 POP POP POP POP JUMP JUMPDEST PUSH1 0x0 DUP1 PUSH1 0x40 DUP4 DUP6 SUB SLT ISZERO PUSH3 0x29A JUMPI PUSH1 0x0 DUP1 REVERT JUMPDEST DUP3 MLOAD PUSH1 0x1 PUSH1 0x1 PUSH1 0x40 SHL SUB DUP1 DUP3 GT ISZERO PUSH3 0x2B2 JUMPI PUSH1 0x0 DUP1 REVERT JUMPDEST PUSH3 0x2C0 DUP7 DUP4 DUP8 ADD PUSH3 0x1D7 JUMP JUMPDEST SWAP4 POP PUSH1 0x20 DUP6 ADD MLOAD SWAP2 POP DUP1 DUP3 GT ISZERO PUSH3 0x2D7 JUMPI PUSH1 0x0 DUP1 REVERT JUMPDEST POP PUSH3 0x2E6 DUP6 DUP3 DUP7 ADD PUSH3 0x1D7 JUMP JUMPDEST SWAP2 POP POP SWAP3 POP SWAP3 SWAP1 POP JUMP JUMPDEST PUSH1 0x1 DUP2 DUP2 SHR SWAP1 DUP3 AND DUP1 PUSH3 0x305 JUMPI PUSH1 0x7F DUP3 AND SWAP2 POP JUMPDEST PUSH1 0x20 DUP3 LT DUP2 SUB PUSH3 0x326 JUMPI PUSH4 0x4E487B71 PUSH1 0xE0 SHL PUSH1 0x0 MSTORE PUSH1 0x22 PUSH1 0x4 MSTORE PUSH1 0x24 PUSH1 0x0 REVERT JUMPDEST POP SWAP2 SWAP1 POP JUMP JUMPDEST PUSH1 0x1F DUP3 GT ISZERO PUSH3 0x1BC JUMPI PUSH1 0x0 DUP2 DUP2 MSTORE PUSH1 0x20 DUP2 KECCAK256 PUSH1 0x1F DUP6 ADD PUSH1 0x5 SHR DUP2 ADD PUSH1 0x20 DUP7 LT ISZERO PUSH3 0x355 JUMPI POP DUP1 JUMPDEST PUSH1 0x1F DUP6 ADD PUSH1 0x5 SHR DUP3 ADD SWAP2 POP JUMPDEST DUP2 DUP2 LT ISZERO PUSH3 0x376 JUMPI DUP3 DUP2 SSTORE PUSH1 0x1 ADD PUSH3 0x361 JUMP JUMPDEST POP POP POP POP POP POP JUMP JUMPDEST DUP2 MLOAD PUSH1 0x1 PUSH1 0x1 PUSH1 0x40 SHL SUB DUP2 GT ISZERO PUSH3 0x39A JUMPI PUSH3 0x39A PUSH3 0x1C1 JUMP JUMPDEST PUSH3 0x3B2 DUP2 PUSH3 0x3AB DUP5 SLOAD PUSH3 0x2F0 JUMP JUMPDEST DUP5 PUSH3 0x32C JUMP JUMPDEST PUSH1 0x20 DUP1 PUSH1 0x1F DUP4 GT PUSH1 0x1 DUP2 EQ PUSH3 0x3EA JUMPI PUSH1 0x0 DUP5 ISZERO PUSH3 0x3D1 JUMPI POP DUP6 DUP4 ADD MLOAD JUMPDEST PUSH1 0x0 NOT PUSH1 0x3 DUP7 SWAP1 SHL SHR NOT AND PUSH1 0x1 DUP6 SWAP1 SHL OR DUP6 SSTORE PUSH3 0x376 JUMP JUMPDEST PUSH1 0x0 DUP6 DUP2 MSTORE PUSH1 0x20 DUP2 KECCAK256 PUSH1 0x1F NOT DUP7 AND SWAP2 JUMPDEST DUP3 DUP2 LT ISZERO PUSH3 0x41B JUMPI DUP9 DUP7 ADD MLOAD DUP3 SSTORE SWAP5 DUP5 ADD SWAP5 PUSH1 0x1 SWAP1 SWAP2 ADD SWAP1 DUP5 ADD PUSH3 0x3FA JUMP JUMPDEST POP DUP6 DUP3 LT ISZERO PUSH3 0x43A JUMPI DUP8 DUP6 ADD MLOAD PUSH1 0x0 NOT PUSH1 0x3 DUP9 SWAP1 SHL PUSH1 0xF8 AND SHR NOT AND DUP2 SSTORE JUMPDEST POP POP POP POP POP PUSH1 0x1 SWAP1 DUP2 SHL ADD SWAP1 SSTORE POP JUMP JUMPDEST DUP1 DUP3 ADD DUP1 DUP3 GT ISZERO PUSH3 0x46C JUMPI PUSH4 0x4E487B71 PUSH1 0xE0 SHL PUSH1 0x0 MSTORE PUSH1 0x11 PUSH1 0x4 MSTORE PUSH1 0x24 PUSH1 0x0 REVERT JUMPDEST SWAP3 SWAP2 POP POP JUMP JUMPDEST PUSH2 0xAA8 DUP1 PUSH3 0x482 PUSH1 0x0 CODECOPY PUSH1 0x0 RETURN INVALID PUSH1 0x80 PUSH1 0x40 MSTORE CALLVALUE DUP1 ISZERO PUSH2 0x10 JUMPI PUSH1 0x0 DUP1 REVERT JUMPDEST POP PUSH1 0x4 CALLDATASIZE LT PUSH2 0xCF JUMPI PUSH1 0x0 CALLDATALOAD PUSH1 0xE0 SHR DUP1 PUSH4 0x40C10F19 GT PUSH2 0x8C JUMPI DUP1 PUSH4 0x9DC29FAC GT PUSH2 0x66 JUMPI DUP1 PUSH4 0x9DC29FAC EQ PUSH2 0x1A2 JUMPI DUP1 PUSH4 0xA457C2D7 EQ PUSH2 0x1B5 JUMPI DUP1 PUSH4 0xA9059CBB EQ PUSH2 0x1C8 JUMPI DUP1 PUSH4 0xDD62ED3E EQ PUSH2 0x1DB JUMPI PUSH1 0x0 DUP1 REVERT JUMPDEST DUP1 PUSH4 0x40C10F19 EQ PUSH2 0x15C JUMPI DUP1 PUSH4 0x70A08231 EQ PUSH2 0x171 JUMPI DUP1 PUSH4 0x95D89B41 EQ PUSH2 0x19A JUMPI PUSH1 0x0 DUP1 REVERT JUMPDEST DUP1 PUSH4 0x6FDDE03 EQ PUSH2 0xD4 JUMPI DUP1 PUSH4 0x95EA7B3 EQ PUSH2 0xF2 JUMPI DUP1 PUSH4 0x18160DDD EQ PUSH2 0x115 JUMPI DUP1 PUSH4 0x23B872DD EQ PUSH2 0x127 JUMPI DUP1 PUSH4 0x313CE567 EQ PUSH2 0x13A JUMPI DUP1 PUSH4 0x39509351 EQ PUSH2 0x149 JUMPI JUMPDEST PUSH1 0x0 DUP1 REVERT JUMPDEST PUSH2 0xDC PUSH2 0x1EE JUMP JUMPDEST PUSH1 0x40 MLOAD PUSH2 0xE9 SWAP2 SWAP1 PUSH2 0x8D7 JUMP JUMPDEST PUSH1 0x40 MLOAD DUP1 SWAP2 SUB SWAP1 RETURN JUMPDEST PUSH2 0x105 PUSH2 0x100 CALLDATASIZE PUSH1 0x4 PUSH2 0x941 JUMP JUMPDEST PUSH2 0x280 JUMP JUMPDEST PUSH1 0x40 MLOAD SWAP1 ISZERO ISZERO DUP2 MSTORE PUSH1 0x20 ADD PUSH2 0xE9 JUMP JUMPDEST PUSH1 0x2 SLOAD JUMPDEST PUSH1 0x40 MLOAD SWAP1 DUP2 MSTORE PUSH1 0x20 ADD PUSH2 0xE9 JUMP JUMPDEST PUSH2 0x105 PUSH2 0x135 CALLDATASIZE PUSH1 0x4 PUSH2 0x96B JUMP JUMPDEST PUSH2 0x29A JUMP JUMPDEST PUSH1 0x40 MLOAD PUSH1 0x12 DUP2 MSTORE PUSH1 0x20 ADD PUSH2 0xE9 JUMP JUMPDEST PUSH2 0x105 PUSH2 0x157 CALLDATASIZE PUSH1 0x4 PUSH2 0x941 JUMP JUMPDEST PUSH2 0x2B1 JUMP JUMPDEST PUSH2 0x16F PUSH2 0x16A CALLDATASIZE PUSH1 0x4 PUSH2 0x941 JUMP JUMPDEST PUSH2 0x2D3 JUMP JUMPDEST STOP JUMPDEST PUSH2 0x119 PUSH2 0x17F CALLDATASIZE PUSH1 0x4 PUSH2 0x9A7 JUMP JUMPDEST PUSH1 0x1 PUSH1 0x1 PUSH1 0xA0 SHL SUB AND PUSH1 0x0 SWAP1 DUP2 MSTORE PUSH1 0x20 DUP2 SWAP1 MSTORE PUSH1 0x40 SWAP1 KECCAK256 SLOAD SWAP1 JUMP JUMPDEST PUSH2 0xDC PUSH2 0x2E1 JUMP JUMPDEST PUSH2 0x16F PUSH2 0x1B0 CALLDATASIZE PUSH1 0x4 PUSH2 0x941 JUMP JUMPDEST PUSH2 0x2F0 JUMP JUMPDEST PUSH2 0x105 PUSH2 0x1C3 CALLDATASIZE PUSH1 0x4 PUSH2 0x941 JUMP JUMPDEST PUSH2 0x2FA JUMP JUMPDEST PUSH2 0x105 PUSH2 0x1D6 CALLDATASIZE PUSH1 0x4 PUSH2 0x941 JUMP JUMPDEST PUSH2 0x385 JUMP JUMPDEST PUSH2 0x119 PUSH2 0x1E9 CALLDATASIZE PUSH1 0x4 PUSH2 0x9C9 JUMP JUMPDEST PUSH2 0x393 JUMP JUMPDEST PUSH1 0x60 PUSH1 0x3 DUP1 SLOAD PUSH2 0x1FD SWAP1 PUSH2 0x9FC JUMP JUMPDEST DUP1 PUSH1 0x1F ADD PUSH1 0x20 DUP1 SWAP2 DIV MUL PUSH1 0x20 ADD PUSH1 0x40 MLOAD SWAP1 DUP2 ADD PUSH1 0x40 MSTORE DUP1 SWAP3 SWAP2 SWAP1 DUP2 DUP2 MSTORE PUSH1 0x20 ADD DUP3 DUP1 SLOAD PUSH2 0x229 SWAP1 PUSH2 0x9FC JUMP JUMPDEST DUP1 ISZERO PUSH2 0x276 JUMPI DUP1 PUSH1 0x1F LT PUSH2 0x24B JUMPI PUSH2 0x100 DUP1 DUP4 SLOAD DIV MUL DUP4 MSTORE SWAP2 PUSH1 0x20 ADD SWAP2 PUSH2 0x276 JUMP JUMPDEST DUP3 ADD SWAP2 SWAP1 PUSH1 0x0 MSTORE PUSH1 0x20 PUSH1 0x0 KECCAK256 SWAP1 JUMPDEST DUP2 SLOAD DUP2 MSTORE SWAP1 PUSH1 0x1 ADD SWAP1 PUSH1 0x20 ADD DUP1 DUP4 GT PUSH2 0x259 JUMPI DUP3 SWAP1 SUB PUSH1 0x1F AND DUP3 ADD SWAP2 JUMPDEST POP POP POP POP POP SWAP1 POP SWAP1 JUMP JUMPDEST PUSH1 0x0 CALLER PUSH2 0x28E DUP2 DUP6 DUP6 PUSH2 0x3BE JUMP JUMPDEST PUSH1 0x1 SWAP2 POP POP JUMPDEST SWAP3 SWAP2 POP POP JUMP JUMPDEST PUSH1 0x0 PUSH2 0x2A7 DUP5 DUP5 DUP5 PUSH2 0x4E3 JUMP JUMPDEST POP PUSH1 0x1 SWAP4 SWAP3 POP POP POP JUMP JUMPDEST PUSH1 0x0 CALLER PUSH2 0x28E DUP2 DUP6 DUP6 PUSH2 0x2C4 DUP4 DUP4 PUSH2 0x393 JUMP JUMPDEST PUSH2 0x2CE SWAP2 SWAP1 PUSH2 0xA4C JUMP JUMPDEST PUSH2 0x3BE JUMP JUMPDEST PUSH2 0x2DD DUP3 DUP3 PUSH2 0x6B2 JUMP JUMPDEST POP POP JUMP JUMPDEST PUSH1 0x60 PUSH1 0x4 DUP1 SLOAD PUSH2 0x1FD SWAP1 PUSH2 0x9FC JUMP JUMPDEST PUSH2 0x2DD DUP3 DUP3 PUSH2 0x791 JUMP JUMPDEST PUSH1 0x0 CALLER DUP2 PUSH2 0x308 DUP3 DUP7 PUSH2 0x393 JUMP JUMPDEST SWAP1 POP DUP4 DUP2 LT ISZERO PUSH2 0x36D JUMPI PUSH1 0x40 MLOAD PUSH3 0x461BCD PUSH1 0xE5 SHL DUP2 MSTORE PUSH1 0x20 PUSH1 0x4 DUP3 ADD MSTORE PUSH1 0x25 PUSH1 0x24 DUP3 ADD MSTORE PUSH32 0x45524332303A2064656372656173656420616C6C6F77616E63652062656C6F77 PUSH1 0x44 DUP3 ADD MSTORE PUSH5 0x207A65726F PUSH1 0xD8 SHL PUSH1 0x64 DUP3 ADD MSTORE PUSH1 0x84 ADD JUMPDEST PUSH1 0x40 MLOAD DUP1 SWAP2 SUB SWAP1 REVERT JUMPDEST PUSH2 0x37A DUP3 DUP7 DUP7 DUP5 SUB PUSH2 0x3BE JUMP JUMPDEST POP PUSH1 0x1 SWAP5 SWAP4 POP POP POP POP JUMP JUMPDEST PUSH1 0x0 CALLER PUSH2 0x28E DUP2 DUP6 DUP6 PUSH2 0x4E3 JUMP JUMPDEST PUSH1 0x1 PUSH1 0x1 PUSH1 0xA0 SHL SUB SWAP2 DUP3 AND PUSH1 0x0 SWAP1 DUP2 MSTORE PUSH1 0x1 PUSH1 0x20 SWAP1 DUP2 MSTORE PUSH1 0x40 DUP1 DUP4 KECCAK256 SWAP4 SWAP1 SWAP5 AND DUP3 MSTORE SWAP2 SWAP1 SWAP2 MSTORE KECCAK256 SLOAD SWAP1 JUMP JUMPDEST PUSH1 0x1 PUSH1 0x1 PUSH1 0xA0 SHL SUB DUP4 AND PUSH2 0x420 JUMPI PUSH1 0x40 MLOAD PUSH3 0x461BCD PUSH1 0xE5 SHL DUP2 MSTORE PUSH1 0x20 PUSH1 0x4 DUP3 ADD MSTORE PUSH1 0x24 DUP1 DUP3 ADD MSTORE PUSH32 0x45524332303A20617070726F76652066726F6D20746865207A65726F20616464 PUSH1 0x44 DUP3 ADD MSTORE PUSH4 0x72657373 PUSH1 0xE0 SHL PUSH1 0x64 DUP3 ADD MSTORE PUSH1 0x84 ADD PUSH2 0x364 JUMP JUMPDEST PUSH1 0x1 PUSH1 0x1 PUSH1 0xA0 SHL SUB DUP3 AND PUSH2 0x481 JUMPI PUSH1 0x40 MLOAD PUSH3 0x461BCD PUSH1 0xE5 SHL DUP2 MSTORE PUSH1 0x20 PUSH1 0x4 DUP3 ADD MSTORE PUSH1 0x22 PUSH1 0x24 DUP3 ADD MSTORE PUSH32 0x45524332303A20617070726F766520746F20746865207A65726F206164647265 PUSH1 0x44 DUP3 ADD MSTORE PUSH2 0x7373 PUSH1 0xF0 SHL PUSH1 0x64 DUP3 ADD MSTORE PUSH1 0x84 ADD PUSH2 0x364 JUMP JUMPDEST PUSH1 0x1 PUSH1 0x1 PUSH1 0xA0 SHL SUB DUP4 DUP2 AND PUSH1 0x0 DUP2 DUP2 MSTORE PUSH1 0x1 PUSH1 0x20 SWAP1 DUP2 MSTORE PUSH1 0x40 DUP1 DUP4 KECCAK256 SWAP5 DUP8 AND DUP1 DUP5 MSTORE SWAP5 DUP3 MSTORE SWAP2 DUP3 SWAP1 KECCAK256 DUP6 SWAP1 SSTORE SWAP1 MLOAD DUP5 DUP2 MSTORE PUSH32 0x8C5BE1E5EBEC7D5BD14F71427D1E84F3DD0314C0F7B2291E5B200AC8C7C3B925 SWAP2 ADD JUMPDEST PUSH1 0x40 MLOAD DUP1 SWAP2 SUB SWAP1 LOG3 POP POP POP JUMP JUMPDEST PUSH1 0x1 PUSH1 0x1 PUSH1 0xA0 SHL SUB DUP4 AND PUSH2 0x547 JUMPI PUSH1 0x40 MLOAD PUSH3 0x461BCD PUSH1 0xE5 SHL DUP2 MSTORE PUSH1 0x20 PUSH1 0x4 DUP3 ADD MSTORE PUSH1 0x25 PUSH1 0x24 DUP3 ADD MSTORE PUSH32 0x45524332303A207472616E736665722066726F6D20746865207A65726F206164 PUSH1 0x44 DUP3 ADD MSTORE PUSH5 0x6472657373 PUSH1 0xD8 SHL PUSH1 0x64 DUP3 ADD MSTORE PUSH1 0x84 ADD PUSH2 0x364 JUMP JUMPDEST PUSH1 0x1 PUSH1 0x1 PUSH1 0xA0 SHL SUB DUP3 AND PUSH2 0x5A9 JUMPI PUSH1 0x40 MLOAD PUSH3 0x461BCD PUSH1 0xE5 SHL DUP2 MSTORE PUSH1 0x20 PUSH1 0x4 DUP3 ADD MSTORE PUSH1 0x23 PUSH1 0x24 DUP3 ADD MSTORE PUSH32 0x45524332303A207472616E7366657220746F20746865207A65726F2061646472 PUSH1 0x44 DUP3 ADD MSTORE PUSH3 0x657373 PUSH1 0xE8 SHL PUSH1 0x64 DUP3 ADD MSTORE PUSH1 0x84 ADD PUSH2 0x364 JUMP JUMPDEST PUSH1 0x1 PUSH1 0x1 PUSH1 0xA0 SHL SUB DUP4 AND PUSH1 0x0 SWAP1 DUP2 MSTORE PUSH1 0x20 DUP2 SWAP1 MSTORE PUSH1 0x40 SWAP1 KECCAK256 SLOAD DUP2 DUP2 LT ISZERO PUSH2 0x621 JUMPI PUSH1 0x40 MLOAD PUSH3 0x461BCD PUSH1 0xE5 SHL DUP2 MSTORE PUSH1 0x20 PUSH1 0x4 DUP3 ADD MSTORE PUSH1 0x26 PUSH1 0x24 DUP3 ADD MSTORE PUSH32 0x45524332303A207472616E7366657220616D6F756E7420657863656564732062 PUSH1 0x44 DUP3 ADD MSTORE PUSH6 0x616C616E6365 PUSH1 0xD0 SHL PUSH1 0x64 DUP3 ADD MSTORE PUSH1 0x84 ADD PUSH2 0x364 JUMP JUMPDEST PUSH1 0x1 PUSH1 0x1 PUSH1 0xA0 SHL SUB DUP1 DUP6 AND PUSH1 0x0 SWAP1 DUP2 MSTORE PUSH1 0x20 DUP2 SWAP1 MSTORE PUSH1 0x40 DUP1 DUP3 KECCAK256 DUP6 DUP6 SUB SWAP1 SSTORE SWAP2 DUP6 AND DUP2 MSTORE SWAP1 DUP2 KECCAK256 DUP1 SLOAD DUP5 SWAP3 SWAP1 PUSH2 0x658 SWAP1 DUP5 SWAP1 PUSH2 0xA4C JUMP JUMPDEST SWAP3 POP POP DUP2 SWAP1 SSTORE POP DUP3 PUSH1 0x1 PUSH1 0x1 PUSH1 0xA0 SHL SUB AND DUP5 PUSH1 0x1 PUSH1 0x1 PUSH1 0xA0 SHL SUB AND PUSH32 0xDDF252AD1BE2C89B69C2B068FC378DAA952BA7F163C4A11628F55A4DF523B3EF DUP5 PUSH1 0x40 MLOAD PUSH2 0x6A4 SWAP2 DUP2 MSTORE PUSH1 0x20 ADD SWAP1 JUMP JUMPDEST PUSH1 0x40 MLOAD DUP1 SWAP2 SUB SWAP1 LOG3 POP POP POP POP JUMP JUMPDEST PUSH1 0x1 PUSH1 0x1 PUSH1 0xA0 SHL SUB DUP3 AND PUSH2 0x708 JUMPI PUSH1 0x40 MLOAD PUSH3 0x461BCD PUSH1 0xE5 SHL DUP2 MSTORE PUSH1 0x20 PUSH1 0x4 DUP3 ADD MSTORE PUSH1 0x1F PUSH1 0x24 DUP3 ADD MSTORE PUSH32 0x45524332303A206D696E7420746F20746865207A65726F206164647265737300 PUSH1 0x44 DUP3 ADD MSTORE PUSH1 0x64 ADD PUSH2 0x364 JUMP JUMPDEST DUP1 PUSH1 0x2 PUSH1 0x0 DUP3 DUP3 SLOAD PUSH2 0x71A SWAP2 SWAP1 PUSH2 0xA4C JUMP JUMPDEST SWAP1 SWAP2 SSTORE POP POP PUSH1 0x1 PUSH1 0x1 PUSH1 0xA0 SHL SUB DUP3 AND PUSH1 0x0 SWAP1 DUP2 MSTORE PUSH1 0x20 DUP2 SWAP1 MSTORE PUSH1 0x40 DUP2 KECCAK256 DUP1 SLOAD DUP4 SWAP3 SWAP1 PUSH2 0x747 SWAP1 DUP5 SWAP1 PUSH2 0xA4C JUMP JUMPDEST SWAP1 SWAP2 SSTORE POP POP PUSH1 0x40 MLOAD DUP2 DUP2 MSTORE PUSH1 0x1 PUSH1 0x1 PUSH1 0xA0 SHL SUB DUP4 AND SWAP1 PUSH1 0x0 SWAP1 PUSH32 0xDDF252AD1BE2C89B69C2B068FC378DAA952BA7F163C4A11628F55A4DF523B3EF SWAP1 PUSH1 0x20 ADD PUSH1 0x40 MLOAD DUP1 SWAP2 SUB SWAP1 LOG3 POP POP JUMP JUMPDEST PUSH1 0x1 PUSH1 0x1 PUSH1 0xA0 SHL SUB DUP3 AND PUSH2 0x7F1 JUMPI PUSH1 0x40 MLOAD PUSH3 0x461BCD PUSH1 0xE5 SHL DUP2 MSTORE PUSH1 0x20 PUSH1 0x4 DUP3 ADD MSTORE PUSH1 0x21 PUSH1 0x24 DUP3 ADD MSTORE PUSH32 0x45524332303A206275726E2066726F6D20746865207A65726F20616464726573 PUSH1 0x44 DUP3 ADD MSTORE PUSH1 0x73 PUSH1 0xF8 SHL PUSH1 0x64 DUP3 ADD MSTORE PUSH1 0x84 ADD PUSH2 0x364 JUMP JUMPDEST PUSH1 0x1 PUSH1 0x1 PUSH1 0xA0 SHL SUB DUP3 AND PUSH1 0x0 SWAP1 DUP2 MSTORE PUSH1 0x20 DUP2 SWAP1 MSTORE PUSH1 0x40 SWAP1 KECCAK256 SLOAD DUP2 DUP2 LT ISZERO PUSH2 0x865 JUMPI PUSH1 0x40 MLOAD PUSH3 0x461BCD PUSH1 0xE5 SHL DUP2 MSTORE PUSH1 0x20 PUSH1 0x4 DUP3 ADD MSTORE PUSH1 0x22 PUSH1 0x24 DUP3 ADD MSTORE PUSH32 0x45524332303A206275726E20616D6F756E7420657863656564732062616C616E PUSH1 0x44 DUP3 ADD MSTORE PUSH2 0x6365 PUSH1 0xF0 SHL PUSH1 0x64 DUP3 ADD MSTORE PUSH1 0x84 ADD PUSH2 0x364 JUMP JUMPDEST PUSH1 0x1 PUSH1 0x1 PUSH1 0xA0 SHL SUB DUP4 AND PUSH1 0x0 SWAP1 DUP2 MSTORE PUSH1 0x20 DUP2 SWAP1 MSTORE PUSH1 0x40 DUP2 KECCAK256 DUP4 DUP4 SUB SWAP1 SSTORE PUSH1 0x2 DUP1 SLOAD DUP5 SWAP3 SWAP1 PUSH2 0x894 SWAP1 DUP5 SWAP1 PUSH2 0xA5F JUMP JUMPDEST SWAP1 SWAP2 SSTORE POP POP PUSH1 0x40 MLOAD DUP3 DUP2 MSTORE PUSH1 0x0 SWAP1 PUSH1 0x1 PUSH1 0x1 PUSH1 0xA0 SHL SUB DUP6 AND SWAP1 PUSH32 0xDDF252AD1BE2C89B69C2B068FC378DAA952BA7F163C4A11628F55A4DF523B3EF SWAP1 PUSH1 0x20 ADD PUSH2 0x4D6 JUMP JUMPDEST PUSH1 0x0 PUSH1 0x20 DUP1 DUP4 MSTORE DUP4 MLOAD DUP1 DUP3 DUP6 ADD MSTORE PUSH1 0x0 JUMPDEST DUP2 DUP2 LT ISZERO PUSH2 0x904 JUMPI DUP6 DUP2 ADD DUP4 ADD MLOAD DUP6 DUP3 ADD PUSH1 0x40 ADD MSTORE DUP3 ADD PUSH2 0x8E8 JUMP JUMPDEST POP PUSH1 0x0 PUSH1 0x40 DUP3 DUP7 ADD ADD MSTORE PUSH1 0x40 PUSH1 0x1F NOT PUSH1 0x1F DUP4 ADD AND DUP6 ADD ADD SWAP3 POP POP POP SWAP3 SWAP2 POP POP JUMP JUMPDEST DUP1 CALLDATALOAD PUSH1 0x1 PUSH1 0x1 PUSH1 0xA0 SHL SUB DUP2 AND DUP2 EQ PUSH2 0x93C JUMPI PUSH1 0x0 DUP1 REVERT JUMPDEST SWAP2 SWAP1 POP JUMP JUMPDEST PUSH1 0x0 DUP1 PUSH1 0x40 DUP4 DUP6 SUB SLT ISZERO PUSH2 0x954 JUMPI PUSH1 0x0 DUP1 REVERT JUMPDEST PUSH2 0x95D DUP4 PUSH2 0x925 JUMP JUMPDEST SWAP5 PUSH1 0x20 SWAP4 SWAP1 SWAP4 ADD CALLDATALOAD SWAP4 POP POP POP JUMP JUMPDEST PUSH1 0x0 DUP1 PUSH1 0x0 PUSH1 0x60 DUP5 DUP7 SUB SLT ISZERO PUSH2 0x980 JUMPI PUSH1 0x0 DUP1 REVERT JUMPDEST PUSH2 0x989 DUP5 PUSH2 0x925 JUMP JUMPDEST SWAP3 POP PUSH2 0x997 PUSH1 0x20 DUP6 ADD PUSH2 0x925 JUMP JUMPDEST SWAP2 POP PUSH1 0x40 DUP5 ADD CALLDATALOAD SWAP1 POP SWAP3 POP SWAP3 POP SWAP3 JUMP JUMPDEST PUSH1 0x0 PUSH1 0x20 DUP3 DUP5 SUB SLT ISZERO PUSH2 0x9B9 JUMPI PUSH1 0x0 DUP1 REVERT JUMPDEST PUSH2 0x9C2 DUP3 PUSH2 0x925 JUMP JUMPDEST SWAP4 SWAP3 POP POP POP JUMP JUMPDEST PUSH1 0x0 DUP1 PUSH1 0x40 DUP4 DUP6 SUB SLT ISZERO PUSH2 0x9DC JUMPI PUSH1 0x0 DUP1 REVERT JUMPDEST PUSH2 0x9E5 DUP4 PUSH2 0x925 JUMP JUMPDEST SWAP2 POP PUSH2 0x9F3 PUSH1 0x20 DUP5 ADD PUSH2 0x925 JUMP JUMPDEST SWAP1 POP SWAP3 POP SWAP3 SWAP1 POP JUMP JUMPDEST PUSH1 0x1 DUP2 DUP2 SHR SWAP1 DUP3 AND DUP1 PUSH2 0xA10 JUMPI PUSH1 0x7F DUP3 AND SWAP2 POP JUMPDEST PUSH1 0x20 DUP3 LT DUP2 SUB PUSH2 0xA30 JUMPI PUSH4 0x4E487B71 PUSH1 0xE0 SHL PUSH1 0x0 MSTORE PUSH1 0x22 PUSH1 0x4 MSTORE PUSH1 0x24 PUSH1 0x0 REVERT JUMPDEST POP SWAP2 SWAP1 POP JUMP JUMPDEST PUSH4 0x4E487B71 PUSH1 0xE0 SHL PUSH1 0x0 MSTORE PUSH1 0x11 PUSH1 0x4 MSTORE PUSH1 0x24 PUSH1 0x0 REVERT JUMPDEST DUP1 DUP3 ADD DUP1 DUP3 GT ISZERO PUSH2 0x294 JUMPI PUSH2 0x294 PUSH2 0xA36 JUMP JUMPDEST DUP2 DUP2 SUB DUP2 DUP2 GT ISZERO PUSH2 0x294 JUMPI PUSH2 0x294 PUSH2 0xA36 JUMP INVALID LOG2 PUSH5 0x6970667358 0x22 SLT KECCAK256 GT 0xD SELFBALANCE 0x4A CALLER 0xBD STATICCALL 0xC 0xE8 CHAINID 0xA5 0x1F ADDRESS PUSH7 0x6FCE315C3CEDF7 STOP PUSH5 0xA196515D36 0xA8 0x2A 0x4F 0xD0 PUSH5 0x736F6C6343 STOP ADDMOD GT STOP CALLER LOG2 PUSH5 0x6970667358 0x22 SLT KECCAK256 ORIGIN SWAP4 PUSH13 0x79E4DA835E3938B2E0F6CB99A5 PUSH23 0xFC0BFECE599FBAE5A365283E93681664736F6C63430008 GT STOP CALLER "
		},
		"gasEstimates": {
			"creation": {
				"codeDepositCost": "4142000",
				"executionCost": "infinite",
				"totalCost": "infinite"
			},
			"external": {
				"addLiquidity(address,uint256,uint256,uint256,uint256,address)": "infinite",
				"balanceOf(address,uint256)": "2694",
				"balanceOfBatch(address[],uint256[])": "infinite",
				"createPool(address)": "82023",
				"cupexToken()": "2404",
				"decimals()": "315",
				"exists(uint256)": "2540",
				"getExactTokensForTokens(address,address,uint256)": "infinite",
				"getListOfActiveTokens()": "infinite",
				"getPoolBalances(address)": "infinite",
				"getPoolBalances(uint256)": "infinite",
				"getTokensForExactTokens(address,address,uint256)": "infinite",
				"isApprovedForAll(address,address)": "infinite",
				"listOfPools(uint256)": "6884",
				"name()": "infinite",
				"removeLiquidity(address,uint256,uint256,uint256,address)": "infinite",
				"safeBatchTransferFrom(address,address,uint256[],uint256[],bytes)": "infinite",
				"safeTransferFrom(address,address,uint256,uint256,bytes)": "infinite",
				"setApprovalForAll(address,bool)": "infinite",
				"supportsInterface(bytes4)": "578",
				"swapExactTokensForTokens(address,address,uint256,uint256,address)": "infinite",
				"swapTokensForExactTokens(address,address,uint256,uint256,address)": "infinite",
				"symbol()": "infinite",
				"test1_CreateTokensAndPools()": "infinite",
				"test2_CreateNativeTokenAndPool()": "infinite",
				"totalSupply(uint256)": "2494",
				"uri(uint256)": "infinite"
			},
			"internal": {
				"_getInput(uint256,uint256,uint256)": "infinite",
				"_getOutput(uint256,uint256,uint256)": "infinite",
				"_getTokenBalanceInPoolBefore(contract IERC20)": "infinite",
				"_min(uint256,uint256)": "64",
				"_safeTokenTransferFromMsgSender(contract IERC20,uint256)": "infinite",
				"_safeTokenTransferToUser(contract IERC20,address,uint256)": "infinite",
				"_sqrt(uint256)": "infinite",
				"_swap(contract IERC20,uint256,uint256,uint256,uint256,uint256)": "infinite"
			}
		},
		"methodIdentifiers": {
			"addLiquidity(address,uint256,uint256,uint256,uint256,address)": "fb9f4789",
			"balanceOf(address,uint256)": "00fdd58e",
			"balanceOfBatch(address[],uint256[])": "4e1273f4",
			"createPool(address)": "9049f9d2",
			"cupexToken()": "691dc252",
			"decimals()": "313ce567",
			"exists(uint256)": "4f558e79",
			"getExactTokensForTokens(address,address,uint256)": "f979ca6d",
			"getListOfActiveTokens()": "4ddd33cc",
			"getPoolBalances(address)": "7b50f8c5",
			"getPoolBalances(uint256)": "c3bfd951",
			"getTokensForExactTokens(address,address,uint256)": "ef66b87a",
			"isApprovedForAll(address,address)": "e985e9c5",
			"listOfPools(uint256)": "c05d3945",
			"name()": "06fdde03",
			"removeLiquidity(address,uint256,uint256,uint256,address)": "59f842b2",
			"safeBatchTransferFrom(address,address,uint256[],uint256[],bytes)": "2eb2c2d6",
			"safeTransferFrom(address,address,uint256,uint256,bytes)": "f242432a",
			"setApprovalForAll(address,bool)": "a22cb465",
			"supportsInterface(bytes4)": "01ffc9a7",
			"swapExactTokensForTokens(address,address,uint256,uint256,address)": "6c08c57e",
			"swapTokensForExactTokens(address,address,uint256,uint256,address)": "f7d31809",
			"symbol()": "95d89b41",
			"test1_CreateTokensAndPools()": "bfef7f5f",
			"test2_CreateNativeTokenAndPool()": "7a5cac05",
			"totalSupply(uint256)": "bd85b039",
			"uri(uint256)": "0e89341c"
		}
	},
	"abi": [
		{
			"inputs": [],
			"stateMutability": "nonpayable",
			"type": "constructor"
		},
		{
			"anonymous": false,
			"inputs": [
				{
					"indexed": true,
					"internalType": "address",
					"name": "account",
					"type": "address"
				},
				{
					"indexed": true,
					"internalType": "address",
					"name": "operator",
					"type": "address"
				},
				{
					"indexed": false,
					"internalType": "bool",
					"name": "approved",
					"type": "bool"
				}
			],
			"name": "ApprovalForAll",
			"type": "event"
		},
		{
			"anonymous": false,
			"inputs": [
				{
					"indexed": true,
					"internalType": "contract IERC20",
					"name": "_token",
					"type": "address"
				},
				{
					"indexed": false,
					"internalType": "uint256",
					"name": "_amountTokensIn",
					"type": "uint256"
				},
				{
					"indexed": false,
					"internalType": "uint256",
					"name": "_amountCupexTokensIn",
					"type": "uint256"
				},
				{
					"indexed": false,
					"internalType": "uint256",
					"name": "_lpTokensAmount",
					"type": "uint256"
				},
				{
					"indexed": false,
					"internalType": "address",
					"name": "_transferTo",
					"type": "address"
				}
			],
			"name": "LiquidityAdded",
			"type": "event"
		},
		{
			"anonymous": false,
			"inputs": [
				{
					"indexed": true,
					"internalType": "contract IERC20",
					"name": "_token",
					"type": "address"
				},
				{
					"indexed": false,
					"internalType": "uint256",
					"name": "_amountTokensOut",
					"type": "uint256"
				},
				{
					"indexed": false,
					"internalType": "uint256",
					"name": "_amountCupexTokensOut",
					"type": "uint256"
				},
				{
					"indexed": false,
					"internalType": "uint256",
					"name": "_lpTokensAmount",
					"type": "uint256"
				},
				{
					"indexed": false,
					"internalType": "address",
					"name": "_transferTo",
					"type": "address"
				}
			],
			"name": "LiquidityRemoved",
			"type": "event"
		},
		{
			"anonymous": false,
			"inputs": [
				{
					"indexed": true,
					"internalType": "contract IERC20",
					"name": "_token",
					"type": "address"
				},
				{
					"indexed": false,
					"internalType": "uint256",
					"name": "_poolId",
					"type": "uint256"
				}
			],
			"name": "PoolCreated",
			"type": "event"
		},
		{
			"anonymous": false,
			"inputs": [
				{
					"indexed": true,
					"internalType": "contract IERC20",
					"name": "_token",
					"type": "address"
				},
				{
					"indexed": false,
					"internalType": "uint256",
					"name": "_amountTokensIn",
					"type": "uint256"
				},
				{
					"indexed": false,
					"internalType": "uint256",
					"name": "_amountCupexTokensIn",
					"type": "uint256"
				},
				{
					"indexed": false,
					"internalType": "uint256",
					"name": "_amountTokensOut",
					"type": "uint256"
				},
				{
					"indexed": false,
					"internalType": "uint256",
					"name": "_amountCupexTokensOut",
					"type": "uint256"
				}
			],
			"name": "Swap",
			"type": "event"
		},
		{
			"anonymous": false,
			"inputs": [
				{
					"indexed": true,
					"internalType": "contract IERC20",
					"name": "_token",
					"type": "address"
				},
				{
					"indexed": false,
					"internalType": "uint256",
					"name": "_newBalanceToken",
					"type": "uint256"
				},
				{
					"indexed": false,
					"internalType": "uint256",
					"name": "_newBalanceCupex",
					"type": "uint256"
				}
			],
			"name": "Sync",
			"type": "event"
		},
		{
			"anonymous": false,
			"inputs": [
				{
					"indexed": true,
					"internalType": "address",
					"name": "operator",
					"type": "address"
				},
				{
					"indexed": true,
					"internalType": "address",
					"name": "from",
					"type": "address"
				},
				{
					"indexed": true,
					"internalType": "address",
					"name": "to",
					"type": "address"
				},
				{
					"indexed": false,
					"internalType": "uint256[]",
					"name": "ids",
					"type": "uint256[]"
				},
				{
					"indexed": false,
					"internalType": "uint256[]",
					"name": "values",
					"type": "uint256[]"
				}
			],
			"name": "TransferBatch",
			"type": "event"
		},
		{
			"anonymous": false,
			"inputs": [
				{
					"indexed": true,
					"internalType": "address",
					"name": "operator",
					"type": "address"
				},
				{
					"indexed": true,
					"internalType": "address",
					"name": "from",
					"type": "address"
				},
				{
					"indexed": true,
					"internalType": "address",
					"name": "to",
					"type": "address"
				},
				{
					"indexed": false,
					"internalType": "uint256",
					"name": "id",
					"type": "uint256"
				},
				{
					"indexed": false,
					"internalType": "uint256",
					"name": "value",
					"type": "uint256"
				}
			],
			"name": "TransferSingle",
			"type": "event"
		},
		{
			"anonymous": false,
			"inputs": [
				{
					"indexed": false,
					"internalType": "string",
					"name": "value",
					"type": "string"
				},
				{
					"indexed": true,
					"internalType": "uint256",
					"name": "id",
					"type": "uint256"
				}
			],
			"name": "URI",
			"type": "event"
		},
		{
			"inputs": [
				{
					"internalType": "contract IERC20",
					"name": "_tokenAddr",
					"type": "address"
				},
				{
					"internalType": "uint256",
					"name": "_amountTokensIn",
					"type": "uint256"
				},
				{
					"internalType": "uint256",
					"name": "_amountCupexTokensIn",
					"type": "uint256"
				},
				{
					"internalType": "uint256",
					"name": "_minAmountTokensIn",
					"type": "uint256"
				},
				{
					"internalType": "uint256",
					"name": "_minAmountCupexTokensIn",
					"type": "uint256"
				},
				{
					"internalType": "address",
					"name": "_transferTo",
					"type": "address"
				}
			],
			"name": "addLiquidity",
			"outputs": [
				{
					"internalType": "uint256",
					"name": "",
					"type": "uint256"
				}
			],
			"stateMutability": "payable",
			"type": "function"
		},
		{
			"inputs": [
				{
					"internalType": "address",
					"name": "account",
					"type": "address"
				},
				{
					"internalType": "uint256",
					"name": "id",
					"type": "uint256"
				}
			],
			"name": "balanceOf",
			"outputs": [
				{
					"internalType": "uint256",
					"name": "",
					"type": "uint256"
				}
			],
			"stateMutability": "view",
			"type": "function"
		},
		{
			"inputs": [
				{
					"internalType": "address[]",
					"name": "accounts",
					"type": "address[]"
				},
				{
					"internalType": "uint256[]",
					"name": "ids",
					"type": "uint256[]"
				}
			],
			"name": "balanceOfBatch",
			"outputs": [
				{
					"internalType": "uint256[]",
					"name": "",
					"type": "uint256[]"
				}
			],
			"stateMutability": "view",
			"type": "function"
		},
		{
			"inputs": [
				{
					"internalType": "contract IERC20",
					"name": "_tokenAddr",
					"type": "address"
				}
			],
			"name": "createPool",
			"outputs": [
				{
					"internalType": "uint256",
					"name": "",
					"type": "uint256"
				}
			],
			"stateMutability": "nonpayable",
			"type": "function"
		},
		{
			"inputs": [],
			"name": "cupexToken",
			"outputs": [
				{
					"internalType": "contract IERC20",
					"name": "",
					"type": "address"
				}
			],
			"stateMutability": "view",
			"type": "function"
		},
		{
			"inputs": [],
			"name": "decimals",
			"outputs": [
				{
					"internalType": "uint256",
					"name": "",
					"type": "uint256"
				}
			],
			"stateMutability": "pure",
			"type": "function"
		},
		{
			"inputs": [
				{
					"internalType": "uint256",
					"name": "id",
					"type": "uint256"
				}
			],
			"name": "exists",
			"outputs": [
				{
					"internalType": "bool",
					"name": "",
					"type": "bool"
				}
			],
			"stateMutability": "view",
			"type": "function"
		},
		{
			"inputs": [
				{
					"internalType": "contract IERC20",
					"name": "_tokenIn",
					"type": "address"
				},
				{
					"internalType": "contract IERC20",
					"name": "_tokenOut",
					"type": "address"
				},
				{
					"internalType": "uint256",
					"name": "_amountIn",
					"type": "uint256"
				}
			],
			"name": "getExactTokensForTokens",
			"outputs": [
				{
					"internalType": "uint256",
					"name": "",
					"type": "uint256"
				}
			],
			"stateMutability": "view",
			"type": "function"
		},
		{
			"inputs": [],
			"name": "getListOfActiveTokens",
			"outputs": [
				{
					"internalType": "contract IERC20[]",
					"name": "",
					"type": "address[]"
				}
			],
			"stateMutability": "view",
			"type": "function"
		},
		{
			"inputs": [
				{
					"internalType": "contract IERC20",
					"name": "_tokenAddr",
					"type": "address"
				}
			],
			"name": "getPoolBalances",
			"outputs": [
				{
					"internalType": "uint256",
					"name": "",
					"type": "uint256"
				},
				{
					"internalType": "uint256",
					"name": "",
					"type": "uint256"
				}
			],
			"stateMutability": "view",
			"type": "function"
		},
		{
			"inputs": [
				{
					"internalType": "uint256",
					"name": "_poolId",
					"type": "uint256"
				}
			],
			"name": "getPoolBalances",
			"outputs": [
				{
					"internalType": "uint256",
					"name": "",
					"type": "uint256"
				},
				{
					"internalType": "uint256",
					"name": "",
					"type": "uint256"
				}
			],
			"stateMutability": "view",
			"type": "function"
		},
		{
			"inputs": [
				{
					"internalType": "contract IERC20",
					"name": "_tokenIn",
					"type": "address"
				},
				{
					"internalType": "contract IERC20",
					"name": "_tokenOut",
					"type": "address"
				},
				{
					"internalType": "uint256",
					"name": "_amountOut",
					"type": "uint256"
				}
			],
			"name": "getTokensForExactTokens",
			"outputs": [
				{
					"internalType": "uint256",
					"name": "",
					"type": "uint256"
				}
			],
			"stateMutability": "view",
			"type": "function"
		},
		{
			"inputs": [
				{
					"internalType": "address",
					"name": "account",
					"type": "address"
				},
				{
					"internalType": "address",
					"name": "operator",
					"type": "address"
				}
			],
			"name": "isApprovedForAll",
			"outputs": [
				{
					"internalType": "bool",
					"name": "",
					"type": "bool"
				}
			],
			"stateMutability": "view",
			"type": "function"
		},
		{
			"inputs": [
				{
					"internalType": "uint256",
					"name": "",
					"type": "uint256"
				}
			],
			"name": "listOfPools",
			"outputs": [
				{
					"internalType": "contract IERC20",
					"name": "tokenInPool",
					"type": "address"
				},
				{
					"internalType": "uint256",
					"name": "cupexTokenBalance",
					"type": "uint256"
				}
			],
			"stateMutability": "view",
			"type": "function"
		},
		{
			"inputs": [],
			"name": "name",
			"outputs": [
				{
					"internalType": "string",
					"name": "",
					"type": "string"
				}
			],
			"stateMutability": "view",
			"type": "function"
		},
		{
			"inputs": [
				{
					"internalType": "contract IERC20",
					"name": "_tokenAddr",
					"type": "address"
				},
				{
					"internalType": "uint256",
					"name": "_amountOfLiquidityToRemove",
					"type": "uint256"
				},
				{
					"internalType": "uint256",
					"name": "_minAmountTokensOut",
					"type": "uint256"
				},
				{
					"internalType": "uint256",
					"name": "_minAmountCupexTokensOut",
					"type": "uint256"
				},
				{
					"internalType": "address",
					"name": "_transferTo",
					"type": "address"
				}
			],
			"name": "removeLiquidity",
			"outputs": [
				{
					"internalType": "uint256",
					"name": "",
					"type": "uint256"
				},
				{
					"internalType": "uint256",
					"name": "",
					"type": "uint256"
				}
			],
			"stateMutability": "nonpayable",
			"type": "function"
		},
		{
			"inputs": [
				{
					"internalType": "address",
					"name": "from",
					"type": "address"
				},
				{
					"internalType": "address",
					"name": "to",
					"type": "address"
				},
				{
					"internalType": "uint256[]",
					"name": "ids",
					"type": "uint256[]"
				},
				{
					"internalType": "uint256[]",
					"name": "amounts",
					"type": "uint256[]"
				},
				{
					"internalType": "bytes",
					"name": "data",
					"type": "bytes"
				}
			],
			"name": "safeBatchTransferFrom",
			"outputs": [],
			"stateMutability": "nonpayable",
			"type": "function"
		},
		{
			"inputs": [
				{
					"internalType": "address",
					"name": "from",
					"type": "address"
				},
				{
					"internalType": "address",
					"name": "to",
					"type": "address"
				},
				{
					"internalType": "uint256",
					"name": "id",
					"type": "uint256"
				},
				{
					"internalType": "uint256",
					"name": "amount",
					"type": "uint256"
				},
				{
					"internalType": "bytes",
					"name": "data",
					"type": "bytes"
				}
			],
			"name": "safeTransferFrom",
			"outputs": [],
			"stateMutability": "nonpayable",
			"type": "function"
		},
		{
			"inputs": [
				{
					"internalType": "address",
					"name": "operator",
					"type": "address"
				},
				{
					"internalType": "bool",
					"name": "approved",
					"type": "bool"
				}
			],
			"name": "setApprovalForAll",
			"outputs": [],
			"stateMutability": "nonpayable",
			"type": "function"
		},
		{
			"inputs": [
				{
					"internalType": "bytes4",
					"name": "interfaceId",
					"type": "bytes4"
				}
			],
			"name": "supportsInterface",
			"outputs": [
				{
					"internalType": "bool",
					"name": "",
					"type": "bool"
				}
			],
			"stateMutability": "view",
			"type": "function"
		},
		{
			"inputs": [
				{
					"internalType": "contract IERC20",
					"name": "_tokenIn",
					"type": "address"
				},
				{
					"internalType": "contract IERC20",
					"name": "_tokenOut",
					"type": "address"
				},
				{
					"internalType": "uint256",
					"name": "_amountTokensIn",
					"type": "uint256"
				},
				{
					"internalType": "uint256",
					"name": "_minAmountTokensOut",
					"type": "uint256"
				},
				{
					"internalType": "address",
					"name": "_transferTo",
					"type": "address"
				}
			],
			"name": "swapExactTokensForTokens",
			"outputs": [
				{
					"internalType": "uint256",
					"name": "",
					"type": "uint256"
				}
			],
			"stateMutability": "payable",
			"type": "function"
		},
		{
			"inputs": [
				{
					"internalType": "contract IERC20",
					"name": "_tokenIn",
					"type": "address"
				},
				{
					"internalType": "contract IERC20",
					"name": "_tokenOut",
					"type": "address"
				},
				{
					"internalType": "uint256",
					"name": "_maxAmountTokensIn",
					"type": "uint256"
				},
				{
					"internalType": "uint256",
					"name": "_amountTokensOut",
					"type": "uint256"
				},
				{
					"internalType": "address",
					"name": "_transferTo",
					"type": "address"
				}
			],
			"name": "swapTokensForExactTokens",
			"outputs": [
				{
					"internalType": "uint256",
					"name": "",
					"type": "uint256"
				}
			],
			"stateMutability": "payable",
			"type": "function"
		},
		{
			"inputs": [],
			"name": "symbol",
			"outputs": [
				{
					"internalType": "string",
					"name": "",
					"type": "string"
				}
			],
			"stateMutability": "view",
			"type": "function"
		},
		{
			"inputs": [],
			"name": "test1_CreateTokensAndPools",
			"outputs": [],
			"stateMutability": "nonpayable",
			"type": "function"
		},
		{
			"inputs": [],
			"name": "test2_CreateNativeTokenAndPool",
			"outputs": [],
			"stateMutability": "payable",
			"type": "function"
		},
		{
			"inputs": [
				{
					"internalType": "uint256",
					"name": "id",
					"type": "uint256"
				}
			],
			"name": "totalSupply",
			"outputs": [
				{
					"internalType": "uint256",
					"name": "",
					"type": "uint256"
				}
			],
			"stateMutability": "view",
			"type": "function"
		},
		{
			"inputs": [
				{
					"internalType": "uint256",
					"name": "",
					"type": "uint256"
				}
			],
			"name": "uri",
			"outputs": [
				{
					"internalType": "string",
					"name": "",
					"type": "string"
				}
			],
			"stateMutability": "view",
			"type": "function"
		}
	]
}